:020000040000FA
:10000000073099000E30831681005D105D08831261
:100010008500831605105D115D0883128500831627
:1000200005118510DD105D08831285003A28260829
:10003000A8002708A900AA01AB0131280000000090
:10004000A130A0007B30A1000A128A11A10B242844
:100050000A128A11A00B222800000000AA0A031924
:10006000AB0A2A082802A0002B0829022004031D3D
:100070001E2808005D105D0885000A30A600A70153
:1000800017205D155D08831285000430A600A701C6
:1000900017205D115D08831285005D105D088500E5
:1000A000A301A4016300A30A0319A40A19302302BF
:1000B0002404031D52285D145D088500A501053048
:1000C000A600A70117206400A50A14302502031D0D
:0E00D0005F285D105D088312850064005028D3
:02400E009C3FD5
:00000001FF
