:020000040000FA
:10000000D190FC0ED3169B9CC26A0F0EC16EC06AC3
:10001000070EB46E31EF00F00650086E0750096EFF
:100020000A6A0B6A27EF00F00001110E026E570EEC
:10003000036E6F0E046E042E1BEF00F0032E19EFFB
:1000400000F0022E17EF00F00A2AD8B40B2A0A504B
:10005000085C026E0B50095C0210D8A414EF00F08B
:10006000120089908992899489968998899A8A90B0
:100070008A928A948A968A988A9A8A9C8A9E8B9077
:100080008B928B948B968B988B9A8B9C8B9E8C905F
:100090008C928C948C968C988C9A8C9C8C9E8D9047
:1000A0008D928D94926A936A946A956A966A898011
:1000B000050E066E076A0CEC00F089908982050E29
:1000C000066E076A0CEC00F089928984050E066EB4
:1000D000076A0CEC00F089948986050E066E076AA3
:1000E0000CEC00F089968988050E066E076A0CEC08
:1000F00000F08998898A050E066E076A0CEC00F0FC
:10010000899A8D80050E066E076A0CEC00F08D90C2
:100110008D82050E066E076A0CEC00F08D928D84C0
:10012000050E066E076A0CEC00F08D948B80050EB0
:10013000066E076A0CEC00F08B908B82050E066E43
:10014000076A0CEC00F08B928B84050E066E076A32
:100150000CEC00F08B948B86050E066E076A0CEC97
:1001600000F08B968C80050E066E076A0CEC00F092
:100170008C908C82050E066E076A0CEC00F08C9257
:100180008C84050E066E076A0CEC00F08C948C864D
:10019000050E066E076A0CEC00F08C968B88050E37
:1001A000066E076A0CEC00F08B988B8A050E066EC3
:1001B000076A0CEC00F08B9A8B8C050E066E076AB2
:1001C0000CEC00F08B9C8B8E050E066E076A0CEC17
:1001D00000F08B9E8C88050E066E076A0CEC00F012
:1001E0008C988C8A050E066E076A0CEC00F08C9ACF
:1001F0008C8C050E066E076A0CEC00F08C9C8C8EC5
:10020000050E066E076A0CEC00F08C9E8A80050EC7
:10021000066E076A0CEC00F08A908A82050E066E64
:10022000076A0CEC00F08A928A84050E066E076A53
:100230000CEC00F08A948A86050E066E076A0CECB8
:1002400000F08A968A88050E066E076A0CEC00F0AC
:100250008A988A8A050E066E076A0CEC00F08A9A64
:100260008A8C050E066E076A0CEC00F08A9C8A8E5A
:10027000050E066E076A0CEC00F08A9E050E066EEF
:0A028000076A0CEC00F057EF00F0E5
:020000040030CA
:0E0000000002181E000381000FC00FE00F4029
:00000001FF
