:020000040000FA
:100000000A128A11042800000608A300522883124D
:10001000A400A6011A28831203131630A0002C3066
:10002000A1000A128A11A10B11280A128A11A00B31
:100030000F28A60A26082402031D0B280800A70182
:10004000A801392883120313F230A0000A30A1005E
:100050002830A2000A128A11A20B2A280A128A1139
:10006000A10B28280A128A11A00B2628A70A031917
:10007000A80A27082402A000280825022004031D3E
:1000800022280800A4003630940024088316930028
:1000900014108312941314138C1183168C158B1760
:1000A0000B17080083160613861206128611061413
:1000B00086140615861308101329831223132308A8
:1000C000860006186B28061C632823172308860061
:1000D0001E300720013486187528861C6D282317CA
:1000E000230886001E300720023406197F28061DCB
:1000F00077282317230886001E3007200334231790
:1001000023088600A31623088600231623088600EA
:10011000A31523088600A312230886000618982832
:10012000061C9028A316230886001E3007200434DE
:100130008618A228861C9A28A316230886001E303B
:10014000072005340619AC28061DA428A316230889
:1001500086001E3007200634231723088600A316C6
:1001600023088600231623088600A315230886008B
:100170002312230886000618C528061CBD2823164E
:10018000230886001E30072007348618CF28861CD7
:10019000C7282316230886001E30072008340619B6
:1001A000D928061DD1282316230886001E300720D3
:1001B0000934231723088600A31623088600231674
:1001C00023088600A31523088600A31123088600B0
:1001D0000618F228061CEA28A315230886001E30FC
:1001E00007200A348618FC28861CF428A315230847
:1001F00086001E300720003406190629061DFE2839
:10020000A315230886001E3007200C34231723086B
:100210008600A31623088600231623088600A3154C
:100220002308860011348312231723088600A3169F
:1002300023088600231623088600A31523088600BA
:100240005C3042208312A317230886000A30A400E2
:10025000A5011F208312A313230886000530A400E4
:0C026000A5011F205D203230072032294C
:02400E007A3FF7
:00000001FF
