:020000040000FA
:100000000A128A11042800000508A2000608A300AD
:100010001D28193083169900181508000920831629
:100020008C120C1298169030831298000800A600CB
:100030000C1E182826089900080007309F00542835
:10004000A600A8013228831203133E30A00002301C
:10005000A1000A128A11A10B29280A128A11A00BE9
:100060002728A80A28082602031D23280800A9011A
:10007000AA014B2883120313E830A0005530A100D9
:100080000A128A11A10B40280A128A11A00B3E28DD
:10009000A90A0319AA0A29082602A0002A08270289
:1000A0002004031D3A2808008316861306138612BF
:1000B000061285140515851505108312A40116294D
:1000C0008312A3132308860085186E28851C6628D2
:1000D000A317230886001E30202001340519782834
:1000E000051D7028A317230886001E302020023427
:1000F00085198228851D7A28A317230886001E30BB
:1001000020200334A3172308860023172308860022
:10011000A31623088600231623088600231323082A
:10012000860085189B28851C9328231723088600A2
:100130001E30202004340519A528051D9D282317ED
:10014000230886001E30202005348519AF28851D20
:10015000A7282317230886001E3020200634A31763
:1001600023088600231723088600A3162308860089
:10017000231623088600A312230886008518C828A2
:10018000851CC028A316230886001E3020200734B3
:100190000519D228051DCA28A316230886001E307B
:1001A000202008348519DC28851DD428A3162308AF
:1001B00086001E3020200934A31723088600231749
:1001C00023088600A316230886002316230886002A
:1001D0002312230886008518F528851CED28231690
:1001E000230886001E3020200A340519FF28051D2B
:1001F000F7282316230886001E3020200034851996
:100200000929851D01292316230886001E30202078
:100210000C34A31723088600231723088600A3168F
:10022000230886002316230886001134A317230809
:100230008600231723088600A316230886002316AA
:10024000230886000E2083122214220885000A301B
:10025000A600A7013720831222102208850005304E
:10026000A600A701372060208312A400323020208E
:10027000113083122402031933290A302402031D8A
:1002800044292A30172033290C302402031D4B291E
:1002900023301720332930302407A50025081720E4
:0202A000332900
:02400E00583F19
:00000001FF
