:0A0006000E28FF00030E8301B00076
:100010000A08B1008A010A128A11B72B0A128A1142
:10002000E428820759346F34203473346F347934C0
:10003000203475346E346134203441344D344534C9
:100040003234820720342D34203431347234613418
:1000500020346C3469346E346534613420342D348A
:100060002034820720342D34203432346434613417
:1000700020346C3469346E346534613420342D346A
:10008000203482075534733461346E3464346F34F1
:1000900020345034523449344E3454342E342E34B7
:1000A0002E34820745344534503452344F344D3465
:1000B00053343A348207A034A234A434A634A8348A
:1000C000AA34AC34AE348207563461346C346F34A5
:1000D00072343A3482072034203420340030A31F95
:1000E0007D28A009A109A209A309A00A0319A10A50
:1000F0000319A20A0319A30A0130B3000030AB1F91
:100100008D28A809A909AA09AB09A80A0319A90AEF
:100110000319AA0A0319AB0A0130B3069028B301E8
:100120002030B200A401A501A601A7010310AC0D67
:10013000AD0DAE0DAF0D0310A00DA10DA20DA30DC1
:10014000A40DA50DA60DA70D27082B02031DB2288F
:1001500026082A02031DB22825082902031DB228F9
:10016000240828020319B6280318C5282808A40261
:100170002908031C290FA5022A08031C2A0FA6021E
:100180002B08031C2B0FA7022C14B20B9628330844
:1001900003190800AC09AD09AE09AF09AC0A03198F
:1001A000AD0A0319AE0A0319AF0AA409A509A609E5
:1001B000A709A40A0319A50A0319A60A0319A70A7D
:1001C00008008A0034088200F6283F0886000800EC
:1001D0004008880008008312BF00E528E528E528CC
:1001E000E528E528E528E528E528E828B6018B017B
:1001F000073083169F0083298312BD0001303D0222
:10020000031D0B29831203130A30A0000A128A115E
:10021000A00B0829432902303D02031D182983122F
:1002200003131930A0000A128A11A00B15294329C3
:1002300003303D02031D2529831203132830A0003B
:100240000A128A11A00B2229432904303D02031D02
:100250003229831203133730A0000A128A11A00B2F
:100260002F294329BE013F29831203130B30A0001D
:100270000A128A11A00B3A2900000000BE0A3E08AB
:100280003D02031D342900000000000000000800AA
:100290008312E700E8015B29831203131630A000E4
:1002A0002C30A1000A128A11A10B52290A128A11BC
:1002B000A00B5029E80A68086702031D4C290800B2
:1002C000D301D4017A2983120313F230A0000A303B
:1002D000A1002830A2000A128A11A20B6B290A126F
:1002E0008A11A10B69290A128A11A00B6729D30A66
:1002F0000319D40A53084F02A000540850022004E6
:10030000031D632908008312B7019C2981308312E1
:10031000B7000330B800080083169F010514851448
:1003200005158515851609148914091586298C2942
:10033000073083169F0008008C2183124E14CE10C4
:100340004E11B901902B8312BC003F103C183F1492
:10035000E5208312BF10BC18BF14E52083123F11A3
:100360003C193F15E5208312BF11BC19BF15E520CC
:100370008312BF16E5208312BF12E5288312E50021
:100380003F12E5208312650E0F39E6006608A321AF
:1003900083126508A3210530FC280830D1004E1CCB
:1003A000D3290430D107CE1CD7290230D1074E19EA
:1003B000D10A5108BE294F18DF29CE10CD29CE14FD
:1003C000CD292008BA003F16E52083123A0E0F39D6
:1003D000BB003B08A32183123A08A3210530FC2867
:1003E00080303904E1006108BE298312E000600812
:1003F000B900F0298312E0006008A000E121831217
:10040000B90A10303902031D082A4030B900F0291A
:10041000503039020319B901F029CF005108F521F4
:1004200083124F08FA298312CF004F08031D1A2A9E
:10043000B9011C2A4030B900F0218312D1012030CB
:10044000A000E1218312D10A10305102031D1F2A9E
:10045000F029003013220130132A8312BF12E52045
:10046000831686122830482183123F12E52003307C
:10047000A321053048210330A3210A30FC2003309A
:10048000A3210230A3210530FC202830BE210F30EB
:10049000BE210130BE210630BE212C304821013062
:1004A0008312D1004C300D2202308312D100433030
:1004B0000D2203308312D10044300D220430831208
:1004C000D10020300D2205308312D1004F300D2293
:1004D00006308312D1004B300D222C3048295308AE
:1004E000DD005408DE00E001872A5708B4005808F0
:1004F000B5006008B4070318B50A3508E120831277
:10050000A0004F08B4005008E1208312E00A600800
:100510005D02A0005E082004031D752A0800D300B8
:100520004F08D5005008D6005308D900DA01DB0186
:10053000DC016430E100E201E301E4010330A02AC0
:10054000E80059085A045B045C04031DAD2A3030EE
:10055000A0005508B4005608E1286B146408803ADE
:10056000A0000030803A2002031DC02A0030630240
:10057000031DC02A00306202031DC02A0030610240
:100580000319112B031C112B6108A8006208A90094
:100590006308AA006408AB005908A0005A08A1002B
:1005A0005B08A2005C08A3008F2083122C08E900DE
:1005B0002408D9002508DA002608DB002708DC001B
:1005C0000A30A800A901AA01AB016108A0006208D5
:1005D000A1006308A2006408A3006E2083122C0807
:1005E000E1002D08E2002E08E3002F08E40069086E
:1005F000EB150319EB116B126B1C6B16EB12EB1D59
:100600006B1AEB16EB1E0F2B30306904EA006A08F8
:10061000A0005508B4005608E12083126B10E803CF
:10062000AE2A08000A3083124102031D1B2B04303E
:1006300083169300262B04304102031D232B0B301D
:1006400083169300262B3130831693008312CE1D20
:100650002C2B831694010800403083169400080068
:100660001F30831611058312EB006B0803193A2B18
:100670006C143B2B6C106C156C18432B83161419DF
:10068000432B83126C1183126C193B2B08008C11C5
:100690008316111483128C1D4A2B8C1108003023F1
:1006A000831691149118522B080083128C11831613
:1006B000111583128C1D592B8C110800E7008C1129
:1006C000670893008C1D622B8C110800E8000A302B
:1006D000E9006A1083126A18832B680893008C1152
:1006E0008C1D702B8316111B792B83126A14201416
:1006F00008008312E90369080319802B4F236A2B32
:100700006A1420100800080083169115141C862B0B
:100710001116111A892B83121308E80068080800C3
:10072000831687150716283083129400203083160D
:10073000910001308312C100CE1583168601081086
:10074000881487148312C201C301C401C501C60104
:10075000C701C801C90183168101C0308B00053073
:100760008312900083160C1483124E12022D0C1C5F
:10077000C02B0C108E013C308F00AA308E004E161C
:1007800031088A00300E8300FF0E7F0E0900E00062
:10079000472383126008662383126208662383124C
:1007A000610866234F23013083126004E700670865
:1007B000662384238312E60055238312660808000B
:1007C000E0004723831260085E23831262085E23E1
:1007D000831261085E23831266085E23552304306A
:1007E00048298312D300D501E101E2015308C72350
:1007F0008312D700E101E201AA30E6005308E023AA
:100800008312E101E2015308C7238312D500AA3005
:100810005502031D132C5914E101E2015708E600AB
:100820005308E023142C5910831220105918201457
:1008300008008312D300D901DD01E101E201530870
:10084000C7238312D9005508E1005608E200530877
:10085000C7238312DD005D085902031D552C590A78
:10086000DF00E101E2015F08E6005308E0238312A4
:100870005508E1005608E2005308C7238312DD0043
:10088000590ADF005D085F02031D4F2CE101E20100
:100890005908E6005308E023831220140800E10100
:1008A000E2015908E6005308E02B201008008312EB
:1008B0005110D110CF01CF0100308A004F085A20CB
:1008C000F1238312511020185114511CC12CD50151
:1008D0001030D60000308A004F085A2019248312A5
:1008E000D1102018D114D11C7C2C42304F07840029
:1008F000831304308000C12CD5012030D600003095
:100900008A004F085A2019248312D1102018D114BC
:10091000D11C912C42304F07840083130830800093
:10092000C12CD5014030D60000308A004F085A2033
:1009300019248312D1102018D114D11CA62C4230B6
:100940004F078400831310308000C12CD501803004
:10095000D60000308A004F085A2019248312D11083
:100960002018D114D11CBB2C42304F0784008313B4
:1009700020308000C12C42304F0784008313403068
:100980008000CF0A08304F02031D5C2C0800881C31
:10099000E12C98218316871507168312BF17E520CF
:1009A00002308312CF00D00160218312BF13E520F3
:1009B00002308312CF00D00160210030EB206400B0
:1009C00063000800CF005108D9005208DA00DF01A7
:1009D0004F08F5218312DF01FA2C5508B4005608A0
:1009E000B5005F08B4070318B50A3508E120FA21FD
:1009F0008312DF0A5F085902A0005A082004031D71
:100A0000ED2C0800CA01CB01CC01CD01C7249821EF
:100A100012232D2283124010E8208312BF17E520F5
:100A200005308312CF00D00160218312BF13E5206F
:100A300005308312CF00D00160218312BF17E5205B
:100A400005308312CF00D00160218312BF13E5204F
:100A5000572483124F10DB210F308312D100D201B3
:100A60001230D5000030D6000030E2241E30831250
:100A7000CF00D00160210F308312D100D20122308B
:100A8000D5000030D6000030E2240F308312D100B0
:100A9000D2013230D5000030D6002830E2241E309A
:100AA0008312CF00D00160212922E1308312CF00D0
:100AB0000130D0000F30D300D4014230D7000030D5
:100AC000D8006F221E308312CF00D001602129226E
:100AD0000030F521E1308312CF000130D000063024
:100AE000D300D4016430D7000030D8006F22283002
:100AF000F521E1308312CF000130D0000830D3005F
:100B0000D4015230D7000030D8006F228312CA01BE
:100B1000CA0142304A07840083130008031DCD0A2E
:100B2000CA0A08304A02031D892DE130CF00013086
:100B3000D0004D088F2283124E1E9B2D64304B0235
:100B4000031DC52D0630F521E1308312CF000130A1
:100B5000D0004C088F22FF3083124C02031DC12DA0
:100B6000CC010630F521E1308312CF000130D000F6
:100B70000330D300D4016B30D7000030D8006F228F
:100B8000C22DCC0A8312CB01C62DCB0A4E129B2D4F
:00000001FF
