:020000040000FA
:100000000A128A1136281030A8000310A40DA50D7D
:100010000310A00DA10D031C13282308A507220817
:10002000A4070318A50AA80B052808001030A8008B
:10003000A201A3010310A60DA70D0310A00DA10D91
:10004000A20DA30D23082502031D2828220824023F
:1000500003192C28031833282508A3022408A20218
:10006000031CA3032614A80B1A2808009F010730BD
:1000700083169F0007309C00F7288C183D2817082E
:1000800083128D008316180883128F0083168C1339
:100090000C1483120C088316990019080800EF004D
:1000A00003178C185028140883128D008316150826
:1000B00083128F0083168C1303136F0883120317A8
:1000C0008C0083160C1516108B1B16148B135530D1
:1000D0008D00AA308D008C14161870288B1371288F
:1000E0008B170C1108006D080317920003136E089C
:1000F0000317930012089700130898003D208316F9
:1001000003179000013003136D07031792000030AE
:100110000318013003136E070317930012089700AA
:10012000130898003D208316031791000800670804
:10013000EB006808EC006B080317940003136C08CD
:1001400003179500031369084F200130831603132A
:100150006707EB000030031801306807EC006B08FC
:100160000317940003136C080317950003136A0820
:100170004F288715071628308312940020308316E5
:100180009100313093009401080083160313111479
:100190001118C82808008316031311151119CE2849
:1001A000080083160313E60083128C118316660879
:1001B000831293008C1DDA288316111BE228831208
:1001C0002014080083129412941620100800911530
:1001D000141CE82865189112651C91161116111A45
:1001E000EF28831213088316E40064080800B9207E
:1001F000752983160313E200620803190800013011
:100200006202031D0C29831203130A30A0000A1294
:100210008A11A00B09290800E20383120313063098
:10022000A0000A128A11A00B1329000000008316F7
:10023000E3012529831203130D30A0000A128A114D
:10024000A00B202900008316E30A63086202031D45
:100250001A290800E001E101402983120313063046
:10026000A000A530A1000A128A11A10B33290A129D
:100270008A11A00B312900008316E00A0319E10A54
:1002800060085E028312A000831661085F02831279
:100290002004031D2D290800DC01DD0168298312DB
:1002A00003135E30A000FD30A1000330A2000A124B
:1002B0008A11A20B57290A128A11A10B55290A1279
:1002C0008A11A00B532900008316DC0A0319DD0AEA
:1002D0005C085A028312A00083165D085B02831239
:1002E0002004031D4F290800080083120313AA01EC
:1002F000D029D800580D8312A000A00DA00D3830D1
:10030000A005C7301F0520049F001F142E08F920E8
:10031000831203131F151F198B291E088316D9007A
:10032000223083122D0203199729031CA12983125D
:100330000313C630A0000A128A11A00B9D290000E9
:10034000A929831203131930A0000A128A11A00BE5
:10035000A7291F10831659080800D50055087921D0
:1003600083160313D7001E08D60056088312A00078
:10037000831657088312A10008008316D000500886
:10038000AD218312031320088316D30083122108A2
:100390008316D4005408D1005308D2005108080035
:1003A0003F30C605FC30C705831605143F30831265
:1003B00046058038C600FC3047050338C700A00159
:1003C000461B2014C61BA01447182015C718A015DB
:1003D0000F302005A100F03083161F058312210481
:1003E00083169F009F1708308312C800C901083088
:1003F000C800C9010530CA004A0CA000A00C200C9E
:10040000A000C030A0053F301F0520049F0004302D
:100410004A05A00020080319102A83161F17122A64
:1004200083161F1383124808AD001530AE008316E3
:100430008601502A83160313CF004F18222A8312F5
:100440002C10242A83122C142C0886008316CF1813
:100450002C2A8312AC102E2A8312AC142C0886008E
:1004600083164F19362A83122C11382A83122C1521
:100470002C0886008316CF19402A8312AC11422A19
:100480008312AC152C088600AC162C0886000000E0
:100490000000000000000000AC122C0886000800DC
:1004A0008312AB01D62A013083160313CD008312C9
:1004B0002C122C08860083164D0E0F39CE004E08E4
:1004C0001A22831603134D081A220430F920B4307F
:1004D000F9282C122C08860019308316DE00DF0163
:1004E0002A2103301A22053083160313DE00DF01B0
:1004F0002A2103301A220A30F92003301A2204304C
:10050000F92002301A220430F92028308316031310
:10051000C50083122C122C0886008316450E0F3955
:10052000C60046081A228316031345081A2204300F
:10053000F9201C3083160313C70083122C122C08D9
:1005400086008316470E0F39C80048081A22831602
:10055000031347081A220430F9200C3083160313C2
:10056000C90083122C122C0886008316490E0F39FD
:10057000CA004A081A228316031349081A220430B3
:10058000F920063083160313CB0083122C122C089B
:10059000860083164B0E0F39CC004C081A228316A6
:1005A00003134B081A220430F920532A69228316B8
:1005B000031388148312AF01B001B101B201B3017A
:1005C000B401B501B601B701B801B901BA01BB0167
:1005D000BC01BD01BE01BF01C001C101132D8316C5
:1005E000C200C301C40164308312A400A5018316B4
:1005F00042088312A000A1011620831203132608CB
:100600008316C3004308BF003F088312A000A10166
:100610006430A200A301032083120313240883166D
:10062000C3004308C2020A308312A400A501831646
:1006300042088312A000A10116208312031326088A
:100640008316C4004408C00040088312A000A10122
:100650000A30A200A3010320831203132408831687
:10066000C4004408C2024208C1003F080800B801A3
:10067000B901BA01BB01BC01BD01BE01103083123A
:10068000A4002730A500831636088312A000831625
:1006900037088312A100162083120313260883163D
:1006A000B800831227088316B9003808B10038084B
:1006B0008312A000831639088312A1001030A20013
:1006C0002730A30003208312031324088316B800E5
:1006D000831225088316B9003908B7023808B60214
:1006E000031CB703E8308312A4000330A50083166F
:1006F00036088312A000831637088312A100162043
:100700008312031326088316BA0083122708831660
:10071000BB003A08B2003A088312A00083163B08D7
:100720008312A100E830A2000330A300032083124B
:10073000031324088316BA00831225088316BB000E
:100740003B08B7023A08B602031CB70364308312B1
:10075000A400A501831636088312A000831637086B
:100760008312A10016208312031326088316BC00EF
:10077000831227088316BD003C08B3003308831298
:10078000A000A1016430A200A3010320831203137F
:1007900024088316BC00831225088316BD003D087B
:1007A000B7023C08B602031CB7030A308312A40048
:1007B000A501831636088312A0008316370883121A
:1007C000A10016208312031326088316BE003E08DC
:1007D000B40034088312A000A1010A30A200A301D2
:1007E00003208312031324088316BE003E08B602BA
:1007F000031CB7033608B50031080800831603133D
:10080000AB00AE01AF01B001C520D030D1208316BE
:1008100003132B08D120CB20C520D130D120831643
:1008200003136510E72083160313AE00CB20831655
:1008300003132E08AF002E08B000F030AF052F0EC6
:100840000F39AC000F303005AD002C0808008316BE
:10085000A901AA010530DE00DF012A210630FE23AE
:1008600083160313A9002D08AA0029088312A000EB
:10087000A1010A30A200A30103208312031324085C
:100880008316A9002A0829078312AF000530FE232A
:1008900083160313A9002D08AA0029088312A000BB
:1008A000A1010A30A200A30103208312031324082C
:1008B0008316A9002A0829078312B0000430FE23FA
:1008C00083160313A9002D08AA0029088312A0008B
:1008D000A1010A30A200A3010320831203132408FC
:1008E0008316A9002A0829078312B1000230FE23CB
:1008F00083160313A9002D08AA0029088312A0005B
:10090000A1010A30A200A3010320831203132408CB
:100910008316A9002A0829078312B2000130FE239A
:1009200083160313A9002D08AA0029088312A0002A
:10093000A1010A30A200A30103208312031324089B
:100940008316A9002A0829078312B3000030FE236A
:1009500083160313A9002D08AA0029088312A000FA
:10096000A1010A30A200A30103208312031324086B
:100970008316A9002A0829078312B4000800A600DC
:10098000C520831603132608D120831603132808D5
:10099000D120831603132708D120831203132F08B5
:1009A000D120831203133008D1208312031331089E
:1009B000D120831203133208D1208312031333088A
:1009C000D120831203133408D120831203133A0871
:1009D0008316B60083123B088316B70037238312B1
:1009E0000313B500831632088312B600831633084A
:1009F0008312B700831634088312B80083163508B3
:100A00008312B9003708D120831203133808D1208C
:100A1000831203133908D120CB200430831603132B
:100A2000DE00DF012A29881C302D9F010730831644
:100A30009F00871507168312AC172C08860002301A
:100A40008316DA00DB014C2183120313AC132C084C
:100A5000860002308316DA00DB014C21640063005B
:100A600083120313AC132C088600AC172C088600E5
:100A70000F308316DA00DB014C2183120313AC1311
:100A80002C088600CB01CC014B088316ED008312A5
:100A90004C088316EE007320831603171008831288
:100AA0000313CD0083160317110883120313CE001E
:100AB0004D08C2004E08C3004208BE004308BF00F4
:100AC00053224F3083120313CF002C162C088600BC
:100AD0004F0E0F39D00050081A22831203134F080B
:100AE0001A220430F9204B3083120313D1002C1644
:100AF0002C088600510E0F39D20052081A22831298
:100B0000031351081A220430F9200F3083160313FF
:100B1000DA00DB014C21532283120313D301D701E6
:100B2000D801D901DA01DB01D301D7010030BD21A1
:100B300083120313D500831652088312D4000310C6
:100B4000570DC200103042078400831754088000FC
:100B5000840A550880000330F92083120313D70A52
:100B600030305702031D962D3030D600D701C72DE7
:100B70000310570DC200113042078400831700088C
:100B8000D90784030008D8070318D90AD70A5708D9
:100B90005602031DB82D5608A400A5015808A00050
:100BA0005908A1001620831203132608C200270843
:100BB000C30001304207DA00003003180130430758
:100BC000DB005308EF2283120313B700831640089B
:100BD0008312B800831641088312B90030303907F8
:100BE000DC002C162C0886005C0E0F39E20062082F
:100BF0001A22831203135C081A220430F9202030D1
:100C000083120313E3002C162C088600630E0F39A1
:100C1000E40064081A228312031363081A220430C2
:100C2000F920503083120313E5002C162C0886009F
:100C3000650E0F39E60066081A2283120313650851
:100C40001A220430F920723083120313E7002C16A5
:100C50002C088600670E0F39E80068081A228312F4
:100C6000031367081A220430F9206F30831203132C
:100C7000E9002C162C088600690E0F39EA006A0874
:100C80001A228312031369081A220430F9206D30E6
:100C900083120313EB002C162C0886006B0E0F3901
:100CA000EC006C081A22831203136B081A2204301A
:100CB000F9203A3083120313ED002C162C0886001D
:100CC0006D0E0F39EE006E081A22831203136D08A1
:100CD0001A220430F920203083120313EF002C165F
:100CE0002C0886006F0E0F398316A00020081A22E8
:100CF000831203136F081A220430F920831203139E
:100D00005A088316B60083125B088316B700372390
:100D100083120313B500831632088312B6008316BC
:100D200033088312B700831634088312B800831681
:100D300035088312B90030303507DD002C162C0839
:100D400086005D0E0F398316A10021081A22831236
:100D500003135D081A220430F92030308312031384
:100D60003607DE002C162C0886005E0E0F3983161F
:100D7000A20022081A22831203135E081A220430EA
:100D8000F9203030831203133707DF002C162C08AC
:100D900086005F0E0F398316A30023081A228312E0
:100DA00003135F081A220430F92030308312031332
:100DB0003807E0002C162C088600600E0F398316C9
:100DC000A40024081A228312031360081A22043094
:100DD000F9203030831203133907E1002C162C0858
:100DE0008600610E0F398316A50025081A2283128A
:100DF000031361081A220430F9201E3083160313EE
:100E0000DA00DB014C215322831203135B08BD0778
:100E10005A08BC070318BD0ADA01DB01D801D90161
:100E2000D30A05305302031D952D0530A400A501FA
:100E30003C08A0003D08A1001620831203132608D9
:100E4000C2002708C30001304207BC00003003186D
:100E500001304307BD004108C30002304002C20018
:100E6000031CC3033D084302031D382F3C08420204
:100E7000C61103193D2F0318C6154108C5000230DD
:100E80004007C4000318C50A3D084502031D4A2F48
:100E90003C084402461203194F2F031C4616C61283
:100EA000C61D461AC616C61E8C2D3C08BA003D0843
:100EB000BB002724831203133E088316A700831266
:100EC0003F088316A800A030BF2409308312031303
:100ED000BE070318BF0A8316E701E80183123E0824
:100EE0008316E90083123F088316EA0097208312D5
:0C0EF00003133C08C0003D08C1008C2D1D
:02400E007A3FF7
:00000001FF
