:020000040000FA
:020000001628C0
:08000800DE00030E8301A800D5
:100010000A08A9008A015F08AB002008A400210893
:10002000A5002208A6002308A700E228FF238316C4
:10003000900007308312990040283508B700360831
:10004000B800B901BA01372800000000A130A000B3
:100050007B30A1000A128A11A10B2A280A128A11E8
:10006000A00B282800000000B90A0319BA0A3908B1
:100070003702A0003A0838022004031D2428080093
:1000800083168516051685150515851405105D1052
:100090005D08831285003410B101B201831681130B
:1000A00095161516951415159614161596151616FB
:1000B000961601138B158B174030AD004230AE0001
:1000C0000F30AF00B001CD280C1CBC280C102D083F
:1000D000A0002E08A1002F08A2003008A3000030C5
:1000E000A0020030DF00031C5F0FA1020130DF001F
:1000F000031C5F0FA2020030DF00031C5F0FA3028E
:100100002008AD002108AE002208AF002308B0008F
:1001100000303002031D962801302F02031D96285F
:1001200000302E02031D962800302D020319BC2832
:100130000318BC28AC0A2D08A0002E08A1002F0827
:10014000A2003008A3004030A0074230DF000318AF
:100150005F0FA1070F30DF0003185F0FA207003009
:10016000DF0003185F0FA3072008AD002108AE00D1
:100170002208AF002308B0002408A0002508A10031
:100180002608A2002708A3002B08DF0029088A0000
:10019000280E8300DE0E5E0E0900CF30831290051C
:1001A00090119010101483160C140B178B170A3033
:1001B000B500B6011D200B105D105D08831285008F
:1001C000B414FA280B1C64280B108518E928341481
:1001D000B4100519ED283414B410051AF12834149C
:1001E000B4108519F5283414B410851A6428341411
:1001F000B4106428341C032934105D145D08850094
:100200002C08B2000B102C08B10003303207B300E9
:100210003108330203190E29031814295D105D08F3
:100220008500B101B201B414B41CFA286300FA28A5
:02400E00943FDD
:00000001FF
