:020000040000FA
:100000000A128A115C288207313430342034623479
:100010007934743465347334203465347334633420
:100020007234693474346F347334203465346E340C
:10003000203445344534503452344F344D34203418
:10004000233430348207503449344334203441342B
:100050004D34453432342034723465347334703462
:100060006F346E346434693465346E3464346F34A0
:100070002E342E342E340830A0000310A30D0310AC
:10008000A10D031C45282208A307A00B3D2808004A
:100090000830A000A3010310A50D0310A20DA30DAD
:1000A0002308240203195628031859282408A302F8
:1000B0002514A00B4B280800652829088600080095
:1000C0002A08880008005D286028A60131108B01ED
:1000D000073083169F00A7288312C100C2017F2822
:1000E000831203131630A2002C30A3000A128A11C7
:1000F000A30B76280A128A11A20B7428C20A42089E
:100100004102031D70280800BE01BF019E28831212
:100110000313F230A2000A30A3002830A4000A1210
:100120008A11A40B8F280A128A11A30B8D280A1298
:100130008A11A20B8B28BE0A0319BF0A3E083A0295
:10014000A2003F083B022204031D872808008312F7
:10015000A701BC2881308312A7000330A800080043
:1001600083169F0105148514051585158516091438
:1001700089140915AA28B028B02063290A308316EB
:10018000990018150800BE2083168C120C129816C0
:1001900090308312980008008312BA003118D428D6
:1001A0000C1ED0283A08990008008C1EDA281A087C
:1001B000BA00DC282210E128981CE0281812181632
:1001C00022143A0808000A3083122B02031DEC287F
:1001D000043083169300F72804302B02031DF42803
:1001E0000B3083169300F728313083169300831267
:1001F000B11CFD288316940108004030831694003A
:1002000008001F30831611058312C5004508031925
:100210000B2946140C294610461546181429831636
:100220001419142983124611831246190C29080047
:1002300083128C118316111483128C1D1C298C11AE
:1002400008000121831691149118242908008312B3
:100250008C118316111583128C1D2B298C1108000B
:100260008312C5008C11450893008C1D35298C1113
:100270000800C2000A30C3004410831244185629F3
:10028000420893008C118C1D43298316111B4C29A5
:1002900083124414221408008312C3034308031971
:1002A000532921213D2944142210080008008316F7
:1002B0009115141C59291116111A5C29831213085F
:1002C000C5004508080083168715071628308312D5
:1002D000940020308316910004308312AB00B114D7
:1002E00083168613081088148312AC01AD01AE0189
:1002F000462AC000C101C2016430A4004008A20027
:10030000482083122508C1004108BA003A08A1001C
:100310006430A2003B2083122308C1004108C002C0
:100320000A30A4004008A200482083122508C20019
:100330004208BC003C08A1000A30A2003B20831206
:100340002308C2004208C0024008BE003A08080064
:100350008312BE00C201C301C4011821D030302174
:1003600083123E08302127211821D1303021572116
:100370008312C200272183124208C3004208C4002E
:10038000F030C305430E0F39C0000F304405C100E3
:1003900040080800BA01BC010230A8218312BA004B
:1003A0004108BC003A08A1000A30A2003B20831299
:1003B0002308BA003C083A07AC000130A821831298
:1003C000BA004108BC003A08A1000A30A2003B2054
:1003D00083122308BA003C083A07AD000030A82178
:1003E0008312BA004108BC003A08A1000A30A200FA
:1003F0003B2083122308BA003C083A07AE000800ED
:10040000BA00182183123A08302183123D083021A6
:1004100083123C0830218312400830212721043008
:100420006C28BA00182183123A08392183123D083A
:10043000392183123C0839212121013083123A04E9
:10044000C1004108392157218312C000272183129E
:1004500040080800BA00C001182183123A08302170
:1004600083123D08302183123C0830218312C001E1
:10047000C001400830218312C00A0A304002031D27
:10048000392A27290D30CC200A30CC282A106020A8
:10049000E320C3208312A9175D200A308312BA001B
:1004A000BB0184208312A9135D208312AF01831244
:1004B000B301B401B501B601B701B801D52083126B
:1004C000AF00311122183115311D5E2A61302F0223
:1004D000031D792AB301B30100308A0033082220BA
:1004E000CC208312B30A18303302031D6C2A422237
:1004F000572A63302F02031DF32A0430A8218312E8
:10050000B5004108B40030303507B0003008CC20C9
:10051000303083123407B0003008CC202F30CC208C
:100520000530A8218312B5004108B40030303507EA
:10053000B0003008CC20303083123407B0003008CF
:10054000CC202F30CC200630A8218312B5004108E2
:10055000B40030303507B0003008CC203030831282
:100560003407B0003008CC202030CC202D30CC20F7
:100570002030CC200230A8218312B5004108B400FD
:1005800030303507B0003008CC20303083123407CB
:10059000B0003008CC203A30CC200130A8218312A2
:1005A000B5004108B40030303507B0003008CC2029
:1005B000303083123407B0003008CC203A30CC20E1
:1005C0000030A8218312B5004108B400303035074F
:1005D000B0003008CC20303083123407B00030082F
:1005E000CC204222572A77302F02031D172BB90146
:1005F0003708BC00BD013808C000A03000228312BB
:10060000B70A0230B807B90A0A303902031DF82ABE
:10061000B301B30100308A0033080320CC208312D9
:10062000B30A1E303302031D0A2B4222572A7230AE
:100630002F02031D452BB701B7013708BC00BD01D0
:10064000A03011228312B800380879218312B60035
:100650003C08B5003E08B40030303607B000300822
:10066000CC20303083123507B0003008CC20303039
:1006700083123407B0003008CC2042228312B70A1C
:1006800014303702031D1D2B572A65302F02031D1E
:10069000E62BCA2183122C0879218312B6003C086C
:1006A000B5003E08B40030303507B0003008CC202B
:1006B000303083123407B0003008CC203A30CC20E0
:1006C00083122D0879218312B6003C08B5003E083C
:1006D000B40030303507B0003008CC203030831201
:1006E0003407B0003008CC203A30CC2083122E08DA
:1006F00079218312B6003C08B5003E08B4003030C2
:100700003507B0003008CC20303083123407B000F9
:100710003008CC200D30CC200A30CC208312B70119
:10072000B9013708BC00BD01A0302A2204306C207A
:100730000A308312B707B90AC8303902031D912B5A
:10074000CA2183122C0879218312B6003C08B50017
:100750003E08B40030303507B0003008CC203030CF
:1007600083123407B0003008CC203A30CC208312FA
:100770002D0879218312B6003C08B5003E08B4006C
:1007800030303507B0003008CC20303083123407C9
:10079000B0003008CC203A30CC2083122E087921CA
:1007A0008312B6003C08B5003E08B400303035076F
:1007B000B0003008CC20303083123407B00030084D
:1007C000CC200D30CC200A30CC20572A74302F0298
:1007D000031DF82BBC01BD01A0302A2204306C207F
:1007E0000A308312BC00BD01A0302A2204306C20E4
:0207F000572A86
:02400E00323F3F
:00000001FF
