:020000040000FA
:100000009F01073083169F0007309C003428A20010
:1000100022080319080001302202031D1828831248
:1000200003130A30A0000A128A11A00B1528080039
:10003000A203831203130630A0000A128A11A00B38
:100040001F2800000000A3012F28831203130D3086
:10005000A0000A128A11A00B2B280000A30A230873
:100060002202031D252808000614071283122112FC
:1000700021088700831221162108870032300720CB
:0E0080008312211221088700323007203A280F
:02400E007A3FF7
:00000001FF
