:020000040000FA
:100000003FEF00F0200E146E086A096A0A6A0B6A54
:10001000D8901036113612361336D890043605367D
:1000200006360736083609360A360B360B500F5C93
:10003000D8A427EF00F00A500E5CD8A427EF00F0F8
:1000400009500D5CD8A427EF00F008500C5CD8B420
:100050002DEF00F0D8B03BEF00F0D88008500C54E2
:10006000086E09500D54096E0A500E540A6E0B505A
:100070000F540B6E1080142E08EF00F01200D19078
:10008000FC0ED3169B9CC26A0F0EC16EC06A070E8F
:10009000B46E91EF00F03650386E3750396E3A6AD0
:1000A0003B6A62EF00F00001090E046EB70E056EA8
:1000B000052E58EF00F0042E56EF00F000003A2A0B
:1000C000D8B43B2A3A50385C046E3B50395C04107B
:1000D000D8A453EF00F012003050326E3150336E1E
:1000E000346A356A87EF00F00001110E046E570E76
:1000F000056E6F0E066E062E7BEF00F0052E79EF73
:1001000000F0042E77EF00F0342AD8B4352A3450AA
:10011000325C046E3550335C0410D8A474EF00F0E8
:100120001200166A010E176E10EF01F027500C6EC8
:1001300028500D6E29500E6E2A500F6E046A2D0E37
:10014000056E310E066E010E076E02EC00F01050C7
:100150002B6E11502C6ED8902C302E6E2B302D6EB5
:10016000D8902E322D32CA6A2D502E102F80D8B43E
:100170002F90100E2E5CD8A4C0EF00F0000E2D5C66
:100180002F92D8A4D8A02F822F842FB02FA22F94E3
:100190002FA40FEF01F0010E2E5CD8A4D2EF00F0D7
:1001A000000E2D5CD8B4D8EF00F0D8B0E0EF00F02E
:1001B0002D50166E2E50176EFC0ECA160CEF01F065
:1001C000040E2E5CD8A4E7EF00F0000E2D5CD8B42E
:1001D000EDEF00F0D8B0FBEF00F0D8902E30176EA6
:1001E0002D30166ED89017321632FC0ECA14010943
:1001F000CA6E0CEF01F0D8902E30176E2D30166EAF
:10020000030E046ED89017321632042E02EF01F05E
:10021000FC0ECA140209CA6E1604CB6ECA84120000
:10022000186A196A19EF02F0F00E19140C09196E08
:100230001850BE6E1950BD6E1200F00E19161950EE
:10024000BD6E1200030E265CD8A429EF01F0FF0E4C
:10025000255CD8B433EF01F0D8A033EF01F0FF0EE6
:10026000256E030E266ED8902630056E2530046E5E
:10027000D890053204320450186E030E2514046E13
:100280000438056E300E0516CF0E19140510196EC0
:1002900014EF01F01C6E1C50D8A453EF01F01D6A3E
:1002A0001E6A8EEF01F0640E1C5CD8B45BEF01F0A7
:1002B000D8A064EF01F017501E6E16041D6E1D28A5
:1002C000D8B41E068EEF01F01C501F6E206AD89025
:1002D0001730226E1630216ED890223221321F50F4
:1002E0002102F350236EF450246E1F502202F3506B
:1002F000242620502102F3502426190E0C6E0D6A7C
:100300000E6A0F6A2350046E2450056E066A076A4F
:1003100002EC00F010501D6E11501E6ED8901D346E
:100320001F6E1E34206ED8901F3620361F50256E4B
:100330002050266E22EF01F014EC01F0020E366E12
:10034000376A4BEC00F01DEF01F014EC01F0050EE4
:10035000366E376A4BEC00F01DEF01F01DEC01F03A
:10036000050E366E376A4BEF00F014EC01F00A0E02
:10037000366E376A4BEC00F01DEF01F01B6E1BAEC2
:10038000C6EF01F09CEC01F0C8EF01F0A5EC01F024
:10039000AEEC01F01BACD1EF01F09CEC01F0D3EF1F
:1003A00001F0A5EC01F0AEEC01F01BAADCEF01F0CE
:1003B0009CEC01F0DEEF01F0A5EC01F0AEEC01F0F9
:1003C0001BA8E7EF01F09CEC01F0E9EF01F0A5ECD0
:1003D00001F0AEEC01F01BA6F2EF01F09CEC01F095
:1003E000F4EF01F0A5EC01F0AEEC01F01BA4FDEF81
:1003F00001F09CEC01F0FFEF01F0A5EC01F0AEEC98
:1004000001F01BA208EF02F09CEC01F00AEF02F0F1
:10041000A5EC01F0AEEC01F01BA013EF02F09CEC98
:1004200001F015EF02F0A5EC01F0AEEC01F0B5EF34
:1004300001F0E00E276E930E286E040E296E2A6AD4
:1004400096EC00F0320E4AEC01F0939E9594949451
:100450001DEC01F08B948A8E8C84050E306E316A0F
:100460006CEC00F08A9E8C940F0E306E316A6CEC4E
:1004700000F01A6A1A50BEEC01F01A2A050E306E0E
:0A048000316A6CEC00F03AEF02F074
:020000040030CA
:0E0000000002181E000381000FC00FE00F4029
:00000001FF
