:020000040000FA
:10000000073099000E30831681005D105D08831261
:100010008500831605105D115D0883128500831627
:10002000051135282608A8002708A900AA01AB0158
:100030002C2800000000A130A0007B30A1000A1293
:100040008A11A10B1F280A128A11A00B1D2800007B
:100050000000AA0A0319AB0A2A082802A0002B08EC
:1000600029022004031D192808000A30A600A70150
:1000700012205D155D08831285000430A600A701DB
:1000800012205D115D0883128500A301A4016300A5
:10009000A30A0319A40A193023022404031D4728C4
:1000A0005D155D088500A5010530A600A701122099
:1000B0006400A50A0A302502031D54285D115D085D
:0800C00083128500640045284D
:02400E009A3FD7
:00000001FF
