:020000040000FA
:1000000074EF01F041542B43574D4F44453D330DA0
:100010000A0041542B4357444843503D322C310D84
:100020000A0041542B4349504D55583D310D0A00AB
:1000300041542B43495053544152543D342C544362
:1000400050003139322E3136382E342E32002C39D0
:100050003039300D0A0041542B43495053454E442A
:100060003D342C31310D0A005553455220757365CE
:10007000720D0A005041535320706173730D0A00D2
:1000800041542B4349505345525645523D312C3132
:100090003032370D0A0041542B43495053454E44EA
:1000A0003D342C32320D0A00504F52542031393237
:1000B0002C3136382C342C312C342C330D0A0D0ACB
:1000C00041542B43495053454E443D342C31390D56
:1000D0000A0053544F5220000D0A0D0A41542B437D
:1000E000495053454E443D302C000D0A41542B439A
:1000F0004950434C4F53453D300D0A0041542B436A
:100100004950434C4F53453D340D0A0041542B4355
:100110004D47463D310041542B434D47533D4C69BB
:1001200073746F21353433383136343535333930E3
:10013000536F79206C6120414D453231364E575313
:1001400009500D02F350116EF450126E136A146AC6
:1001500009500E02F3501226F4501322000E006EC6
:10016000142209500F02F3501326F45014220950A0
:100170001002F35014260A500D02F3501226F450C8
:100180001322000E006E14220A500E02F3501326A2
:10019000F45014220A500F02F35014260B500D0293
:1001A000F3501326F45014220B500E02F350142671
:1001B0000C500D02F35014261200000E0CAEEDEFA1
:1001C00000F0091E0A1E0B1E0C1E092AD8B40A2AAA
:1001D000D8B40B2AD8B40C2A010E1A6E000E14AE35
:1001E000FEEF00F0111E121E131E141E112AD8B4A9
:1001F000122AD8B4132AD8B4142A010E1A1A02EFFC
:1002000001F01A6A200E196E0D6A0E6A0F6A106AE2
:10021000D8901536163617361836D89009360A365D
:100220000B360C360D360E360F3610361050145C69
:10023000D8A427EF01F00F50135CD8A427EF01F0EA
:100240000E50125CD8A427EF01F00D50115CD8B409
:100250002DEF01F0D8B03BEF01F0D8800D501154D4
:100260000D6E0E5012540E6E0F5013540F6E105030
:100270001454106E1580192E08EF01F01A50D8B4DE
:100280001200151E161E171E181E152AD8B4162A7F
:10029000D8B4172AD8B4182A0D1E0E1E0F1E101E11
:1002A0000D2AD8B40E2AD8B40F2AD8B4102A1200B6
:1002B0001DBE6EEF01F01DBC64EF01F01C50EA6E34
:1002C0001B50E96EEF5012001B50F66E1C50F76E7B
:1002D0001D503F0BF86E0800F55012001200FB6E27
:1002E0001C50FA6E1B50F96ED190FC0ED3169B9CDD
:1002F000C26A0F0EC16EC06A070EB46EEBEF02F059
:10030000276E2750D8B412002704D8A491EF01F02B
:1003100000010A0E096E092E8BEF01F000000000AB
:10032000120027060001070E096E092E95EF01F055
:1003300000002750286E296AA5EF01F000010E0E7B
:10034000096E092EA1EF01F0292A2950285CD8A4B2
:100350009EEF01F012001F51216F2051226F236B7D
:10036000246BC3EF01F00001090E096EB70E0A6E8F
:100370000A2EB8EF01F0092EB6EF01F000000701D8
:10038000232BD8B4242B2351215D096E2451225DE7
:100390000910D8A4B3EF01F0120019511B6F1A51C4
:1003A0001C6F1D6B1E6BE9EF01F00001110E096E51
:1003B000570E0A6E6F0E0B6E0B2EDCEF01F00A2E3D
:1003C000DAEF01F0092ED8EF01F007011D2BD8B4A8
:1003D0001E2B1D511B5D096E1E511C5D0910D8A4FA
:1003E000D5EF01F012000F51146F1051156F145119
:1003F000176F1551186F166B16EF02F01151162575
:100400001B6E000E006E125100201C6E1351002056
:100410001D6E58EC01F0096E07010C511B6E0D5159
:100420001C6E0E516FEC01F00701162B1651175D73
:10043000096E18510910D8A4FEEF01F01200D890EF
:100440002D362E362F363036D8902D34086F2E3478
:10045000096F2F340A6F30340B6FD8900837093783
:100460000A370B3708512D2609512E220A512F2207
:100470000B5130221200010E2D6E2E6A2F6A306A47
:100480000701006B016B30500601FF5DD8A455EFEA
:1004900002F02F50FE5DD8A455EF02F02E50FD5D06
:1004A000D8A455EF02F02D50FC5D07010391D8A4AC
:1004B000D8B00381000E015DD8A461EF02F00A0EEE
:1004C000005D0393D8B467EF02F0D8A003830385DF
:1004D00003B103A3039503A576EF02F01FEC02F02E
:1004E0000701002BD8B4012B43EF02F0005101119A
:1004F000D8A47EEF02F0010E006F016B0007002907
:10050000D8B40107010E2D6E2E6A2F6A306A005191
:10051000046F0151056F066B076B95EF02F01FEC3E
:1005200002F00701062BD8B4072B0651045D096EB3
:100530000751055D0910D8A48FEF02F0300E026F4D
:100540000601FF51305CD8A4B2EF02F0FE512F5CDF
:10055000D8A4B2EF02F0FD512E5CD8A4B2EF02F0A5
:10056000FC512D5CD8B4B8EF02F0D8B0C9EF02F05E
:10057000D880FC512D54FC6FFD512E54FD6FFE515F
:100580002F54FE6FFF513054FF6F0701022BA0EF75
:1005900002F007010251096E0601F9511B6EFA5172
:1005A0001C6EFB516FEC01F0070100510111D8A442
:1005B0007EEF02F01200F251F96FF351FA6FF4512D
:1005C000FB6FF551FC6FF651FD6FF751FE6FF8515F
:1005D000FF6F3BEF02F096948D94939E8A9E9280DB
:1005E00092829284928A96829590939C8C988A9C0F
:1005F00095909592959E959C8C908C928C9C8C9EBF
:1006000094908B9021EF03F0B886AC842A0EAF6EE5
:10061000B06A1200AC6AAB6A04EC03F09D9A9D9834
:10062000948E948CAC8AAB8EAB8812002C6E9EA8F4
:1006300017EF03F02C50AD6E120009502B6E16EF21
:1006400003F00AEC03F096908D90D7EF03F08C94B2
:100650008C96958495863DEC03F00601EF6BF08156
:10066000B3EC03F00601EF2B090EEF5DD8A42FEFDA
:1006700003F03DEC03F04EEF03F0ABEC03F0958696
:10068000ABEC03F09584ABEC03F083A445EF03F0EF
:100690009596ABEC03F09594ABEF03F0ABEC03F065
:1006A0009596ABEC03F09594ABEC03F09584ABEC32
:1006B00003F083A459EF03F09586ABEF03F0060136
:1006C000EC6FED6BF091ECBFF081B3EC03F0D890E0
:1006D0000601EC37ED2B080EED5DD8A462EF03F0B8
:1006E000ABEC03F09586ABEC03F09584ABEC03F038
:1006F00083A478EF03F083A682EF03F00601EE9166
:1007000084EF03F00601EE81ABEC03F09594ABECC3
:1007100003F009900601EEB109801200EA6BD8904F
:10072000E937C5EC03F00601E991F1B1E981EA2B63
:10073000080EEA5DD8A48FEF03F0EBA1A5EF03F05C
:10074000F091B3EC03F0A8EF03F0F081B3EC03F009
:100750000601E95112000001070E096E092EAEEFE5
:1007600003F000001200F0B1B9EF03F09596BAEF74
:1007700003F09586ABEC03F0958483A4BDEF03F002
:10078000ABEC03F09594ABEF03F09586ABEC03F084
:10079000958483A4C9EF03F0ABEC03F00601F1915B
:1007A00083B6F181ABEC03F09594ABEF03F027EC4B
:1007B00003F0939A939893969394939295921DEF46
:1007C00004F02A6E2AB0E8EF03F08C92E9EF03F010
:1007D0008C822AB2EFEF03F08A92F0EF03F08A8264
:1007E0002AB4F6EF03F08A94F7EF03F08A842AB66E
:1007F000FDEF03F08A96FEEF03F08A868A8A0000F6
:1008000000000000000000008A9A1200256E2538C2
:100810000F0B266EE1EC03F02550E1EC03F0040E23
:1008200080EF01F0246E8A88245006EF04F0060160
:10083000E86F8A98E85106EF04F01E6A5AEF04F058
:100840000950236E12EF04F0010E17EC04F0B40E01
:1008500080EF01F08A98190E07011F6F206BABEC37
:1008600001F0030EE1EC03F0050E07011F6F206B92
:10087000ABEC01F0030EE1EC03F00A0E80EC01F0AA
:10088000030EE1EC03F0040E80EC01F0020EE1EC4B
:1008900003F0040E80EC01F0280E17EC04F01C0E9F
:1008A00017EC04F00C0E17EC04F0060E17EC04F035
:1008B00024EF04F02AEC04F099EF04F00601E76F4E
:1008C000C96EC6BEFF0CC7A063EF04F0C95012008A
:1008D0000601E66F5EEF04F0FF0E5EEC04F0060129
:1008E000E56F1200E36FC66AC79EE351D8A47DEF9F
:1008F00004F0C698C78C90EF04F0E305D8A485EF08
:1009000004F0C698C79C90EF04F0020EE35DD8A4F3
:100910008EEF04F0C688C78C90EF04F0C688C79CA1
:100920000F0EE415096EF00EC6140910C66EC68AC5
:1009300012009488949A94960601E46B030E72EC6C
:1009400004F08C8A959A316A326A336A346A0301F8
:1009500082913BEF08F0CD6FCD51D8A4B4EF04F0F5
:10096000950ED36FBFEF04F0080ECD5DD8A4BDEF98
:1009700004F0870ED36FBFEF04F0FF0ED36F400E6D
:10098000CD27FF0E68EC04F00601CD5168EC04F0B1
:100990000601D15168EC04F00601D05168EC04F076
:1009A0000601CF5168EC04F00601CE5168EC04F06A
:1009B0000601D35168EC04F00601D46B6CEC04F032
:1009C0000601D26FD229D8A4ECEF04F0D42B640E28
:1009D000D45DD8A4DEEF04F0D2511200010E06015E
:1009E000CC6FCC51D8B400EF05F0CE6BCF6BD06B91
:1009F000D16B010EABEC04F00601CC6FF1EF04F00B
:100A00001200C688C79C0601C76B8B9A8B988B9681
:100A10000001130E096E560E0A6E0A2E0DEF05F038
:100A2000092E0BEF05F08C8A0601C86BFF0E68ECEF
:100A300004F00601C82B0B0EC85DD8A416EF05F014
:100A4000C96BC751D8A44EEF05F00001130E096E13
:100A5000560E0A6E0A2E2AEF05F0092E28EF05F031
:100A60008C9A00019F0E096E010E0A6E0A2E36EF57
:100A700005F0092E34EF05F00601CE6BCF6BD06B7D
:100A8000D16B000EABEC04F00601C76F8C8AC92B4A
:100A9000640EC95DD8A421EF05F012008C9AAA0E4D
:100AA000CE6F010ECF6FD06BD16B080EABEC04F0A4
:100AB0000601C76FC7A565EF05F0030182818C9A17
:100AC000EEEC04F08C8A91EF07F06CEC04F0060178
:100AD000C76F6CEC04F00601C76F6CEC04F0060104
:100AE000C76F6CEC04F00601C76F8C8AAA0EC75D55
:100AF000D8A4C8EF05F08C9ACE6BCF6BD06BD16BBE
:100B0000370EABEC04F00601C76FCE6BCF6BD06B2A
:100B1000400ED16F290EABEC04F00601C76FC75130
:100B2000D8A47CEF05F0CE6BCF6BD06BD16B3A0EB7
:100B3000ABEC04F00601C76F6CEC04F00601CA6F61
:100B4000400ECA15CB6FCB51D8B4ABEF05F0030103
:100B50008291ADEF05F0030182816CEC04F0060197
:100B6000C76F6CEC04F00601C76F6CEC04F0060173
:100B7000C76FCE6B020ECF6FD06BD16B100EABEC8C
:100B800004F00601C76FEEEC04F08C8A91EF07F0D9
:100B90008C8A91EF07F08C9A0601CE6BCF6BD06BED
:100BA000D16B0C0EABEC04F00601CE6BCF6BD06BAF
:100BB000D16B0C0EABEC04F00601CE6BCF6BD06B9F
:100BC000D16B0C0EABEC04F00601CE6BCF6BD06B8F
:100BD000D16B0C0EABEC04F08C8A1200C351356E55
:100BE000C451366EC551376EC651386EC688C79C23
:100BF0008C9A030182A109EF06F00601C551C66F68
:100C0000C451C56FC351C46FC36BD890C437C537C7
:100C1000C6370601C351CE6FC451CF6FC551D06FD7
:100C2000C651D16F120EABEC04F0316A326A336AEE
:100C3000346A1200CBEC05F08C8A1200C688C79C7F
:100C40008C9A030182A131EF06F00601C151C26FF7
:100C5000C051C16FBF51C06FBF6BD890C037C13793
:100C6000C2370601BF51CE6FC051CF6FC151D06F97
:100C7000C251D16F190EABEC04F0316A326A336A9B
:100C8000346A1200BD6F31503210D8A44BEF06F019
:100C9000FC0E68EC04F00601BD5168EC04F0312A4A
:100CA000D8B4322A3150096E020E325C0910D8A431
:100CB00081EF06F0316A326A332AD8B4342AFF0E43
:100CC00068EC04F0FF0E68EC04F06CEC04F0060134
:100CD000BE6FBE51D8A473EF06F06CEC04F00601B1
:100CE000BE6F69EF06F06CEC04F00601BE6FBE2922
:100CF000D8B481EF06F06CEC04F00601BE6F77EF1C
:100D000006F012000601B46F31503210B581D8A43C
:100D1000B591B5B1D2EF06F0D880000E3154B76F5F
:100D2000020E3254B86FB751B96FB851BA6FBB6B7E
:100D3000BC6BA2EF06F0B45142EC06F00601BB2BEF
:100D4000D8B4BC2BBB51B95D096EBC51BA5D09105A
:100D5000D8A49BEF06F0316A326A332AD8B4342A19
:100D6000FF0E68EC04F0FF0E68EC04F06CEC04F08D
:100D70000601B66FB651D8A4C4EF06F06CEC04F0CF
:100D80000601B66FBAEF06F06CEC04F00601B66F20
:100D9000B629D8B4D2EF06F06CEC04F00601B66FB9
:100DA000C8EF06F01200000E82EC06F0FD0E68ECB3
:100DB00004F00601CE6BCF6BD06BD16B0C0EABEC9D
:100DC00004F000010C0E096E7F0E0A6E350E0B6EDC
:100DD0000B2EE8EF06F00A2EE6EF06F0092EE4EF00
:100DE00006F000008C8A12000601B16BB26B6CEC4D
:100DF00004F00601B36FFE0EB35DD8A4F7EF06F062
:100E0000B16BB26B6CEC04F01A6E01EE00F00601EF
:100E1000B151E9261A50EF6E6CEC04F01A6E02EE36
:100E200000F00601B151E9261A50EF6EB12BD8B48B
:100E3000B22BB151096EB2050910D8A402EF07F028
:100E4000332AD8B4342A6CEC04F06CEC04F0352A64
:100E5000D8B4362AD8B4372AD8B4382A1200AD51BB
:100E6000C36FAE51C46FAF51C56FB051C66FEEECDA
:100E700005F0F4EC06F01AEF06F0FC0E68EC04F056
:100E80000601AB6BAC6B01EE00F0AB51E926EF5005
:100E900068EC04F002EE00F00601AB51E926EF50D9
:100EA00068EC04F00601AB2BD8B4AC2BAB51096E47
:100EB000AC050910D8A443EF07F0332AD8B4342A7C
:100EC000FF0E68EC04F0FF0E68EC04F06CEC04F02C
:100ED0000601AA6FAA51D8A474EF07F06CEC04F0D5
:100EE0000601AA6F6AEF07F06CEC04F00601AA6F26
:100EF000AA29D8B482EF07F06CEC04F00601AA6FBF
:100F000078EF07F01200A651BF6FA751C06FA8512C
:100F1000C16FA951C26F1EEC06F03DEC07F0D3EF94
:100F200006F08C9A0601D56BD66BD76BD86BCE6B5F
:100F3000CF6BD06BD16B090EABEC04F06CEC04F012
:100F40000601DB6FFE0EDB5DD8A49EEF07F0030108
:100F500082A1FEEF07F00601DF6B6CEC04F00601E6
:100F6000DF2B060EDF5DD8A4ADEF07F06CEC04F0CC
:100F70000601D76F6CEC04F00601D66F6CEC04F040
:100F80000601D56F070ED717060E096ED890D83315
:100F9000D733D633D533092EC6EF07F06CEC04F007
:100FA0000601DA6F6CEC04F00601D96FD890DA31E3
:100FB000DC6FD931DB6F060E096ED890DC33DB3382
:100FC000092EDDEF07F0070EDB15D96FDA6BE06B4A
:100FD0006CEC04F00601E02B050EE05DD8A4E8EF10
:100FE00007F06CEC04F06CEC04F08C8A020E060145
:100FF000D925DB6F000EDA21DC6F12000601E16BF0
:101000006CEC04F00601E12B070EE15DD8A400EFC3
:1010100008F06CEC04F00601DB6F3F0EDB15D76FB8
:101020006CEC04F00601D66F6CEC04F00601D56F91
:10103000E26B6CEC04F00601E22B060EE25DD8A434
:1010400019EF08F06CEC04F06CEC04F08C8A010EE3
:101050000601D525DB6F000ED8B0010ED625DC6F5A
:10106000000ED8B0010ED725DD6F000ED8B0010EEE
:10107000D825DE6F120001EC05F069EF08F09E51F3
:10108000A26F9F51A36FD890A235A46FA335A56F0F
:1010900000EE39F0A451E926EF50A06FE92AEF5095
:1010A000A16FA051096EA1510A6E120096519A6F5C
:1010B00097519B6FD8909A359C6F9B359D6F00EE32
:1010C00039F09C51E9269851EF6EE92A9951EF6E5B
:1010D00012000001866B8BEF0CF00601266F296B66
:1010E0002A6B2B6B2C6B26052D6F2D39F00B356F72
:1010F000366BAD6BAE6BAF6BB06B2FEC07F0310E98
:101100000601396F3A6B39B193EF08F0D8903A3154
:101110003C6F39313B6F01EE00F03B51E926EF5057
:101120002F6F9EEF08F0D8903A313C6F39313B6F0A
:1011300002EE00F03B51E926EF502F6F2F512D6F3B
:101140002E6B2D51306F2F6B300E3D6F3E6B3DB1CE
:10115000B7EF08F0D8903E31406F3D313F6F01EE60
:1011600000F03F51E926EF50336FC2EF08F0D890FE
:101170003E31406F3D313F6F02EE00F03F51E926B6
:10118000EF50336F2F5133252D6F000E006E30510D
:1011900000202E6F2D51AD6F2E51AE6FAF6BB06B27
:1011A0002FEC07F00601456B466B45B1E5EF08F003
:1011B000D8904631486F4531476F01EE00F04751F6
:1011C000E926EF502F6FF0EF08F0D8904631486FC6
:1011D0004531476F02EE00F04751E926EF502F6F7F
:1011E000520E2F5D3791D8B43781010E496F4A6B8B
:1011F00049B108EF09F0D8904A314C6F49314B6F33
:1012000001EE00F04B51E926EF502F6F13EF09F07C
:10121000D8904A314C6F49314B6F02EE00F04B5180
:10122000E926EF502F6F520E2F5D3793D8B43783D6
:10123000378537B137A33795020E4D6F4E6B4DB1E1
:101240002FEF09F0D8904E31506F4D314F6F01EEB6
:1012500000F04F51E926EF502F6F3AEF09F0D89088
:101260004E31506F4D314F6F02EE00F04F51E92675
:10127000EF502F6F610E2F5D3797D8B437873789BE
:1012800037B537A73799030E516F526B51B156EFEF
:1012900009F0D8905231546F5131536F01EE00F084
:1012A0005351E926EF502F6F61EF09F0D89052317A
:1012B000546F5131536F02EE00F05351E926EF5055
:1012C0002F6F410E2F5D379BD8B4378B378D37B9D1
:1012D00037AB379D37AD75EF09F0AD6BAE6BAF6BCC
:1012E000B06B2FEC07F039EF0AF0AD6BAE6BAF6B64
:1012F000B06B2FEC07F0C20E06013525566F010EBC
:101300003621576F56B192EF09F0D8905731616F7F
:101310005631606F01EE00F06051E926EF502F6FFB
:101320009DEF09F0D8905731616F5631606F02EE32
:1013300000F06051E926EF502F6F2F51556F0B0EC3
:10134000555D379FD8B4378F0C0E555D3891D8B4A2
:101350003881389337AF38B13883C60E3525586F8A
:10136000010E3621596F58B1C3EF09F0D8905931A9
:10137000636F5831626F01EE00F06251E926EF5061
:101380002F6FCEEF09F0D8905931636F5831626FEB
:1013900002EE00F06251E926EF502F6F2F51296FB6
:1013A000C70E35255A6F010E36215B6F5AB1E6EF35
:1013B00009F0D8905B31656F5A31646F01EE00F02F
:1013C0006451E926EF502F6FF1EF09F0D8905B31AF
:1013D000656F5A31646F02EE00F06451E926EF50F8
:1013E0002F6F2F512A6FC80E35255C6F010E3621E5
:1013F0005D6F5CB109EF0AF0D8905D31676F5C31C9
:10140000666F01EE00F06651E926EF502F6F14EF82
:101410000AF0D8905D31676F5C31666F02EE00F0C4
:101420006651E926EF502F6F2F512B6FC90E3525CE
:101430005E6F010E36215F6F5EB12CEF0AF0D8901F
:101440005F31696F5E31686F01EE00F06851E92627
:10145000EF502F6F37EF0AF0D8905F31696F5E3130
:10146000686F02EE00F06851E926EF502F6F2F51A0
:101470002C6F06012951AD6F2A51AE6F2B51AF6F02
:101480002C51B06F2FEC07F00D0E06016A6F6B6BDD
:101490006AB158EF0AF0D8906B316D6F6A316C6F9A
:1014A00001EE00F06C51E926EF502F6F63EF0AF068
:1014B000D8906B316D6F6A316C6F02EE00F06C5139
:1014C000E926EF502F6F2F517C6E0E0E6E6F6F6BF3
:1014D0006EB178EF0AF0D8906F31716F6E31706F26
:1014E00001EE00F07051E926EF502F6F83EF0AF004
:1014F000D8906F31716F6E31706F02EE00F07051E5
:10150000E926EF502F6F2F51276F0F0E726F736BFD
:1015100072B198EF0AF0D8907331756F7231746FB1
:1015200001EE00F07451E926EF502F6FA3EF0AF09F
:10153000D8907331756F7231746F02EE00F0745190
:10154000E926EF502F6F2F51286F240E766F776B9F
:1015500076B1B8EF0AF0D8907731796F7631786F3D
:1015600001EE00F07851E926EF502F6FC3EF0AF03B
:10157000D8907731796F7631786F02EE00F078513C
:10158000E926EF502F6F2F51766E250E7A6F7B6B09
:101590007AB1D8EF0AF0D8907B317D6F7A317C6FC9
:1015A00001EE00F07C51E926EF502F6FE3EF0AF0D7
:1015B000D8907B317D6F7A317C6F02EE00F07C51E8
:1015C000E926EF502F6F2F51776E260E7E6F7F6BBF
:1015D0007EB1F8EF0AF0D8907F31816F7E31806F55
:1015E00001EE00F08051E926EF502F6F03EF0BF072
:1015F000D8907F31816F7E31806F02EE00F0805194
:10160000E926EF502F6F2F51786E270E826F836B74
:1016100082B118EF0BF0D8908331856F8231846FDF
:1016200001EE00F08451E926EF502F6F23EF0BF00D
:10163000D8908331856F8231846F02EE00F084513F
:10164000E926EF502F6F2F51796E2C0E866F876B26
:1016500086B138EF0BF0D8908731896F8631886F6B
:1016600001EE00F08851E926EF502F6F43EF0BF0A9
:10167000D8908731896F8631886F02EE00F08851EB
:10168000E926EF502F6F2F5100017D6F2D0E0601BF
:101690008A6F8B6B8AB15AEF0BF0D8908B318D6FBC
:1016A0008A318C6F01EE00F08C51E926EF502F6FDC
:1016B00065EF0BF0D8908B318D6F8A318C6F02EE15
:1016C00000F08C51E926EF502F6F2F5100017E6FF3
:1016D0002E0E06018E6F8F6B8EB17CEF0BF0D890C3
:1016E0008F31916F8E31906F01EE00F09051E926AD
:1016F000EF502F6F87EF0BF0D8908F31916F8E31B5
:10170000906F02EE00F09051E926EF502F6F2F51AD
:1017100000017F6F2F0E0601926F936B92B19EEFC7
:101720000BF0D8909331956F9231946F01EE00F0E9
:101730009451E926EF502F6FA9EF0BF0D890933119
:10174000956F9231946F02EE00F09451E926EF50BC
:101750002F6F2F510001806F0601295127257A6EC6
:101760002A5128217B6E295127252D6F2A512821A6
:101770002E6F000E006E2B5100202F6F2C51002079
:10178000306FD8907634316F7734326F7834336F6E
:101790007934346F2D5131251F6E2E513221206E38
:1017A0002F513321216E30513421226ED8907C3458
:1017B0002D6FD8801F502D550001816F000E006ED7
:1017C00020500054826F21500054836F22500054E7
:1017D000846F120006010C6F116F126BD8901135D7
:1017E000146F1235156FD890143715371451166FC2
:1017F0001551176F16B10AEF0CF0D89017311F6F03
:1018000016311E6F01EE00F01E51E926EF50136FE6
:1018100015EF0CF0D89017311F6F16311E6F02EEC6
:1018200000F01E51E926EF50136F13510D6F010E9A
:101830001425186F000ED8B0010E1525196F18B1B8
:101840002FEF0CF0D8901931216F1831206F01EE75
:1018500000F02051E926EF50136F3AEF0CF0D890CA
:101860001931216F1831206F02EE00F02051E92666
:10187000EF50136F13510E6F020E14251A6F000EE6
:1018800015211B6F1AB152EF0CF0D8901B31236F4A
:101890001A31226F01EE00F02251E926EF50136F4A
:1018A0005DEF0CF0D8901B31236F1A31226F02EEDE
:1018B00000F02251E926EF50136F13510F6F030E02
:1018C00014251C6F000E15211D6F1CB175EF0CF057
:1018D000D8901D31256F1C31246F01EE00F024518A
:1018E000E926EF50136F80EF0CF0D8901D31256F73
:1018F0001C31246F02EE00F02451E926EF50136FE3
:101900001351106F0D51096E0E510A6E0F510B6E6F
:1019100010510C6E1200140EEF6FF06BF16BF26B46
:101920000CEF20F07F0E04150501FF6F070E096E06
:10193000D89006010733063305330433092E98EF98
:101940000CF004517A24086F05517B20096F000EBA
:10195000006E065100200A6F075100200B6F000136
:10196000EF510601085D096E0001F0510601095DA5
:1019700009120001F15106010A5D09120001F2513C
:1019800006010B5D0910D8B407EF0DF00001EF510F
:101990000601A66F0001F0510601A76F0001F15189
:1019A0000601A86F0001F2510601A96F83EC07F050
:1019B000060104517A24086F05517B20096F000E3F
:1019C000006E065100200A6F075100200B6F08516E
:1019D000AD6F0951AE6F0A51AF6F0B51B06F2FEC65
:1019E00007F0060104517A240001EF6F060105514A
:1019F0007B200001F06F000E006E060106510020F2
:101A00000001F16F0601075100200001F26F05018E
:101A1000FF51EAEF0BF00001F36BF46BF56BF66B23
:101A2000F76BF86BD8900501F131F56FF031F46F79
:101A3000EF31F36FEE31F26F060E096ED890F53389
:101A4000F433F333F233092E1EEF0DF07A50F22502
:101A50000001EF6F7B500501F3210001F06F000ED4
:101A6000006E0501F4210001F16F00500501F52120
:101A70000001F26FEF510601AD6F0001F051060158
:101A8000AE6F0001F1510601AF6F0001F251060186
:101A9000B06F2FEC07F00501EE51FA6FEF51FB6FBD
:101AA000F051FC6FF151FD6FFEB16DEF0DF0EE5195
:101AB0000001DB6F0501EF510001DC6F0501F05102
:101AC0000001DD6F0501F1510001DE6F0301006BC4
:101AD000016B026B036B80EF0DF0EE510301146F8D
:101AE0000501EF510301156F0501F0510301166F58
:101AF0000501F1510301176F286B296B2A6B2B6BC2
:101B0000010E0601006F016B026B036B0501FA51B8
:101B10000601046F0501FB510601056F0501FC512B
:101B20000601066F0501FD510601076F92EC0CF0EE
:101B300009500501F26F0A50F36F0B50F46F0C500F
:101B4000F56F010EFA25F66F000ED8B0010EFB25D9
:101B5000F76F000ED8B0010EFC25F86F000ED8B05C
:101B6000010EFD25F96FF251F65D096EF351F75D37
:101B70000912F451F85D0912F551F95D0910D8A464
:101B8000D4EF0DF00601002BD8B4012BD8B4022BF2
:101B9000D8B4032B0501FA2BD8B4FB2BD8B4FC2BFB
:101BA000D8B4FD2B86EF0DF0FA510601046F050144
:101BB000FB510601056F0501FC510601066F050189
:101BC000FD510601076F92EC0CF009500501F26F10
:101BD0000A50F36F0B50F46F0C50F56FF229096E39
:101BE000F3290912F42909120F0EF55D0910D8A482
:101BF00043EF0EF0FEB125EF0EF0D8900001F53561
:101C00000501F66F0001F6350501F76F0001F735A4
:101C10000501F86F0001F8350501F96FD890F63726
:101C2000F737F837F93703EE00F0F651E9260601E9
:101C30000051EF6EE92A0151EF6EE92A0251EF6E71
:101C4000E92A0351EF6E1AEF0FF0D8900001F33537
:101C50000501F26F0001F4350501F36FD890F237FA
:101C6000F33703EE28F0F251E92606010051EF6E3A
:101C7000E92A0151EF6EE92A0251EF6EE92A035178
:101C8000EF6E1AEF0FF0FEB16EEF0EF0D89000017C
:101C9000F5350501F26F0001F6350501F36F00011E
:101CA000F7350501F46F0001F8350501F56FD8909F
:101CB000F237F337F437F53703EE00F0F251E92647
:101CC00006010051EF6EE92A0151EF6EE92A025137
:101CD000EF6EE92A0351EF6E8AEF0EF0D890000103
:101CE000F3350501F26F0001F4350501F36FD8906B
:101CF000F237F33703EE28F0F251E92606010051DE
:101D0000EF6EE92A0151EF6EE92A0251EF6EE92ADE
:101D10000351EF6E0501FA510601046F0501FB51F5
:101D20000601056F0501FC510601066F0501FD5115
:101D30000601076F92EC0CF009500501FA6F0A508A
:101D4000FB6F0B50FC6F0C50FD6FFEB1EEEF0EF011
:101D50000001F52BD8B4F62BD8B4F72BD8B4F82B58
:101D6000D890F5350501F26F0001F6350501F36FE6
:101D70000001F7350501F46F0001F8350501F56F35
:101D8000D890F237F337F437F53700EEDBF0F25145
:101D9000E926FA51EF6EE92AFB51EF6EE92AFC5170
:101DA000EF6EE92AFD51EF6E000E0001F85DD8A438
:101DB000E6EF0EF0000EF75DD8A4E6EF0EF0000E91
:101DC000F65DD8A4E6EF0EF0050EF55DD8B480EF11
:101DD0000DF0D8A080EF0DF01AEF0FF00001F32BFB
:101DE000D8B4F42BD890F3350501F26F0001F43527
:101DF0000501F36FD890F237F33703EE14F0F25188
:101E0000E926FA51EF6EE92AFB51EF6EE92AFC51FF
:101E1000EF6EE92AFD51EF6E000E0001F45DD8A4CB
:101E200014EF0FF0050EF35DD8B480EF0DF0D8A0DD
:101E300080EF0DF0000E0501FEA1010C1200030160
:101E400082950001876B886BD89087350501DD6F1F
:101E5000000188350501DE6FD890DD37DE377C5014
:101E6000096E0A6A0B6A0C6A03EE00F0DD51E9267E
:101E7000EF500D6EE92AEF500E6EE92AEF500F6E0B
:101E8000E92AEF50106EA0EC00F011500501DF6F51
:101E90001250E06F1350E16F1450E26FDC5DD8A474
:101EA0005EEF0FF0E151DB5DD8A45EEF0FF0E05183
:101EB000DA5DD8A45EEF0FF0DF51D95DED91D8B4B3
:101EC00064EF0FF0D8A0ED81EDB1A5EF0FF0D89041
:101ED000000187350501E36F000188350501E46FD6
:101EE000D890E337E4377C50096E0A6A0B6A0C6AB3
:101EF00003EE00F0E351E926EF500D6EE92AEF50B2
:101F00000E6EE92AEF500F6EE92AEF50106EA0EC2A
:101F100000F011500501E56F1250E66F1350E76FA6
:101F20001450E86FD880D951E555D96FDA51E6558C
:101F3000DA6FDB51E755DB6FDC51E855DC6F0001F0
:101F4000872BD8B4882B24EF0FF0D8900001873569
:101F50000501DD6F000188350501DE6FD890DD37A2
:101F6000DE377C50096E0A6A0B6A0C6A00EEDBF001
:101F7000DD51E926EF500D6EE92AEF500E6EE92A89
:101F8000EF500F6EE92AEF50106EA0EC00F01150E8
:101F90000501DF6F1250E06F1350E16F1450E26FD4
:101FA000000181510501DF25E36F00018251050128
:101FB000E021E46F000183510501E121E56F00019B
:101FC00084510501E221E66FE351D925E96FE4511F
:101FD000DA21EA6FE551DB21EB6FE651DC21EC6F92
:101FE000E9510601AD6F0501EA510601AE6F050129
:101FF000EB510601AF6F0501EC510601B06F2FEFF9
:1020000007F00501B96BBA6BBB6BBC6BC991746A05
:10201000756A00017D510501EE6F00017E510501D9
:10202000EF6F00017F510501F06F00018051050144
:10203000F16FFE910BEC0DF00501BD6BBE6BB9515C
:10204000D96FBA51DA6FBB51DB6FBC51DC6F1FEC3B
:102050000FF00501CB6B0B0EBD25CC6F000EBE2122
:10206000CD6FBDB141EF10F0D890BE31CF6FBD3113
:10207000CE6F01EE00F0CE51E926EF50C16F4CEF6C
:1020800010F0D890BE31CF6FBD31CE6F02EE00F0B0
:10209000CE51E926EF50C16FE50EC15DD8B47AEF9D
:1020A00011F0BDB161EF10F0D890BE31D16FBD31EC
:1020B000D06F01EE00F0D051E926EF50C16F6CEF08
:1020C00010F0D890BE31D16FBD31D06F02EE00F06C
:1020D000D051E926EF50C16FC151D8B469EF11F06A
:1020E000CCB180EF10F0D890CD31D36FCC31D26F1E
:1020F00001EE00F0D251E926EF50C16F8BEF10F0E6
:10210000D890CD31D36FCC31D26F02EE00F0D251E6
:10211000E926EF50C16FC151000186150501BF6F5F
:10212000C987D8B4C997C9B77AEF11F0CCB1A6EF77
:1021300010F0D890CD31D56FCC31D46F01EE00F0D6
:10214000D451E926EF50C26FB1EF10F0D890CD31E5
:10215000D56FCC31D46F02EE00F0D451E926EF50A8
:10216000C26F0F0EC25DC99BD8B4C98BC99DC9B1DE
:10217000C98DC99FC9ABC9BDC98FC9AF27EF11F0C0
:10218000C9B106EF11F0C981D890B935BF6FBA3522
:10219000C06FBB35C16FBC35C26F030E006ED890E7
:1021A000BF37C037C137C237002ECFEF10F0D890FD
:1021B000BE31C46FBD31C36F040E096ED890C433F5
:1021C000C333092EDEEF10F0BF51C325C56FC051D8
:1021D000C421C66F000E006EC1510020C76FC251EE
:1021E0000020C86F74500601966F7550976F0501F7
:1021F000C5510601986F0501C6510601996F56EC4D
:1022000008F0742AD8B4752A7AEF11F0CCB116EF21
:1022100011F0D890CD31D86FCC31D76F01EE00F0EE
:10222000D751E926EF50C16F21EF11F0D890CD3191
:10223000D86FCC31D76F02EE00F0D751E926EF50BE
:10224000C16F0F0EC15DD8A4C9917AEF11F0D8907B
:10225000B935BF6FBA35C06FBB35C16FBC35C26F02
:10226000030E006ED890BF37C037C137C237002E7B
:1022700032EF11F0D890BE31C46FBD31C36F040E80
:10228000096ED890C433C333092E41EF11F0BF510A
:10229000C325C56FC051C421C66F000E006EC15169
:1022A0000020C76FC2510020C86F74500601966F9E
:1022B0007550976F0501C5510601986F0501C6510C
:1022C0000601996F56EC08F0742AD8B4752A7AEF93
:1022D00011F0000E755CD8A470EF11F0140E745C50
:1022E000D8B48EEF11F0D8A08EEF11F0140E746EEA
:1022F000756A1200200E0501BD27000EBE23CB2BF0
:10230000100ECB5DD8A42BEF10F0B92BD8B4BA2B9C
:10231000D8B4BB2BD8B4BC2B1CEF10F012000301B7
:1023200082850001876B886BD89087350501A86F7F
:10233000000188350501A96FD890A837A9377C50CE
:10234000096E0A6A0B6A0C6A03EE00F0A851E926CE
:10235000EF500D6EE92AEF500E6EE92AEF500F6E26
:10236000E92AEF50106EA0EC00F011500501AA6FA1
:102370001250AB6F1350AC6F1450AD6FA75DD8A463
:10238000CEEF11F0AC51A65DD8A4CEEF11F0AB5159
:10239000A55DD8A4CEEF11F0AA51A45DB891D8B430
:1023A000D4EF11F0D8A0B881B8B115EF12F0D890E1
:1023B000000187350501AE6F000188350501AF6F5B
:1023C000D890AE37AF377C50096E0A6A0B6A0C6A38
:1023D00003EE00F0AE51E926EF500D6EE92AEF5002
:1023E0000E6EE92AEF500F6EE92AEF50106EA0EC46
:1023F00000F011500501B06F1250B16F1350B26F61
:102400001450B36FD880A451B055A46FA551B155E5
:10241000A56FA651B255A66FA751B355A76F00017E
:10242000872BD8B4882B94EF11F0D8900001873512
:102430000501A86F000188350501A96FD890A8375C
:10244000A9377C50096E0A6A0B6A0C6A00EEDBF051
:10245000A851E926EF500D6EE92AEF500E6EE92AD9
:10246000EF500F6EE92AEF50106EA0EC00F0115003
:102470000501AA6F1250AB6F1350AC6F1450AD6FC3
:10248000000181510501AA25AE6F000182510501AD
:10249000AB21AF6F000183510501AC21B06F00018A
:1024A00084510501AD21B16FAE51A425B46FAF5178
:1024B000A521B56FB051A621B66FB151A721B76F55
:1024C000B4510601A66F0501B5510601A76F0501BC
:1024D000B6510601A86F0501B7510601A96F83EF38
:1024E00007F06F6F736B0301829304017AA1A0EF71
:1024F00012F00001895106019E6F00018A51060108
:102500009F6F3FEC08F009500401746F0A50756F1B
:10251000D8907531776F7431766F030E096ED8904D
:1025200077337633092E8FEF12F076510501D96F8C
:10253000040177510501DA6FDB6BDC6B1FEC0FF0E8
:1025400004017AA1B5EF12F00001895106019E6FD6
:1025500000018A5106019F6F3FEC08F00950040109
:10256000746F0F0E7415716F726B7AB331EF1AF0CE
:10257000D8907135746F7235756F040E006ED890F7
:1025800074377537002EBFEF12F00B0E7425816F74
:10259000000E7521826F81B1DBEF12F0D89082318D
:1025A000846F8131836F01EE00F08351E926EF5093
:1025B000786FE6EF12F0D8908231846F8131836FAB
:1025C00002EE00F08351E926EF50786F0F0E785D30
:1025D000D8A428EF16F0886B00EE8BF08851E9261E
:1025E000EF6A882B500E885DD8A4ECEF12F0010E34
:1025F0006F15746F7451D8B4D7EF15F0030182834F
:10260000D89004017135896F72358A6F040E006E9F
:10261000D89089378A37002E08EF13F0430E8B6F5E
:102620008C6B89B121EF13F0D8908A31916F893189
:10263000906F01EE00F09051E926EF50766F2CEF8D
:1026400013F0D8908A31916F8931906F02EE00F0CB
:102650009051E926EF50766FC00E7625876F8D6F0B
:102660008E6B99EF15F08B51746F010E8925926F67
:10267000000ED8B0010E8A25936F92B14DEF13F082
:10268000D8909331AD6F9231AC6F01EE00F0AC5148
:10269000E926EF50776F58EF13F0D8909331AD6F74
:1026A0009231AC6F02EE00F0AC51E926EF50776F3B
:1026B00000EE8BF07451E9267751EF6E8B29746F21
:1026C000030E8925946F000E8A21956F94B176EFE1
:1026D00013F0D8909531B06F9431AF6F01EE00F0E8
:1026E000AF51E926EF50776F81EF13F0D890953115
:1026F000B06F9431AF6F02EE00F0AF51E926EF50AA
:10270000776F00EE8BF07451E9267751EF6E020E71
:102710008B25746F050E8925966F000E8A21976FA1
:1027200096B1A0EF13F0D8909731B36F9631B26F96
:1027300001EE00F0B251E926EF50776FABEF13F0E6
:10274000D8909731B36F9631B26F02EE00F0B2516C
:10275000E926EF50776F00EE8BF07451E926775140
:10276000EF6E030E8B25746F070E8925986F000E90
:102770008A21996F98B1CAEF13F0D8909931B66F4A
:102780009831B56F01EE00F0B551E926EF50776F43
:10279000D5EF13F0D8909931B66F9831B56F02EE3E
:1027A00000F0B551E926EF50776F00EE8BF07451D1
:1027B000E9267751EF6E040E8B25746F090E89257B
:1027C0009A6F000E8A219B6F9AB1F4EF13F0D890A4
:1027D0009B31B96F9A31B86F01EE00F0B851E9261C
:1027E000EF50776FFFEF13F0D8909B31B96F9A31AC
:1027F000B86F02EE00F0B851E926EF50776F00EEA7
:102800008BF07451E9267751EF6E050E8B25746FAE
:102810000E0E89259C6F000E8A219D6F9CB11EEFC4
:1028200014F0D8909D31BC6F9C31BB6F01EE00F06D
:10283000BB51E926EF50776F29EF14F0D8909D3106
:10284000BC6F9C31BB6F02EE00F0BB51E926EF502C
:10285000776F00EE8BF07451E9267751EF6E060E1C
:102860008B25746F100E89259E6F000E8A219F6F35
:102870009EB148EF14F0D8909F31BF6F9E31BE6F6C
:1028800001EE00F0BE51E926EF50776F53EF14F0E0
:10289000D8909F31BF6F9E31BE6F02EE00F0BE51E7
:1028A000E926EF50776F00EE8BF07451E9267751EF
:1028B000EF6E070E8B25746F120E8925A06F000E28
:1028C0008A21A16FA0B172EF14F0D890A131C26F2C
:1028D000A031C16F01EE00F0C151E926EF50776FD2
:1028E0007DEF14F0D890A131C26FA031C16F02EE1C
:1028F00000F0C151E926EF50776F00EE8BF0745174
:10290000E9267751EF6E080E8B25746F140E89251A
:10291000A26F000E8A21A36FA2B19CEF14F0D89091
:10292000A331C56FA231C46F01EE00F0C451E92696
:10293000EF50776FA7EF14F0D890A331C56FA23195
:10294000C46F02EE00F0C451E926EF50776F00EE3D
:102950008BF07451E9267751EF6E090E8B25746F59
:10296000160E8925A46F000E8A21A56FA4B1C6EFAB
:1029700014F0D890A531C86FA431C76F01EE00F0F4
:10298000C751E926EF50776FD1EF14F0D890A531F9
:10299000C86FA431C76F02EE00F0C751E926EF50AF
:1029A000776F00EE8BF07451E9267751EF6E0A0EC7
:1029B0008B25746F180E8925A66F000E8A21A76FCC
:1029C000A6B1F0EF14F0D890A731CB6FA631CA6F43
:1029D00001EE00F0CA51E926EF50776FFBEF14F0DB
:1029E000D890A731CB6FA631CA6F02EE00F0CA5162
:1029F000E926EF50776F00EE8BF07451E92677519E
:102A0000EF6E0B0E8B25746F1C0E8925A86F000EC0
:102A10008A21A96FA8B11AEF15F0D890A931CE6F0D
:102A2000A831CD6F01EE00F0CD51E926EF50776F60
:102A300025EF15F0D890A931CE6FA831CD6F02EEF9
:102A400000F0CD51E926EF50776F00EE8BF0745116
:102A5000E9267751EF6E0C0E8B25746F1E0E8925BB
:102A6000AA6F000E8A21AB6FAAB144EF15F0D8907F
:102A7000AB31D16FAA31D06F01EE00F0D051E92611
:102A8000EF50776F4FEF15F0D890AB31D16FAA317F
:102A9000D06F02EE00F0D051E926EF50776F00EED4
:102AA0008BF07451E9267751EF6EF30E8B27200ED1
:102AB0008927000E8A238951096E020E8A5D09104A
:102AC000D8A497EF15F0000E8927FE0E8A238C2BD1
:102AD0000001895106019E6F00018A5106019F6F16
:102AE0003FEC08F009500401746F0A50756FD890DC
:102AF0007531776F7431766F030E096ED890773326
:102B00007633092E7EEF15F076518C25786F000E06
:102B1000006E77510020796F78510501D96F04015B
:102B200079510501DA6FDB6BDC6B1FEC0FF00401F0
:102B30008E2B8E518D5DD8A433EF13F000018B5195
:102B4000D8A4D7EF15F004018F6B00EE8BF08F51F6
:102B5000E926EF50D8A4B3EF15F08F2B500E8F5D00
:102B6000D8A4A5EF15F0D880500E8F55D36F736B96
:102B7000D2EF15F08F517325746F00EE8BF0745106
:102B8000E926EF50096E00EE8BF07351E9260950EB
:102B9000EF6E8F517325746F00EE8BF07451E92640
:102BA000EF6A732B7351D35DD8A4BAEF15F004010B
:102BB00087517127000E006E7223706B000E725DDC
:102BC000D8A4E5EF15F00F0E715DD8B4F2EF15F053
:102BD000D8A0F2EF15F0702BF00E7127FF0E7223C4
:102BE000DEEF15F07051D8B428EF16F07AA128EF77
:102BF00016F00001895106019E6F00018A510601FD
:102C00009F6F3FEC08F009500401746F0A50756F14
:102C1000D8907531776F7431766F030E096ED89046
:102C200077337633092E0FEF16F076517025786FD3
:102C3000000E006E77510020796F78510501D96F31
:102C4000040179510501DA6FDB6BDC6B1FEC0FF0CF
:102C5000050E006ED890040171377237002E2AEFEE
:102C600016F0080E6F15746F7451D8B45CEF16F03F
:102C70000B0E7125D46F000E7221D56FD4B14EEFBB
:102C800016F0D890D531D76FD431D66F01EE00F061
:102C9000D651E926EF50776F59EF16F0D890D5311D
:102CA000D76FD431D66F02EE00F0D651E926EF503F
:102CB000776F77510001856F040E04016F15746FF3
:102CC0007451D8B4CDEF16F0080E7125D96F000EEF
:102CD0007221DA6FD9B17AEF16F0D890DA31E06F5D
:102CE000D931DF6F01EE00F0DF51E926EF50776F49
:102CF00085EF16F0D890DA31E06FD931DF6F02EE50
:102D000000F0DF51E926EF50776F77516D6E090EB5
:102D10007125DB6F000E7221DC6FDBB19DEF16F0C9
:102D2000D890DC31E36FDB31E26F01EE00F0E2516D
:102D3000E926EF50766FA8EF16F0D890DC31E36FFC
:102D4000DB31E26F02EE00F0E251E926EF50766FE0
:102D500076516E6E0A0E7125DD6F000E7221DE6FE8
:102D6000DDB1C0EF16F0D890DE31E56FDD31E46FF4
:102D700001EE00F0E451E926EF50766FCBEF16F04C
:102D8000D890DE31E56FDD31E46F02EE00F0E45102
:102D9000E926EF50766F76516F6E020E6F15746FE5
:102DA0007451D8B4D3EF18F07151E66F7251E76FD8
:102DB000E6B1E8EF16F0D890E731F76FE631F66F3D
:102DC00001EE00F0F651E926EF50776FF3EF16F0C1
:102DD000D890E731F76FE631F66F02EE00F0F6516A
:102DE000E926EF50776F7751656E010E7125E86F18
:102DF000000ED8B0010E7225E96FE8B10DEF17F0A3
:102E0000D890E931FA6FE831F96F01EE00F0F9512D
:102E1000E926EF50766F18EF17F0D890E931FA6F86
:102E2000E831F96F02EE00F0F951E926EF50766FC4
:102E30007651666E020E7125EA6F000E7221EB6FFD
:102E4000EAB130EF17F0D890EB31FC6FEA31FB6F4D
:102E500001EE00F0FB51E926EF50766F3BEF17F0E3
:102E6000D890EB31FC6FEA31FB6F02EE00F0FB51C2
:102E7000E926EF50766F7651676E030E7125EC6F81
:102E8000000E7221ED6FECB153EF17F0D890ED31D9
:102E9000FE6FEC31FD6F01EE00F0FD51E926EF50C1
:102EA000766F5EEF17F0D890ED31FE6FEC31FD6F6D
:102EB00002EE00F0FD51E926EF50766F7651686E14
:102EC000040E7125EE6F000E7221EF6FEEB17AEFF6
:102ED00017F0D890EF310501016F0401EE310501C3
:102EE000006F01EE00F00051E926EF500401766F0B
:102EF00089EF17F0D890EF310501016F0401EE3131
:102F00000501006F02EE00F00051E926EF500401C8
:102F1000766F7651696E050E7125F06F000E722185
:102F2000F16FF0B1A5EF17F0D890F1310501036F03
:102F30000401F0310501026F01EE00F00251E926B3
:102F4000EF500401766FB4EF17F0D890F13105011E
:102F5000036F0401F0310501026F02EE00F002512F
:102F6000E926EF500401766F76516A6E060E7125E0
:102F7000F26F000E7221F36FF2B1D0EF17F0D8901C
:102F8000F3310501056F0401F2310501046F01EE13
:102F900000F00451E926EF500401766FDFEF17F0DF
:102FA000D890F3310501056F0401F2310501046F7A
:102FB00002EE00F00451E926EF500401766F7651DD
:102FC0006B6E070E7125F46F000E7221F56FF4B170
:102FD000FBEF17F0D890F5310501076F0401F431CC
:102FE0000501066F01EE00F00651E926EF500401DD
:102FF000766F0AEF18F0D890F5310501076F0401DC
:10300000F4310501066F02EE00F00651E926EF509B
:103010000401766F76516C6E030182B3D3EF18F022
:103020000401FF6B00EE8BF0FF51E926EF6AFF2BE6
:10303000500EFF5DD8A412EF18F0000185A756EFDF
:1030400018F00A0E0501086F096B00EE65F0040127
:10305000FF51E926EF50096E200E095CD8A439EF24
:1030600018F005010807092B0B0E095DD8A425EF00
:1030700018F0050108510A6F0401FF6B4EEF18F0BC
:1030800000EE65F00401FF51E926EF50096E00EEF5
:103090008BF0FF51E9260950EF6EFF2BFF51050120
:1030A0000A5DD8A440EF18F0D3EF18F085A97AEFA5
:1030B00018F00401FF6B00EE65F0FF51E926EF50B8
:1030C000096E200E095CD8B472EF18F000EE65F0BE
:1030D000FF51E926EF50096E00EE8BF0FF51E92613
:1030E0000950EF6EFF2B080EFF5DD8A45BEF18F0C0
:1030F000D3EF18F005010B6B0401FF6B00EE65F0D8
:10310000FF51E926EF50096E200E095CD8B497EF05
:1031100018F000EE65F0FF51E926EF50096E00EE61
:103120008BF005010B51E9260950EF6E0B2B0401C2
:10313000FF2B080EFF5DD8A47EEF18F0200E6D5C0B
:10314000D8B4B3EF18F000EE8BF005010B51E9266F
:103150002E0EEF6E0B290401746F00EE8BF074518C
:10316000E9266D50EF6E200E6E5CD8B4C3EF18F0F8
:10317000020E05010B250401746F00EE8BF07451F3
:10318000E9266E50EF6E200E6F5CD8B4D3EF18F0C6
:10319000030E05010B250401746F00EE8BF07451D2
:1031A000E9266F50EF6E100E04016F15746F7451A5
:1031B000D8B47BEF19F0150E712505010C6F000EC8
:1031C0000401722105010D6F0CB1F5EF18F0D890D4
:1031D0000D31156F0C31146F01EE00F01451E9261A
:1031E000EF500401776F01EF19F0D8900D31156F92
:1031F0000C31146F02EE00F01451E926EF50040177
:10320000776F7751736E140E712505010E6F000EE6
:103210000401722105010F6F0EB11DEF19F0D89056
:103220000F31186F0E31176F01EE00F01751E926BC
:10323000EF500401766F29EF19F0D8900F31186F15
:103240000E31176F02EE00F01751E926EF5004011E
:10325000766F7651726E1B0E71250501106F000E90
:10326000040172210501116F10B145EF19F0D890DA
:1032700011311A6F1031196F01EE00F01951E92662
:10328000EF500401766F51EF19F0D89011311A6F99
:103290001031196F02EE00F01951E926EF500401C8
:1032A000766F7651716E1A0E71250501126F000E40
:1032B000040172210501136F12B16DEF19F0D8905E
:1032C00013311C6F12311B6F01EE00F01B51E92608
:1032D000EF500401766F79EF19F0D89013311C6F1D
:1032E00012311B6F02EE00F01B51E926EF50040172
:1032F000766F7651706E200E6F15746F7451D8B45E
:1033000022EF1AF01C0E712505011D6F000E04013D
:10331000722105011E6F1DB19CEF19F0D8901E316E
:10332000266F1D31256F01EE00F02551E926EF5083
:103330000401776FA8EF19F0D8901E31266F1D3168
:10334000256F02EE00F02551E926EF500401776F5A
:103350007751616E1D0E712505011F6F000E04016E
:1033600072210501206F1FB1C4EF19F0D8902031F0
:10337000296F1F31286F01EE00F02851E926EF5028
:103380000401766FD0EF19F0D8902031296F1F31EA
:10339000286F02EE00F02851E926EF500401766F05
:1033A0007651626E1E0E71250501216F000E04011B
:1033B00072210501226F21B1ECEF19F0D890223172
:1033C0002B6F21312A6F01EE00F02A51E926EF50D0
:1033D0000401766FF8EF19F0D89022312B6F21316C
:1033E0002A6F02EE00F02A51E926EF500401766FB1
:1033F0007651636E1F0E71250501236F000E0401C7
:1034000072210501246F23B114EF1AF0D8902431F2
:103410002D6F23312C6F01EE00F02C51E926EF5077
:103420000401766F20EF1AF0D89024312D6F2331EC
:103430002C6F02EE00F02C51E926EF500401766F5C
:103440007651646E736B00EE8BF07351E926EF508A
:10345000D8B41200732B500E735DD8A423EF1AF06A
:103460001200D890713505012E6F040172350501E7
:103470002F6F040E006ED8902E372F37002E3BEFA3
:103480001AF00B0E2E25306F000E2F21316F30B148
:1034900058EF1AF0D8903131336F3031326F01EE7E
:1034A00000F03251E926EF500401766F64EF1AF014
:1034B000D8903131336F3031326F02EE00F032513B
:1034C000E926EF500401766F0F0E765D7E9DD8B42D
:1034D0007E8D05012EB17BEF1AF0D8902F31356F1C
:1034E0002E31346F01EE00F03451E926EF50040123
:1034F000766F87EF1AF0D8902F31356F2E31346FF9
:1035000002EE00F03451E926EF500401766F765157
:103510007E8FD8B47E9F7F817EBD7EAF7F91050177
:103520002EB1A1EF1AF0D8902F31376F2E31366FB0
:1035300001EE00F03651E926EF500401766FADEF51
:103540001AF0D8902F31376F2E31366F02EE00F01F
:103550003651E926EF500401766FE50E765D7F93D4
:10356000D8A47F837F857FB17FA37F957FA53BEF25
:103570001BF003018283D890040171350501386F77
:10358000040172350501396F040E006ED89038378A
:103590003937002EC6EF1AF038B1DDEF1AF0D890A7
:1035A00039313B6F38313A6F01EE00F03A51E9267C
:1035B000EF500401766FE9EF1AF0D89039313B6F84
:1035C00038313A6F02EE00F03A51E926EF5004012B
:1035D000766FC00E7625746F7127000E006E722311
:1035E000706B000E725DD8A4F8EF1AF00F0E715DCB
:1035F000D8B405EF1BF0D8A005EF1BF0702BF00E30
:103600007127FF0E7223F1EF1AF07051D8B43BEF1F
:103610001BF07AA13BEF1BF00001895106019E6F60
:1036200000018A5106019F6F3FEC08F00950040128
:10363000746F0A50756FD8907531776F7431766FEB
:10364000030E096ED89077337633092E22EF1BF0E4
:1036500076517025786F000E006E77510020796FDB
:1036600078510501D96F040179510501DA6FDB6BDF
:10367000DC6B1FEC0FF0010E04016F15746F050E6B
:10368000006ED89071377237002E41EF1BF0020E9A
:103690006F15746F7451D8B485EF1CF0715105012A
:1036A0003C6F0401725105013D6F65503E6F3CB1A6
:1036B00067EF1BF0D8903D31566F3C31556F01EEEE
:1036C00000F05551E9263E51EF6E72EF1BF0D89095
:1036D0003D31556F3C31546F02EE00F05451E926F4
:1036E0003E51EF6E010E0401712505013F6F000E82
:1036F000D8B0010E040172250501406F6650416F7C
:103700003FB190EF1BF0D8904031596F3F31586F67
:1037100001EE00F05851E9264151EF6E9BEF1BF08E
:10372000D8904031586F3F31576F02EE00F057513B
:10373000E9264151EF6E020E040171250501426F29
:10374000000E040172210501436F6750446F42B1BE
:10375000B7EF1BF0D89043315B6F42315A6F01EEE7
:1037600000F05A51E9264451EF6EC2EF1BF0D89099
:1037700043315A6F4231596F02EE00F05951E92638
:103780004451EF6E030E040171250501456F000ED3
:10379000040172210501466F6850476F45B1DEEFA5
:1037A0001BF0D89046315D6F45315C6F01EE00F043
:1037B0005C51E9264751EF6EE9EF1BF0D890463196
:1037C0005C6F45315B6F02EE00F05B51E9264751BB
:1037D000EF6E040E040171250501486F000E04010F
:1037E00072210501496F69504A6F48B105EF1CF01D
:1037F000D89049315F6F48315E6F01EE00F05E5145
:10380000E9264A51EF6E10EF1CF0D89049315E6FF7
:1038100048315D6F02EE00F05D51E9264A51EF6ECE
:10382000050E0401712505014B6F000E0401722184
:1038300005014C6F6A504D6F4BB12CEF1CF0D890C6
:103840004C31616F4B31606F01EE00F06051E92641
:103850004D51EF6E37EF1CF0D8904C31606F4B310B
:103860005F6F02EE00F05F51E9264D51EF6E060EDC
:103870000401712505014E6F000E0401722105013E
:103880004F6F6B50506F4EB153EF1CF0D8904F31CB
:10389000636F4E31626F01EE00F06251E9265051C4
:1038A000EF6E5EEF1CF0D8904F31626F4E31616F5A
:1038B00002EE00F06151E9265051EF6E070E04014F
:1038C00071250501516F000E040172210501526F2F
:1038D0006C50536F51B17AEF1CF0D8905231656F34
:1038E0005131646F01EE00F06451E9265351EF6EDF
:1038F00085EF1CF0D8905231646F5131636F02EE46
:1039000000F06351E9265351EF6E040E04016F1568
:10391000746F7451D8B401EF1DF0080E71250501C4
:10392000656F000E040172210501666F6D50676FAF
:1039300065B1A8EF1CF0D8906631706F65316F6F7C
:1039400001EE00F06F51E9266751EF6EB3EF1CF006
:10395000D89066316F6F65316E6F02EE00F06E5178
:10396000E9266751EF6E090E040171250501686FA4
:10397000000E040172210501696F6E506A6F68B113
:10398000CFEF1CF0D8906931736F6831726F01EE20
:1039900000F07251E9266A51EF6EDAEF1CF0D89010
:1039A0006931726F6831716F02EE00F07151E92672
:1039B0006A51EF6E0A0E0401712505016B6F000E4E
:1039C0000401722105016C6F6F506D6F6BB1F6EFE2
:1039D0001CF0D8906C31756F6B31746F01EE00F094
:1039E0007451E9266D51EF6E01EF1DF0D8906C31E6
:1039F000746F6B31736F02EE00F07351E9266D51F5
:103A0000EF6E100E04016F15746F7451D8B4A4EFEB
:103A10001DF0150E71250501756F000E0401722150
:103A20000501766F7350776F75B124EF1DF0D89054
:103A30007631836F7531826F01EE00F08251E92695
:103A40007751EF6E2FEF1DF0D8907631826F753180
:103A5000816F02EE00F08151E9267751EF6E140E6E
:103A6000040171250501786F000E04017221050122
:103A7000796F72507A6F78B14BEF1DF0D890793131
:103A8000866F7831856F01EE00F08551E9267A5115
:103A9000EF6E56EF1DF0D8907931856F7831846FD5
:103AA00002EE00F08451E9267A51EF6E1B0E0401FC
:103AB000712505017B6F000E0401722105017C6FE9
:103AC00071507D6F7BB172EF1DF0D8907C31886FA3
:103AD0007B31876F01EE00F08751E9267D51EF6E53
:103AE0007DEF1DF0D8907C31876F7B31866F02EEC1
:103AF00000F08651E9267D51EF6E1A0E0401712502
:103B000005017E6F000E0401722105017F6F705068
:103B1000806F7EB199EF1DF0D8907F318A6F7E3132
:103B2000896F01EE00F08951E9268051EF6EA4EF14
:103B30001DF0D8907F31896F7E31886F02EE00F0E2
:103B40008851E9268051EF6E080E04016F15746FDD
:103B50007451D8B4D2EF1DF00B0E712505018A6F98
:103B6000000E0401722105018B6F8AB1C6EF1DF0B2
:103B7000D8908B318E6F8A318D6F01EE00F08D51B0
:103B8000E92600018551EF6ED2EF1DF0D8908B3100
:103B90008D6F8A318C6F02EE00F08C51E9260001A6
:103BA0008551EF6E200E04016F15746F7451D8B4F7
:103BB00075EF1EF01C0E712505018F6F000E0401BC
:103BC00072210501906F6150916F8FB1F5EF1DF07B
:103BD000D89090319D6F8F319C6F01EE00F09C5119
:103BE000E9269151EF6E00EF1EF0D89090319C6F56
:103BF0008F319B6F02EE00F09B51E9269151EF6EE1
:103C00001D0E040171250501926F000E0401722141
:103C10000501936F6250946F92B11CEF1EF0D89023
:103C20009331A06F92319F6F01EE00F09F51E92612
:103C30009451EF6E27EF1EF0D89093319F6F923121
:103C40009E6F02EE00F09E51E9269451EF6E1E0E1B
:103C5000040171250501956F000E04017221050113
:103C6000966F6350976F95B143EF1EF0D8909631E1
:103C7000A26F9531A16F01EE00F0A151E926975195
:103C8000EF6E4EEF1EF0D8909631A16F9531A06F78
:103C900002EE00F0A051E9269751EF6E1F0E0401CD
:103CA00071250501986F000E040172210501996FBD
:103CB00064509A6F98B16AEF1EF0D8909931A46F52
:103CC0009831A36F01EE00F0A351E9269A51EF6EEF
:103CD00075EF1EF0D8909931A36F9831A26F02EE64
:103CE00000F0A251E9269A51EF6E030182B3A0EFD2
:103CF0001EF00001895106019E6F00018A510601E4
:103D00009F6F3FEC08F009500401746F0A50756F03
:103D1000D8907531776F7431766F030E096ED89035
:103D200077337633092E8FEF1EF076510501A46F9D
:103D3000040177510501A56FA66BA76B8FEF11F0FA
:103D40000001895106019E6F00018A5106019F6F93
:103D50003FEC08F009500401746F0A50756FD89059
:103D60007531776F7431766F030E096ED8907733A3
:103D70007633092EB6EF1EF076517025786F000E5F
:103D8000006E77510020796F78510501A46F04010E
:103D900079510501A56FA66BA76B8FEF11F06D51DF
:103DA0000001896F04016E5100018A6F04017A815C
:103DB0007A93FF0E71EF12F004016C6F6DEC08F056
:103DC00001EF10F069510001896F04016A5100018F
:103DD0008A6F040169516D6F6A516E6FCFEC1EF0EE
:103DE0006150621063106410D8B403EF1FF070507C
:103DF0000501EE6F7150EF6F7250F06F7350F16FFD
:103E0000FE810BEC0DF0000185A90BEF1FF0040102
:103E10006B930DEF1FF004016B83000185A715EF75
:103E20001FF004016B9517EF1FF004016B856B8782
:103E30006BB36BA56B976BA723EF1FF00001876B2C
:103E4000886B098012000990120082A51AEF06F013
:103E5000D3EF06F0030182950001876B886BD89041
:103E600087350401586F000188350401596FD890D7
:103E7000583759377C50096E0A6A0B6A0C6A03EE90
:103E800028F05851E926EF500D6EE92AEF500E6EDA
:103E9000E92AEF500F6EE92AEF50106EA0EC00F007
:103EA000115004015A6F12505B6F13505C6F145025
:103EB0005D6F575DD8A469EF1FF05C51565DD8A4C3
:103EC00069EF1FF05B51555DD8A469EF1FF05A519F
:103ED000545D6891D8B46FEF1FF0D8A0688168B1C5
:103EE000B0EF1FF0D8900001873504015E6F00012C
:103EF000883504015F6FD8905E375F377C50096E5C
:103F00000A6A0B6A0C6A03EE28F05E51E926EF504C
:103F10000D6EE92AEF500E6EE92AEF500F6EE92A76
:103F2000EF50106EA0EC00F011500401606F1250C1
:103F3000616F1350626F1450636FD8805451605595
:103F4000546F55516155556F56516255566F5751C3
:103F50006355576F0001872BD8B4882B2FEF1FF0C4
:103F6000D890000187350401586F0001883504019D
:103F7000596FD890583759377C50096E0A6A0B6AC6
:103F80000C6A03EE14F05851E926EF500D6EE92A41
:103F9000EF500E6EE92AEF500F6EE92AEF50106EC7
:103FA000A0EC00F0115004015A6F12505B6F1350D7
:103FB0005C6F14505D6F0001815104015A255E6FE2
:103FC0000001825104015B215F6F000183510401F4
:103FD0005C21606F0001845104015D21616F5E51BD
:103FE0005425646F5F515521656F60515621666F8E
:103FF00061515721676F64510601AD6F040165512E
:104000000601AE6F040166510601AF6F04016751EE
:104010000601B06F2FEF07F00A0E07011F6F206B2C
:10402000ABEC01F00601E46B000E72EC04F094942A
:1040300094928B948B820A0E07011F6F206BABEC5E
:1040400001F09380030182970001F96BFA6BFB6B1F
:10405000FC6BFD6B03EE3CF0FD51E926EF6AFD2B96
:104060001A0EFD5DD8A42AEF20F006EF22F08B9403
:104070008B92200E68EC04F00F0E68EC04F08B823B
:10408000020E07011F6F206BABEC01F08B840D0E4D
:1040900080EF01F0526F8B948B92300E68EC04F03D
:1040A000FF0E68EC04F0C20E68EC04F0C20E68EC7F
:1040B00004F0C20E68EC04F0C20E68EC04F08B82CF
:1040C0008B922A0E68EC04F0FF0E68EC04F0C20E2E
:1040D00068EC04F0C20E68EC04F0C20E68EC04F068
:1040E000C20E68EC04F08B828B922B0E68EC04F00D
:1040F0000401535168EC04F0C20E68EC04F0C20EE7
:1041000068EC04F0C20E68EC04F0C20E68EC04F037
:104110008B828B922C0E68EC04F0000E68EC04F09D
:104120008B828B92210E68EC04F0070E68EC04F091
:104130008B828B92220E68EC04F0070E68EC04F080
:104140008B828B92230E68EC04F0030E68EC04F073
:104150008B828B92240E68EC04F00A0E68EC04F05B
:104160008B828B92250E68EC04F00401525168ECAE
:1041700004F08B828B92260E68EC04F0270E68EC1C
:1041800004F08B828B92270E68EC04F0700E68ECC2
:1041900004F08B828B92310E68EC04F0010E68EC17
:1041A00004F08B828B92320E68EC04F01C0E68ECEB
:1041B00004F08B828B92330E68EC04F01C0E68ECDA
:1041C00004F08B8212000401506B516B8B948B9224
:1041D000270E68EC04F0700E68EC04F08B828B9272
:1041E000220E68EC04F0010E68EC04F08B828B92D6
:1041F000300E68EC04F00001FC5168EC04F0C20ED3
:1042000068EC04F0C20E68EC04F0C20E68EC04F036
:10421000C20E68EC04F08B828B922A0E68EC04F0DC
:104220000001FC5168EC04F0C20E68EC04F0C20E10
:1042300068EC04F0C20E68EC04F0C20E68EC04F006
:104240008B828B920B0E68EC04F0000E5EEC04F097
:104250000001FC6F000E5EEC04F0000E5EEC04F05A
:10426000000E5EEC04F0000E5EEC04F08B828B928C
:10427000A00E68EC04F00001FB2BFB5168EC04F08D
:104280000001FC5168EC04F00401506B516B506B61
:10429000516B03EE3CF05051E926EF5068EC04F00E
:1042A0000401502BD8B4512B1A0E505D5111D8A4D3
:1042B00049EF21F08B828B92200E68EC04F00E0EF9
:1042C00068EC04F08B828B84010E80EC01F000011D
:1042D000070E096E092E6AEF21F000008B94F96B2E
:1042E000FA6B81A07FEF21F0F92BD8B4FA2BF40EF2
:1042F000F95D096EFA050910D8A471EF21F08B92CF
:10430000270E5EEC04F0700E68EC04F08B828B924A
:10431000220E68EC04F0070E68EC04F08B828B929E
:10432000E10E68EC04F08B828B92200E68EC04F0B6
:104330000F0E68EC04F08B828B840F0E80EC01F082
:10434000F40E0001F95D096EFA050910D8A4B1EF69
:1043500021F0030182A7B1EF21F0F28E020E096E67
:104360000A6A120089989288120089989298010E20
:1043700080EC01F004014FB19288080E80EC01F04E
:104380009288010E80EF01F04E8189989298010E7B
:1043900080EC01F09288010E80EC01F080B8D3EF40
:1043A00021F004014E91070E80EF01F004014C6FE3
:1043B0004D6B4F914CB14F81B5EC21F0D890040179
:1043C0004C334D2B080E4D5DD8A4D9EF21F08988D0
:1043D000929812004B6BD8904A33C4EC21F0040140
:1043E0004A9F4EB14A8F4B2B080E4B5DD8A4EBEF82
:1043F00021F0898892984A51120089989298460E25
:1044000080EC01F09288460E80EF01F0B2EC21F0D2
:10441000EBEF22F0FDEC21F0CC0ED6EF21F0040101
:10442000416F426B446B4151456F436B59EF22F032
:10443000EAEC21F00401426F03EE56F04351E92605
:104440004251EF6E496B469144B12BEF22F042B1DD
:1044500046812DEF22F042A14681D8904433449FFB
:1044600046B1448F44B53AEF22F046B140EF22F016
:104470003DEF22F046A140EF22F0449541EF22F0BB
:10448000448544B749EF22F046B14FEF22F04CEF9C
:1044900022F046A14FEF22F0449750EF22F04487DC
:1044A000D8904233492B080E495DD8A423EF22F05F
:1044B000432B4351455DD8A418EF22F0090E415D0E
:1044C000D8A499EF22F003015A290401469FD8B4D9
:1044D000468F03015B2904014791D8B44781478384
:1044E00046BF47A1479303015C2904014795D8B40F
:1044F0004785478747B347A5479703015D290401CF
:104500004799D8B44789478B47B747A9479B0301C9
:104510005E290401479DD8B4478D478F47BB47ADFF
:10452000479F47AF99EF22F0C60E0301566F0990DF
:10453000120044514881D8A44891099048B109809B
:1045400012000AEC22F0440ED6EF21F004013D6B7C
:104550000AEC22F0BE0ED6EC21F0090E0FEC22F090
:104560000401409109B040813D2B010E3D5D409515
:10457000D8B4BDEF22F0D8B04085409740A140B5F7
:10458000408740A7A8EF22F00301565104013B6F7A
:104590000301575104013C6F0A0E3B03F3503E6F79
:1045A000F4503F6F0A0E3C03F3503F27D8903F3141
:1045B0003FBF80093C6F3E313B6F030E096ED890C0
:1045C0003CBFD8803C333B33092EDFEF22F009900B
:1045D00040B10980120003015F6B606B616B626B1D
:1045E000636BA1EF2AF004012F6B306B316B070E68
:1045F000326F316B03EE5FF03151E926EF6A312BF8
:10460000050E315DD8A4FAEF22F0316B92968996AF
:10461000120E07011F6F206BABEC01F08986040EB0
:1046200080EC01F0928680B624EF23F004012F2B5A
:10463000D8B4302BE80E2F5D096E030E305D0910E3
:10464000D8A413EF23F0020C04012F6B306B80A66B
:1046500037EF23F02F2BD8B4302BE80E2F5D096EE7
:10466000030E305D0910D8A427EF23F0020C396B3C
:104670002F6B306B80B64AEF23F02F2BD8B4302B42
:10468000E80E2F5D096E030E305D0910D8A43AEFD5
:1046900023F0020C040E80EC01F080A66DEF23F0F5
:1046A00004013251006E010E336F00505BEF23F0B6
:1046B000D89033370006D8A458EF23F003EE5FF00C
:1046C0003151E926EF50096E335109100A6E03EE9D
:1046D0005FF03151E9260A50EF6E04013251D8A43F
:1046E00077EF23F0070E326F312B78EF23F032078C
:1046F0002F6B306B80A68AEF23F02F2BD8B4302B92
:10470000E80E2F5D096E030E305D0910D8A47AEF14
:1047100023F0020C392B280E395DD8A438EF23F092
:1047200003015F5160250401336F0301612504011A
:10473000346F0301622504013A6F030163510401E0
:104740003A5DD8A4010C03015F510401336F346B4F
:104750003351366F356B030160510401376F386B8D
:10476000030161510401336F346B3351366F356B84
:10477000030162510401376F386B000C0401256F8F
:104780003DEC03F0EE0E5FEC03F004012E9109B056
:104790002E8125515FEC03F004012E9509B02E8582
:1047A0002EA52E914EEC03F03DEC03F0EF0E5FECE6
:1047B00003F004012E9909B02E892EA92E9106012D
:1047C000EB818EEC03F00401286F0601EB918EEC77
:1047D00003F00401296F4EEC03F0040128512A6F05
:1047E0002B6B2A512D6F2C6B2C512925266F000E17
:1047F000006E2D510020276F2651096E27510A6E39
:1048000012003DEC03F0EE0E5FEC03F00401239187
:1048100009B02381F40E5FEC03F00401239509B085
:10482000238523A523912E0E5FEC03F00401239929
:1048300009B0238923A923914EEC03F0040E07014C
:104840001F6F206BABEC01F0320E80EC01F03DEC01
:1048500003F0EE0E5FEC03F00401239D09B0238DFD
:1048600023AD2391F60E5FEC03F00401249109B00F
:10487000248124A123914EEC03F03DEC03F0EF0ED4
:104880005FEC03F00401249509B0248524A523914D
:104890000601EB818EEC03F004011D6F1E6B060117
:1048A000EB918EEC03F004011F6F206B4EEC03F0D4
:1048B00004011D51226F216B21511F251B6F2251B5
:1048C00020211C6F1B51096E1C510A6E1200FB6FD8
:1048D000FB51D8A471EF24F0040E0401026F8CEF99
:1048E00024F0FB05D8A47AEF24F0070E0401026F30
:1048F0008CEF24F0020EFB5DD8A484EF24F00D0EA3
:104900000401026F8CEF24F0030EFB5DD8A48CEF42
:1049100024F0190E0401026F3DEC03F0EE0E5FEC83
:1049200003F00401199109B01981F40E5FEC03F052
:104930000401199D09B0198D19AD19910301FB31BD
:104940000401036F03330331C00B036F340E0325DF
:10495000046F5FEC03F004011A9109B01A811AA1E7
:1049600019914EEC03F00401025107011F6F206BF7
:10497000ABEC01F0320E80EC01F03DEC03F0EE0EFA
:104980005FEC03F004011A9509B01A851AA5199174
:10499000F60E5FEC03F004011A9909B01A891AA9FE
:1049A00019914EEC03F03DEC03F0EF0E5FEC03F0D9
:1049B00004011A9D09B01A8D1AAD19910601EB81F7
:1049C0008EEC03F00301FF6F0601EB818EEC03F028
:1049D0000401006F0601EB918EEC03F00401016FFE
:1049E0004EEC03F00301FF510401036F046B056BF0
:1049F0000351086F076B066B0051096F0A6B0B6B55
:104A00000A510E6F09510D6F0C6B06510C250F6F7B
:104A100007510D21106F08510E21116F0151126FB6
:104A2000136B146B0F511225156F10511321166F54
:104A300011511421176FD880080E0301FB55040192
:104A4000186F006E15510301FC6F0401165103012C
:104A5000FD6F040117510301FE6F0052D8B438EF07
:104A600025F0D890FE33FD33FC33002E31EF25F0D6
:104A7000FC51096EFD510A6EFE510B6E1200AA0E1A
:104A8000BEEC23F009500301686F0A50696F0401FE
:104A90002EB14FEF25F00301FA9151EF25F00301FC
:104AA000FA81AC0EBEEC23F0095003016A6F0A5084
:104AB0006B6F04012EB161EF25F00301FA9163EFF2
:104AC00025F00301FA81AE0EBEEC23F0095003017C
:104AD0006C6F0A506D6F04012EB173EF25F0030166
:104AE000FA9175EF25F00301FA81B00EBEEC23F0C8
:104AF00009500001FE6F0A50FF6F04012EB185EFCF
:104B000025F00301FA9187EF25F00301FA81B20E37
:104B1000BEEC23F009500301646F0A50656F040175
:104B20002EB197EF25F00301FA9199EF25F00301DB
:104B3000FA81B40EBEEC23F009500301666F0A50EF
:104B4000676F04012EB1A9EF25F00301FA91ABEFD5
:104B500025F00301FA81B60EBEEC23F009500301E3
:104B60006E6F0A506F6F04012EB1BBEF25F0030189
:104B7000FA91BDEF25F00301FA81B80EBEEC23F0E7
:104B800009500301706F0A50716F04012EB1CDEF0F
:104B900025F00301FA91CFEF25F00301FA81BA0E57
:104BA000BEEC23F004012EB1DAEF25F00301FA91F7
:104BB000DCEF25F00301FA81BC0EBEEC23F00950B6
:104BC0000301726F0A50736F04012EB1ECEF25F0F0
:104BD0000301FA91EEEF25F00301FA81BE0EBEEC5F
:104BE00023F009500301746F0A50756F04012EB150
:104BF000FDEF25F00301FA9112000301FA81120082
:104C0000DE51EA6FDF51EB6FEC6BED6B6651EE6FCF
:104C10006751EF6FF06BF16BD880EA51EE55F26F90
:104C2000EB51EF55F36FEC51F055F46FED51F15539
:104C3000F56F6451096E65510A6E0B6A0C6AF25188
:104C40000D6EF3510E6EF4510F6EF551106EA0EC17
:104C500000F011500301F66F1250F76F1350F86F08
:104C60001450F96F116A800E126E136A146AF651AD
:104C7000096EF7510A6EF8510B6EF9510C6EDDECAE
:104C800000F015500301E06F1650E16F1750E26F0E
:104C90001850E36F7251EA6F7351EB6F000EEBBF68
:104CA000FF0EEC6FED6FEC51F16FEB51F06FEA51CD
:104CB000EF6FEE6B030E006ED890EF37F037F137E1
:104CC000002E5CEF26F07451F26F7551F36F000EF9
:104CD000F3BFFF0EF46FF56FE051F225F66FE1516F
:104CE000F321F76FE251F421F86FE351F521F96FE9
:104CF000F651116EF751126EF851136EF951146E90
:104D0000EE51096EEF510A6EF0510B6EF1510C6EBF
:104D1000DDEC00F015500301E46F1650E56F1750FD
:104D2000E66F1850E76FE051E425766FE151E52119
:104D3000776FE251E621786FE351E721796F080E32
:104D40007625EA6F000E7721EB6F000E7821EC6F6D
:104D5000000E7921ED6F100E116E126A136A146A3B
:104D6000EA51096EEB510A6EEC510B6EED510C6E6F
:104D7000DDEC00F015500301E86F1650E96FE851C3
:104D8000096EE9510A6E1200A96F600E7625BA6F9E
:104D9000F00E7721BB6FFF0E7821BC6FFF0E7921DB
:104DA000BD6FBA51096EBB510A6EBC510B6EBD513D
:104DB0000C6EBA510D6EBB510E6EBC510F6EBD51D3
:104DC000106EA0EC00F011500301CA6F1250CB6FAF
:104DD0001350CC6F1450CD6F116A100E126E136AFF
:104DE000146ACA51096ECB510A6ECC510B6ECD516B
:104DF0000C6EDDEC00F015500301CE6F1650CF6F36
:104E00001750D06F1850D16F7051096E71510A6EE2
:104E1000000E0ABEFF0E0B6E0C6ECE510D6ECF5102
:104E20000E6ED0510F6ED151106EA0EC00F01150EB
:104E30000301D26F1250D36F1350D46F1450D56F3B
:104E4000116A080E126E136A146AD251096ED35198
:104E50000A6ED4510B6ED5510C6EDDEC00F015507E
:104E60000301AA6F1650AB6F1750AC6F1850AD6F9F
:104E70006A51096E6B510A6E000E0ABEFF0E0B6E70
:104E80000C6EBA510D6EBB510E6EBC510F6EBD5102
:104E9000106EA0EC00F011500301CA6F1250CB6FDE
:104EA0001350CC6F1450CD6F116A080E126E136A36
:104EB000146ACA51096ECB510A6ECC510B6ECD519A
:104EC0000C6EDDEC00F015500301AE6F1650AF6FA5
:104ED0001750B06F1850B16FAA51AE25B26FAB51D9
:104EE000AF21B36FAC51B021B46FAD51B121B56FEB
:104EF0006851CA6F6951CB6F000ECBBFFF0ECC6FEC
:104F0000CD6FD890CA35CE6FCB35CF6FCC35D06F43
:104F1000CD35D16FD890CE37CF37D037D137CE51AE
:104F2000B225D26FCF51B321D36FD051B421D46FFA
:104F3000D151B521D56FA951006ED251D66FD35141
:104F4000D76FD451D86FD551D96F0050AEEF27F03D
:104F5000D890D637D737D837D9370006D8A4A8EF96
:104F600027F0020ED625DA6F000ED721DB6F000E78
:104F7000D821DC6F000ED921DD6F040E116E126A8C
:104F8000136A146ADA51096EDB510A6EDC510B6E3A
:104F9000DD510C6EDDEC00F015500301B66F1650BC
:104FA000B76F1750B86F1850B96F6C51096E6D51CB
:104FB0000A6E000E0ABEFF0E0B6E0C6EBA510D6E1D
:104FC000BB510E6EBC510F6EBD51106EA0EC00F0C7
:104FD00011500301CA6F1250CB6F1350CC6F145095
:104FE000CD6F116A200E126E136A146ACA51096ECF
:104FF000CB510A6ECC510B6ECD510C6EDDEC00F036
:1050000015500301AA6F1650AB6F1750AC6F1850B4
:10501000AD6FBA51096EBB510A6EBC510B6EBD51DA
:105020000C6EBA510D6EBB510E6EBC510F6EBD5160
:10503000106EA0EC00F011500301CA6F1250CB6F3C
:105040001350CC6F1450CD6F116A100E126E136A8C
:10505000146ACA51096ECB510A6ECC510B6ECD51F8
:105060000C6EDDEC00F015500301CE6F1650CF6FC3
:105070001750D06F1850D16F6E51096E6F510A6E74
:10508000000E0ABEFF0E0B6E0C6ECE510D6ECF5190
:105090000E6ED0510F6ED151106EA0EC00F0115079
:1050A0000301D26F1250D36F1350D46F1450D56FC9
:1050B000116A126A010E136E146AD251096ED3512D
:1050C0000A6ED4510B6ED5510C6EDDEC00F015500C
:1050D0000301AE6F1650AF6F1750B06F1850B16F1D
:1050E000AA51AE25CA6FAB51AF21CB6FAC51B021E5
:1050F000CC6FAD51B121CD6F020ECA25CE6F000E1F
:10510000CB21CF6F000ECC21D06F000ECD21D16FFF
:10511000040E116E126A136A146ACE51096ECF51D1
:105120000A6ED0510B6ED1510C6EDDEC00F01550B3
:105130000301B26F1650B36F1750B46F1850B56FAC
:10514000000EB225CA6F800EB321CB6F000EB421C2
:10515000CC6F000EB521CD6F0001FE51096EFF51DD
:105160000A6E0B6A0C6A0301CA510D6ECB510E6EAA
:10517000CC510F6ECD51106EA0EC00F01150030118
:10518000CE6F1250CF6F1350D06F1450D16FCF51DC
:10519000BE6FD051BF6FD151C06FC16B070E096E8A
:1051A000D890C033BF33BE33092ED0EF28F0A651BC
:1051B000CA6FA751CB6FA851CC6FCD6BD880CA51A5
:1051C000B655CE6FCB51B755CF6FCC51B855D06FC8
:1051D000CD51B955D16FA951D26FD36BD251006E59
:1051E000500ED46FC30ED56F0052D8B4FEEF28F026
:1051F000D890D533D433002EF8EF28F0D451096E6F
:10520000D5510A6E0B6A0C6ACE510D6ECF510E6EDF
:10521000D0510F6ED151106EA0EC00F0115003016F
:10522000C26F1250C36F1350C46F1450C56F800EFD
:10523000C55DD8A428EF29F0000EC45DD8A428EFDE
:1052400029F0000EC35DD8A428EF29F0000EC25D3E
:10525000D8B454EF29F0D8B054EF29F0D890C23523
:10526000CA6FC335CB6FC435CC6FC535CD6FBE515A
:10527000116EBF51126EC051136EC151146ECA51DE
:10528000096ECB510A6ECC510B6ECD510C6E01ECF8
:1052900001F015500301C66F1650C76F1750C86F45
:1052A0001850C96F78EF29F0BE51116EBF51126EC0
:1052B000C051136EC151146EC251096EC3510A6EB2
:1052C000C4510B6EC5510C6E01EC01F01550030179
:1052D000CA6F1650CB6F1750CC6F1850CD6FD89047
:1052E000CA35C66FCB35C76FCC35C86FCD35C96FE2
:1052F000116A010E126E136A146AC651096EC75103
:105300000A6EC8510B6EC9510C6EDDEC00F01550E1
:105310000301CA6F1650CB6F1750CC6F1850CD6F6A
:105320001550CE6F1650CF6F1750D06F1850D16FE9
:10533000CA51096ECB510A6ECC510B6ECD510C6E19
:10534000CE510D6ECF510E6ED0510F6ED151106EE9
:10535000A0EC00F011500301AA6F1250AB6F135074
:10536000AC6F1450AD6FAA51096EAB510A6EAC51BF
:105370000B6EAD510C6EDE0E0D6E0B0E0E6E0F6AC7
:10538000106AA0EC00F011500301CA6F1250CB6FED
:105390001350CC6F1450CD6F116A126A010E136E48
:1053A000146ACA51096ECB510A6ECC510B6ECD51A5
:1053B0000C6EDDEC00F015500301AA6F1650AB6FB8
:1053C0001750AC6F1850AD6FC651096EC7510A6EB9
:1053D000C8510B6EC9510C6E430E0D6EE30E0E6E6E
:1053E000FF0E0F6E106EA0EC00F011500301CA6F9B
:1053F0001250CB6F1350CC6F1450CD6F116A126ADC
:10540000010E136E146ACA51096ECB510A6ECC514B
:105410000B6ECD510C6EDDEC00F015500301AE6F3C
:105420001650AF6F1750B06F1850B16FAA51AE251C
:10543000CA6FAB51AF21CB6FAC51B021CC6FAD5126
:10544000B121CD6FCF0ECA25CE6F0E0ECB21CF6FFF
:10545000000ECC21D06F000ECD21D16F100E116E39
:10546000126A136A146ACE51096ECF510A6ED05176
:105470000B6ED1510C6EDDEC00F015500301D26FB4
:105480001650D36F1750D46F1850D56FD251C6270E
:10549000D351C723D451C823D551C923C651096E4E
:1054A000C7510A6EC8510B6EC9510C6E1200030130
:1054B000996F01EC24F009500301A06F0A50A16F0D
:1054C000040123B168EF2AF00301A5936AEF2AF0E3
:1054D0000301A583A591A5B3A581995167EC24F09B
:1054E00009500301A26F0A50A36F0B50A46F04016F
:1054F00019B17FEF2AF00301A59381EF2AF0030190
:10550000A583A5A3A591A051DE6FA151DF6F00EC8B
:1055100026F0095003019A6F0A509B6FA251A66FA3
:10552000A351A76FA451A86F9951C4EC26F009505C
:1055300003019C6F0A509D6F0B509E6F0C509F6F24
:1055400012007A6B010E7B6F28EF2EF0A1EC22F097
:10555000A6EC22F004013B510301976F04013C517A
:105560000301986F9751096E98510A6E120096B117
:10557000BCEF2AF08D9012008D8012003A0E0701C8
:105580000C6F060E0D6F000E0E6F090E0F6F106B75
:105590000C0E116F010E126F000E4009136FF3EC29
:1055A00001F00D0E16EC03F0070E0701196F1A6BD0
:1055B000CDEC01F03A0E07010C6F060E0D6F000ED8
:1055C0000E6F080E0F6F106B160E116F010E126F1B
:1055D000000E4009136FF3EC01F0220E16EC03F0FD
:1055E0003A0E07010C6F060E0D6F000E0E6F0C0EBB
:1055F0000F6F106B240E116F010E126F000E400919
:10560000136FF3EC01F0220E16EC03F00D0E16EC06
:1056100003F00A0E0701196F1A6BCDEC01F03A0E78
:1056200007010C6F060E0D6F000E0E6F100E0F6F40
:10563000106B300E116F010E126F000E4009136FC8
:10564000F3EC01F00D0E16EC03F01A0E16EF03F05A
:105650003A0E07010C6F060E0D6F000E0E6F0D0E49
:105660000F6F106B040E116F000E126F000E4009C9
:10567000136FF3EC01F00A0E0701196F1A6BCDECF2
:1056800001F03A0E07010C6F060E0D6F000E0E6F43
:105690000F0E0F6F106B120E116F000E126F000EB7
:1056A0004009136FF3EC01F00A0E0701196F1A6B32
:1056B000CDEC01F03A0E07010C6F060E0D6F000ED7
:1056C0000E6F0D0E0F6F106B220E116F000E126F0A
:1056D000000E4009136FF3EC01F00A0E0701196F79
:1056E0001A6BCDEC01F03A0E07010C6F060E0D6F30
:1056F000000E0E6F150E0F6F106B800E116F000EE7
:10570000126F000E4009136FF3EC01F0050E070154
:10571000196F1A6BCDEC01F03A0E07010C6F060EF3
:105720000D6F000E0E6F0E0E0F6F106B300E116F9F
:10573000000E126F000E4009136FF3EC01F0220E01
:10574000096E1DEC03F03A0E07010C6F060E0D6F8B
:10575000000E0E6F030E0F6F106B3E0E116F000EDA
:10576000126F000E4009136FF3EC01F0220E096E68
:105770001DEC03F02C0E096E1DEC03F0220E096ED9
:105780001DEC03F03A0E07010C6F060E0D6F000EB4
:105790000E6F0B0E0F6F106B420E116F000E126F1B
:1057A000000E4009136FF3EC01F0220E096E1DECA0
:1057B00003F03A0E07010C6F060E0D6F000E0E6F10
:1057C000070E0F6F106B4E0E116F000E126F000E52
:1057D0004009136FF3EC01F01E0E0701196F1A6BED
:1057E000CDEC01F03A0E07010C6F060E0D6F000EA6
:1057F0000E6F110E0F6F106B560E116F000E126FA1
:10580000000E4009136FF3EC01F0050E0701196F4C
:105810001A6BCDEC01F03A0E07010C6F060E0D6FFE
:10582000000E0E6F0B0E0F6F106B680E116F000ED7
:10583000126F000E4009136FF3EC01F0050E070123
:10584000196F1A6BCDEC01F03A0E07010C6F060EC2
:105850000D6F000E0E6F110E0F6F106B560E116F45
:10586000000E126F000E4009136FF3EC01F0050EED
:105870000701196F1A6BCDEC01F03A0E07010C6F9E
:10588000060E0D6F000E0E6F0B0E0F6F106B740E69
:10589000116F000E126F000E4009136FF3EC01F050
:1058A000050E0701196F1A6BCDEC01F03A0E0701D6
:1058B0000C6F060E0D6F000E0E6F110E0F6F106B3A
:1058C000960E116F000E126F000E4009136FF3EC6D
:1058D00001F0050E0701196F1A6BCDEC01F03A0EBD
:1058E00007010C6F060E0D6F000E0E6F180E0F6F76
:1058F000106BA80E116F000E126F000E4009136F8F
:10590000F3EC01F01E0E0701196F1A6BCDEC01F0DC
:105910003A0E07010C6F060E0D6F000E0E6F110E82
:105920000F6F106BC00E116F000E126F000E40094A
:10593000136FF3EC01F0140E0701196F1A6BCDEC25
:1059400001F03A0E07010C6F060E0D6F000E0E6F80
:10595000050E0F6F106BD20E116F000E126F000E3E
:105960004009136FF3EC01F03A0E07010C6F060EBD
:105970000D6F000E0E6F080E0F6F106B650E116F1E
:10598000126B136BF3EC01F02E0E096E1DEC03F09D
:105990003A0E07010C6F060E0D6F000E0E6F030E10
:1059A0000F6F106B6D0E116F126B136BF3EC01F038
:1059B0003A0E07010C6F060E0D6F000E0E6F040EEF
:1059C0000F6F106BD80E116F000E126F000E400992
:1059D000136FF3EC01F00A0E0701196F1A6BCDEC8F
:1059E00001F03A0E07010C6F060E0D6F000E0E6FE0
:1059F0000D0E0F6F106BDC0E116F000E126F000E8C
:105A00004009136FF3EC01F03A0E0601F26F060E37
:105A1000F36F000EF46F6150F56F6250F66F6350D4
:105A2000F76F6450F86FDBEC02F03A0E07010C6F71
:105A3000060E0D6F000E0E6F020E0F6F106BEA0E4A
:105A4000116F000E126F000E4009136FF3EC01F09E
:105A50000A0E0701196F1A6BCDEC01F062500301B9
:105A6000876F6350886F6450896F8A6BD8908933D1
:105A70008833873389518E6F88518D6F87518C6F32
:105A80008B6BD8908C378D378E3761508B5D096E5C
:105A900062508C5D091263508D5D091264508E5DF9
:105AA0000910D8A461EF2DF06250836F6350846FAA
:105AB0006450856F866BD8908533843383337EEF53
:105AC0002DF06250876F6350886F6450896F8A6BC6
:105AD000D890893388338733010E8725836F000E72
