:020000040000FA
:100000000A128A11542882074F344B341030B00042
:100010000310A40DA50D0310A00DA10D031C16289F
:100020002308A5072208A4070318A50AB00B08286F
:1000300008002030B000A401A501A601A70103100B
:10004000AC0DAD0DAE0DAF0D0310A00DA10DA20DA9
:10005000A30DA40DA50DA60DA70D27082B02031DAA
:100060003B2826082A02031D3B2825082902031DD8
:100070003B282408280203193F2803184E28280883
:10008000A4022908031C290FA5022A08031C2A0F11
:10009000A6022B08031C2B0FA7022C14B00B1F2841
:1000A00008008A00320882009F01073083169F00F3
:1000B00007309C0087286508E9006608EA00EB0124
:1000C00073286808B3006B086707B2000318B30A07
:1000D0003313330851208312A0006308B200640870
:1000E00051208312EB0A6B086902A0006A08200401
:1000F000031D612808008715071628308312940015
:1001000020308316910031309300940108007B2049
:1001100083168601061306108610061187142229FD
:100120008312B90039080319080001303902031D90
:10013000A228831203130A30A0000A128A11A00B0E
:100140009F280800B903831203130630A0000A1287
:100150008A11A00BA92800000000BA01B928831257
:1001600003130D30A0000A128A11A00BB52800005D
:10017000BA0A3A083902031DAF280800E101E2017A
:10018000D328831203130630A000A530A1000A1261
:100190008A11A10BC7280A128A11A00BC5280000DA
:1001A000E10A0319E20A61085F02A0006208600226
:1001B0002004031DC1280800DD01DE01F728831299
:1001C00003135E30A000FD30A1000330A2000A122C
:1001D0008A11A20BE7280A128A11A10BE5280A123C
:1001E0008A11A00BE3280000DD0A0319DE0A5D086E
:1001F0005B02A0005E085C022004031DDF280800EB
:100200008312BB003C103B183C143C088600BC1019
:10021000BB18BC143C0886003C113B193C153C083B
:100220008600BC11BB19BC153C088600BC163C08F6
:10023000860000000000000000000000BC123C0826
:10024000860008008312B401A22983122008B70097
:100250003C163C088600370E0F39B80038080021DC
:100260008312370800210430902801308312D9000E
:100270003C123C088600590E0F39DA005A0800215A
:1002800083125908002104309020B43090283C1289
:100290003C0886001930DF00E001BE200330002159
:1002A00005308312DF00E001BE20033000210A3058
:1002B00090200330002104309020023000210430CF
:1002C000902028308312D1003C123C088600510E49
:1002D0000F39D20052080021831251080021043046
:1002E00090201C308312D3003C123C088600530E31
:1002F0000F39D40054080021831253080021043020
:1003000090200C308312D5003C123C088600550E1C
:100310000F39D600560800218312550800210430F9
:10032000902006308312D7003C123C088600570EFE
:100330000F39D800580800218312570800210430D3
:10034000902035294721831607118312B50101300A
:10035000B600102A4A08A8004B08A9004C08AA00B9
:100360004D08AB00A0012D30A1003130A2000130BA
:10037000A300192083122C08CE002D08CF000310F3
:100380004F0CB6004E0CB5000310B60CB50C920124
:100390003508360450140319501010303602031D6E
:1003A000D32900303502D010031D031CD014501582
:1003B0005018D01C5011501D0F2A01303602031D59
:1003C000E329003035020319E7290318EA29FC3034
:1003D00092050A2A04303602031DF0290030350246
:1003E0000319F4290318FF290310B60CB50C0310E8
:1003F000B60CB50CFC301205013892000A2A043004
:10040000A0000310B60CB50CA00B012AFC3012059D
:1004100002389200350383169200831212150800E9
:10042000BD01BE01942AF03083123E050C38BE0097
:100430003D0895003E0897000800F0308312BE0585
:100440003E089700080003304902031D292AFF30A7
:1004500048020319312A031C312AFF30C800033037
:10046000C9000310490CA100480CA0000310A10C06
:10047000A00C2008BD0003304805A000200EA100FC
:100480003030A105CF303E052104BE00132A83126F
:10049000BF003F08031D4F2AC001C101872A6430F5
:1004A0003F020319552A031C5D2A3608C100350393
:1004B000C000400A0319C103872A3F08C200C301D4
:1004C0000310360CC500350CC4000310C50CC40C59
:1004D0004208A0004308A1004408A2004508A30068
:1004E000062083122408C6002508C7001930A8007A
:1004F000A901AA01AB014608A0004708A100A2017A
:10050000A301192083122C08C0002D08C10003107C
:10051000400DC200410DC3000310C20DC30D4208BF
:10052000C8004308C900232A1322831688148312A3
:10053000881CB22A9F01073083169F008715071673
:100540008312BC173C0886000230DB00DC01DC2093
:100550008312BC133C0886000230DB00DC01DC2087
:10056000640063008312BC173C0886000F30DB0078
:10057000DC01DC208312BC133C08860035212530C9
:100580008312E3000130E4000230E500E6010430AC
:10059000E70000304038E8005B200F308312DB00BA
:1005A000DC01DC20352140308312CA009C30CB00B6
:1005B000CC01CD01AA21323047221D22132208305E
:1005C0008312DF00E001BE201D2228308312DF00ED
:0605D000E001BE20DE2A5E
:02400E007A3FF7
:00000001FF
