:020000040000FA
:020000001628C0
:08000800DE00030E8301A800D5
:100010000A08A9008A015F08AB002008A400210893
:10002000A5002208A6002308A700E028FF238316C6
:1000300090000730831299000E30831681008516D8
:10004000051685150511851005105D105D088312D4
:100050008500DD105D0885005D115D088500532871
:100060003808BA003908BB00BC01BD014A280000AD
:100070000000A130A0007B30A1000A128A11A10B60
:100080003D280A128A11A00B3B2800000000BC0A80
:100090000319BD0A3C083A02A0003D083B022004B7
:1000A000031D372808000A30B800B901302031108C
:1000B000B110311183168113951615169616161662
:1000C000961501138B158B174030AD004230AE00F2
:1000D0000F30AF00B001D5280C1CC4280C102D081F
:1000E000A0002E08A1002F08A2003008A3000030B5
:1000F000A0020030DF00031C5F0FA1020130DF000F
:10010000031C5F0FA2020030DF00031C5F0FA3027D
:100110002008AD002108AE002208AF002308B0007F
:1001200000303002031D9E2801302F02031D9E283F
:1001300000302E02031D9E2800302D020319C42812
:100140000318C428AC0A2D08A0002E08A1002F080F
:10015000A2003008A3004030A0074230DF0003189F
:100160005F0FA1070F30DF0003185F0FA2070030F9
:10017000DF0003185F0FA3072008AD002108AE00C1
:100180002208AF002308B0002408A0002508A10021
:100190002608A2002708A3002B08DF0029088A00F0
:1001A000280E8300DE0E5E0E0900CF30831290050C
:1001B00090119010101483160C140B178B17F52840
:1001C0000B1C6C280B10851AE9283114B110311161
:1001D0006C28051AEF28B114311031116C288519DB
:1001E000F4283115B11031106C28B201B301311C63
:1001F0000D2931105D145D0883128500B50164007E
:100200000530B800B9013020B50A04303502031DAD
:10021000FF285D105D0883128500B11C2329B110F1
:10022000DD145D0883128500B60164000530B80056
:10023000B9013020B60A04303602031D1529DD103D
:100240005D0883128500311D392931115D155D0866
:1002500083128500B70164000530B800B901302071
:10026000B70A04303702031D2B295D115D08831284
:1002700085003110B11031116300B20A0319B30ABD
:100280000A3032023304031DF7285D145D0883121F
:100290008500B4010530B800B90130206400B40A0B
:1002A00002303402031D4A295D105D088312850067
:0402B0006400F528C9
:02400E009C3FD5
:00000001FF
