:020000040000FA
:0400000006EF00F017
:080008003FEF00F0D190FC0E67
:10001000D3169B9CC26A0F0EC16EC06A070EB46EE7
:1000200037EF00F008500A6E09500B6E0C6A0D6A2B
:100030002DEF00F00001110E026E570E036E6F0ED1
:10004000046E042E21EF00F0032E1FEF00F0022EAD
:100050001DEF00F00C2AD8B40D2A0C500A5C026E79
:100060000D500B5C0210D8A41AEF00F01200939E02
:10007000F19CF28EF28C9380F2884DEF00F0F2A2A8
:1000800045EF00F046EC00F0F292110081AE4BEF2C
:1000900000F08A9E12008A8E12008A9E8A8E0F0EAF
:1000A000086E096A12EC00F08A9E0F0E086E096A4B
:1000B00012EC00F0010E086E096A12EC00F05AEF23
:0200C00000F04E
:020000040030CA
:0E0000000002181E000381000FC00FE00F4029
:00000001FF
