:020000040000FA
:100000002FEF00F04C6973746F21100E166E106A9A
:10001000116AD89014361536D8900E360F36103631
:1000200011361150135CD8A418EF00F01050125C78
:10003000D8B41EEF00F0D8B026EF00F0D8801050F2
:100040001254106E11501354116E1480162E09EFB5
:1000500000F01200FB6E1950FA6E1850F96ED19034
:10006000FC0ED3169B9CC26A0F0EC16EC06A070EAF
:10007000B46ED7EF00F0206E2050D8B412002004E8
:10008000D8A44CEF00F000010A0E0E6E0E2E46EFC3
:1000900000F000000000120020060001070E0E6EA6
:1000A0000E2E50EF00F000002050216E226A60EF0B
:1000B00000F000010E0E0E6E0E2E5CEF00F0222AF4
:1000C0002250215CD8A459EF00F012006150636EF9
:1000D0006250646E656A666A7DEF00F00001090E89
:1000E0000E6EB70E0F6E0F2E73EF00F00E2E71EF27
:1000F00000F00000652AD8B4662A6550635C0E6E75
:100100006650645C0E10D8A46EEF00F012005B50D5
:100110005D6E5C505E6E5F6A606AA2EF00F0000187
:10012000110E0E6E570E0F6E6F0E106E102E96EF94
:1001300000F00F2E94EF00F00E2E92EF00F05F2AE9
:10014000D8B4602A5F505D5C0E6E60505E5C0E102D
:10015000D8A48FEF00F012005150566E5250576ED7
:100160005650596E57505A6E586ACEEF00F05350A1
:100170005824F66E000E006E54500020F76E555055
:100180000020F86EF89C0900F5500E6E4E50186E67
:100190004F50196E50502AEC00F0582A5850595CB4
:1001A0000E6E5A500E10D8A4B7EF00F012009694BD
:1001B000939E20EF01F04A6E4DB0E2EF00F0C09E3A
:1001C000E3EF00F0C08E4A340E6E0E363C0E0E1673
:1001D000C30EC2140E10C26EC28025503BEC00F05C
:1001E000C282C2B2F1EF00F0C4504C6EC3504B6EED
:1001F000810E245CD8B400EF01F0D8A00DEF01F01F
:100200000001E30E0E6E020E0F6E0F2E05EF01F0D1
:100210000E2E03EF01F015EF01F00001190E0E6E26
:100220000E2E10EF01F000000000C2904B500E6E39
:100230004C500F6E1200476E4D804750DBEF00F0C0
:10024000F00E32169280F00E32140E09326E0F0E3E
:1002500032140E6E0F0E0E140F6EF00EC1140F102E
:10026000C16E336A33380E6E300E0E16CF0EC114C7
:100270000E10C16E080E346E356A080E346E356A83
:10028000F80EC0140509C06E3450246EC70EC01697
:10029000150E256E9592958050EF01F08C8212001C
:1002A0004EEC01F0939A9398939693949392939033
:1002B00095EF01F0236E23B061EF01F08A9062EFB9
:1002C00001F08A8023B268EF01F08A9269EF01F0B1
:1002D0008A8223B46FEF01F08A9470EF01F08A8470
:1002E00023B676EF01F08A9677EF01F08A868A8A44
:1002F000000000000000000000008A9A12001E6E3C
:100300001E380F0B1F6E5AEC01F01E505AEC01F014
:10031000040E3BEF00F01D6E8A881D507FEF01F048
:10032000446E8A9844507FEF01F01B6AF7EF01F0AA
:10033000436E020E435CD8B4A1EF01F0D8A0A2EF47
:1003400001F0436A4350D8B4000C4304D8B4400CC5
:10035000020E435CD8B4100C030E435CD8B4500CAE
:100360001200800E1B10426E90EF01F00E501C6EBA
:100370008BEF01F03F6E98EC01F0416E405041244C
:100380001B6EB1EF01F0010E90EC01F0B40E3BEFEB
:1003900000F08A98190E616E626A66EC00F0030E36
:1003A0005AEC01F0050E616E626A66EC00F0030E15
:1003B0005AEC01F00A0E3BEC00F0030E5AEC01F08F
:1003C000040E3BEC00F0020E5AEC01F0040E3BEC84
:1003D00000F0280E90EC01F01C0E90EC01F00C0ED9
:1003E00090EC01F0060E90EC01F0C3EF01F0C9ECC7
:1003F00001F0928092822B6A2C6AA5EF03F0100E16
:10040000126E270E136E3D500E6E3E500F6E05ECB1
:1004100000F01450386E10503D6E11503E6EE80ED4
:10042000126E030E136E3D500E6E3E500F6E05ECB5
:1004300000F01450396E10503D6E11503E6E640E37
:10044000126E136A3D500E6E3E500F6E05EC00F0BA
:1004500014503A6E10503D6E11503E6E0A0E126EE0
:10046000136A3D500E6E3E500F6E05EC00F01450B6
:100470003B6E10503D6E11503E6E3D503C6E3850FC
:100480001200070E375CD8A448EF02F0D00E365C9D
:10049000D8B44EEF02F0D8B051EF02F00E6A0F6AF6
:1004A0001200080E375CD8A458EF02F02A0E365C12
:1004B000D8B45EEF02F0D8B062EF02F00A0E0E6E12
:1004C0000F6A1200080E375CD8A469EF02F0840EA0
:1004D000365CD8B46FEF02F0D8B073EF02F0140EB0
:1004E0000E6E0F6A1200080E375CD8A47AEF02F085
:1004F000D40E365CD8B480EF02F0D8B084EF02F0AE
:100500001E0E0E6E0F6A1200090E375CD8A48BEF18
:1005100002F02E0E365CD8B491EF02F0D8B095EF11
:1005200002F0280E0E6E0F6A1200090E375CD8A476
:100530009CEF02F0880E365CD8B4A2EF02F0D8B07F
:10054000A6EF02F0320E0E6E0F6A1200090E375C33
:10055000D8A4ADEF02F0E20E365CD8B4B3EF02F0EF
:10056000D8B0B7EF02F03C0E0E6E0F6A12000A0E02
:10057000375CD8A4BEEF02F03C0E365CD8B4C4EFB2
:1005800002F0D8B0C8EF02F0460E0E6E0F6A1200ED
:100590000A0E375CD8A4CFEF02F08C0E365CD8B4CC
:1005A000D5EF02F0D8B0D9EF02F0500E0E6E0F6A00
:1005B00012000A0E375CD8A4E0EF02F0E60E365CBB
:1005C000D8B4E6EF02F0D8B0EAEF02F05A0E0E6EA1
:1005D0000F6A12000B0E375CD8A4F1EF02F0400E48
:1005E000365CD8B4F7EF02F0D8B0FBEF02F0640E3F
:1005F0000E6E0F6A12000B0E375CD8A402EF03F0E8
:100600009A0E365CD8B408EF03F0D8B00CEF03F0C4
:100610006E0E0E6E0F6A12000B0E375CD8A413EF2D
:1006200003F0F40E365CD8B419EF03F0D8B01DEF28
:1006300003F0780E0E6E0F6A12000C0E375CD8A411
:1006400024EF03F0440E365CD8B42AEF03F0D8B0A0
:100650002EEF03F0820E0E6E0F6A12000C0E375C46
:10066000D8A435EF03F09E0E365CD8B43BEF03F010
:10067000D8B03FEF03F08C0E0E6E0F6A12000C0E16
:10068000375CD8A446EF03F0F80E365CD8B44CEFD4
:1006900003F0D8B050EF03F0960E0E6E0F6A120002
:1006A0000D0E375CD8A457EF03F0520E365CD8B469
:1006B0005DEF03F0D8B061EF03F0A00E0E6E0F6A8D
:1006C00012000D0E375CD8A468EF03F0AC0E365C58
:1006D000D8B46EEF03F0D8B072EF03F0AA0E0E6E2E
:1006E0000F6A12000D0E375CD8A479EF03F0FC0EF0
:1006F000365CD8B47FEF03F0D8B083EF03F0B40ECC
:100700000E6E0F6A12000E0E375CD8A48AEF03F04B
:10071000560E365CD8B490EF03F0D8B094EF03F0E7
:10072000BE0E0E6E0F6A12000E0E375CD8A49BEF41
:1007300003F0B00E365CD8B4A1EF03F0D8B0A4EF4C
:1007400003F0C80E0E6E0F6A12008D848A8E050E9D
:100750005B6E5C6A87EC00F08D948A9E050E5B6E82
:100760005C6A87EC00F0C3EC01F06C0E4E6E030E79
:100770004F6E000E506E060E516E526A040E536E8E
:10078000000E546E000E4009556EACEC00F02D6A60
:100790002E6A2F6A306A140E5B6E5C6A87EC00F07A
:1007A000000E1BEC01F00E502B6E0F502C6E010E44
:1007B0005B6E5C6A87EC00F0406A000EBAEC01F0F8
:1007C000310E2B02F3502D6EF4502E6E310E2C0292
:1007D000F3502E262D50366E2E50376E41EC02F01F
:1007E0000E502F6E0F50306E2F503D6E30503E6EBB
:1007F000FFEC01F02A6E3950296E3A50286E3B50BA
:10080000276E3C50266E300E2824316E0E6EB6ECEC
:1008100001F0300E2724316E0E6EB6EC01F0300E72
:100820002624316E0E6EB6EC01F0200E0E6EB6EC84
:1008300001F0630E0E6EB6EC01F06D0E0E6EB6ECAE
:1008400001F0200E0E6EB6EC01F0200E0E6EB6EC2E
:1008500001F02D503D6E2E503E6EFFEC01F02A6EE1
:100860003950296E3A50286E3B50276E3C50266E08
:10087000300E2A24316E0E6EB6EC01F02C0E0E6E88
:10088000B6EC01F0300E2924316E0E6EB6EC01F09C
:10089000300E2824316E0E6EB6EC01F0300E272497
:1008A000316E0E6EB6EC01F0200E0E6EB6EC01F05D
:1008B000560E0E6EB6EC01F0050E5B6E5C6A87ECB0
:0608C00000F0D0EF03F090
:020000040030CA
:0E0000000002181E000381000FC00FE00F4029
:00000001FF
