:020000040000FA
:100000008A112829820750344F3452345434203412
:100010003134393432342C343134363438342C34AD
:1000200034342C3431342C3434342C3433340D34D3
:100030000A340D340A348207413454342B344334A7
:1000400049345034533445345234563445345234A0
:100050003D3431342C3431343034323437340D348F
:100060000A348207413454342B34433449345034F5
:10007000533445344E3444343D3434342C343134E8
:1000800035340D340A348207413454342B3443342C
:1000900049345034533445344E3444343D3434348C
:1000A0002C34323432340D340A348207413454341F
:1000B0002B34433449345034533445344E3444346F
:1000C0003D3434342C34313431340D340A34820725
:1000D000533454344F345234203430343034303488
:1000E00031342E347434783474340D340A340D348D
:1000F0000A348207413454342B3443344934503465
:10010000533445344E3444343D3430342C34343458
:100110000D340A348207413454342B344334573479
:1001200044344834433450343D3432342C34313444
:100130000D340A348207413454342B344334493467
:10014000503443344C344F34533445343D343434D8
:100150000D340A348207413454342B344334493447
:10016000503443344C344F34533445343D343034BC
:100170000D340A348207413454342B344334493427
:100180005034533454344134523454343D34343480
:100190002C348207413454342B34433449345034A2
:1001A0004D34553458343D3431340D340A348207DB
:1001B000413454342B34433457344D344F34443465
:1001C00045343D3433340D340A3482073134393404
:1001D00032342E343134363438342E3434342E34F0
:1001E0003234820755345334453452342034753414
:0A01F0007334653472340D340A34A0
:1002000082075034413453345334203470346134D1
:10021000733473340D340A348207613462346334C6
:1002200064340D340A340D340A3482072C343934E2
:100230003034393430340D340A3482075434433482
:10024000503482074F344B3421348A002408820012
:1002500007309F00E6298312AB002B080319080022
:100260002B03031D3C29831203130A30A0000A123A
:100270008A11A00B39290800AB038312031306303F
:10028000A0000A128A11A00B4329000000002B08CD
:10029000AC00AD015529831203130D30A0000A12E2
:1002A0008A11A00B51290000AD0A2D082C02031D54
:1002B0004B2908005208D4005308D500D601D701B5
:1002C0007329831203130630A000A530A1000A127F
:1002D0008A11A10B67290A128A11A00B6529000057
:1002E000D60A0319D70A56085402A0005708550227
:1002F0002004031D612908004C08CE004D08CF00E2
:10030000D001D1019B29831203135E30A000FD3080
:10031000A1000330A2000A128A11A20B8B290A1233
:100320008A11A10B89290A128A11A00B87290000C2
:10033000D00A0319D10A50084E02A00051084F02FA
:100340002004031D832908004308C7004408C8008F
:100350004708CA004808CB00C901C0294608A500C3
:1003600049084507A4000318A50A251325082521D7
:100370008312A0004108A400420825218312C90A63
:1003800049084A02A0004B082004031DAE290800BA
:100390000A308316990018150800831698018312F5
:1003A0009801C82183168C120C1286140615981613
:1003B0008312981718160800B0000C1EDD293008AB
:1003C0009900080083122008AF00DC29CD21831694
:1003D000051005128511051185100610302A8312AB
:1003E000AE002E18F5297D10F6297D147D088500B4
:1003F000AE18FC29FD10FD29FD147D0885002E197D
:10040000032A7D11042A7D157D088500AE190A2A6C
:10041000FD110B2AFD157D0885007C147C088600E3
:10042000000000000000000000007C107C08860036
:100430000800A900290E0F39AA00EF21831229080C
:10044000EF2104302B29A8007D167D08850028089F
:10045000192A8312B6007D127D0885003608192AF4
:100460008312A601802AB5000230350203193A2A08
:10047000031C3B2AB5013508031900343503031961
:1004800040340230350203191034033035020319A9
:100490005034080080302604B400292A8312200832
:1004A000A700232AB10033228312B3003207A6002B
:1004B0004A2A01302922B4302B297D127D0885007B
:1004C0001930D200D3015A210330EF2105308312B5
:1004D000D200D3015A210330EF210A302B210330FF
:1004E000EF2104302B210230EF2104302B21283062
:1004F00029221C3029220C30292206302922592A8F
:100500005D228316861306138615FC177C0883125A
:1005100086007C177C0886000A30CC00CD017C2147
:10052000FC137C08831286007C137C088600592209
:100530004E308312C1000230C2000330C300C40138
:100540002230C50001304038C600A4218312B20118
:100550000130522214308312CC00CD017C21E230D4
:100560008312C1000130C2000D30C300C401D83075
:10057000C50000304038C600A4210A308312CC00E8
:10058000CD017C21E2308312C1000130C2000F3066
:10059000C300C4018B30C50000304038C600A42120
:1005A0000A308312CC00CD017C21E2308312C100DD
:1005B0000130C2000D30C300C401CA30C500003094
:1005C0004038C600A4210A308312CC00CD017C2122
:1005D0008312861DE82AE230C1000130C2001530C6
:1005E000C300C4011C30C50000304038C600A4213F
:1005F00005308312CC00CD017C21E2308312C10092
:100600000130C2000E30C300C401BB30C500003051
:100610004038C600A42122308312A000E221E2303B
:100620008312C1000130C2000330C300C4011E3078
:10063000C50001304038C600A42122308312A0003A
:10064000E2212C308312A000E22122308312A0008C
:10065000E221E2308312C1000130C2000B30C3003E
:10066000C401E630C50000304038C600A421223065
:100670008312A000E221E2308312C1000130C200E7
:100680000730C300C4011630C50001304038C60031
:10069000A4211E308312CC00CD017C21E2308312D4
:1006A000C1000130C2001130C300C4015630C50082
:1006B00000304038C600A42105308312CC00CD01A3
:1006C0007C21E2308312C1000130C2000B30C30034
:1006D000C401F230C50000304038C600A421053006
:1006E0008312CC00CD017C21E2308312C1000130A5
:1006F000C2001130C300C4015630C500003040387C
:10070000C600A42105308312CC00CD017C21E2304B
:100710008312C1000130C2000B30C300C40101309C
:10072000C50001304038C600A42105308312CC003A
:10073000CD017C21E2308312C1000130C2001130B2
:10074000C300C4014430C50000304038C600A421B5
:1007500005308312CC00CD017C21E2308312C10030
:100760000130C2001830C300C4010330C50000309E
:100770004038C600A4211E308312CC00CD017C215C
:10078000E2308312C1000130C2001130C300C40145
:100790003230C50000304038C600A4210A30831230
:1007A000CC00CD017C21E2308312C1000130C200B7
:1007B0001130C300C4016830C50000304038C600A5
:1007C000A4210A308312CC00CD017C21E2308312B7
:1007D000C1000130C2001030C300C4017A30C5002E
:1007E00000304038C600A42105308312CC00CD0172
:1007F0007C21E2308312C1000130C2000830C30006
:10080000C4010D30C50001304038C600A4210A30B3
:100810008312CC00CD017C21E2308312C100013073
:10082000C2000F30C300C401AB30C50000304038F7
:10083000C600A42105308312CC00CD017C21E2301A
:100840008312C1000130C2000F30C300C4019B30CD
:10085000C50000304038C600A42105308312CC000A
:06086000CD017C21E82A15
:02400E000A3F67
:00000001FF
