:020000040000FA
:100000000A128A11532882074F347534743420340D
:1000100049344E344634213482074F3475347434B5
:100020002034533455345034213482074F344B3408
:10003000820763346D341030A8000310A40DA50DA1
:100040000310A00DA10D031C2B282308A5072208CF
:10005000A4070318A50AA80B1D2808001030A80043
:10006000A201A3010310A60DA70D0310A00DA10D61
:10007000A20DA30D23082502031D402822082402F7
:100080000319442803184B282508A3022408A202B8
:10009000031CA3032614A80B322808008A0083122D
:1000A00003132A0882009F01073083169F00073040
:1000B0009C005F291508990016089A009B01842866
:1000C00083160317180883120313AB008316031754
:1000D0001B08170783120313AA000318AB0A2B137C
:1000E0002B084E2083120313A00083160317130856
:1000F00083120313AA008316031714088A110A1225
:100100004E20831603179B0A1B0819028312031340
:10011000A000831603171A088312031320048A1100
:100120000A12031D602808008C1C972894281008C8
:1001300083128D008316110883128F0083168C138F
:100140000C1483120C088316920012080800EE00AB
:1001500083168C1CAC28A82883126C088D006D08AF
:100160008F0083168C1383126E088C0083160C1577
:1001700083126F108B1B6F148B13553083168D00F9
:10018000AA308D008C1483126F18C8288B13C928CD
:100190008B1783160C1108006608EA006708EB004D
:1001A0006A088316900083126B08831691009420CE
:1001B00083120317E80001306607EA0000300318D5
:1001C00001306707EB006A088316900083126B0802
:1001D000831691008A110A12942083120317E900F2
:1001E00008006008E4006108E5006408EC006508A8
:1001F000ED006208A7200130831203176007E400B6
:100200000030031801306107E5006408EC00650860
:10021000ED0063088A110A12A728871507162830EF
:10022000831294002030831691000B3093009401C8
:100230000800831603131114111C1F291C29080020
:1002400083169114911C2529222908008316031373
:100250001115111D2C292929080083120317DF000D
:1002600003138C1103175F08031393008C193929AA
:1002700036298316111B3F2983122014080083128C
:100280009412941620100800831603139115141865
:100290004A294729831203175E1C52298316031328
:1002A000911255298316031391161116111E5929FF
:1002B0005629831213080317DD005D0808000D217D
:1002C0008316860106130610861006110313871085
:1002D00007158A110A12082A83120313AF002F0888
:1002E0000319080001302F02031D7F298312031315
:1002F0000A30A0000A128A11A00B7C290800AF0363
:10030000831203130630A0000A128A11A00B86295B
:1003100000000000B0019629831203130D30A000E5
:100320000A128A11A00B92290000B00A30082F028D
:10033000031D8C290800DB01DC01B12983120313A2
:100340000630A000A530A1000A128A11A10BA42931
:100350000A128A11A00BA22900000317DB0A031955
:10036000DC0A5B0859020313A00003175C085A0259
:1003700003132004031D9E290800D701D801D929A1
:10038000831203135E30A000FD30A1000330A200F1
:100390000A128A11A20BC8290A128A11A10BC629B6
:1003A0000A128A11A00BC42900000317D70A0319E7
:1003B000D80A570855020313A0000317580856021D
:1003C00003132004031DC029080083120313B10086
:1003D00032103118321432088600B210B118B2143B
:1003E0003208860032113119321532088600B211F6
:1003F000B119B21532088600B21632088600000024
:100400000000000000000000B21232088600080060
:100410008312AC01122BD400023054020319122AA9
:10042000031C132AD4015408031900340130540268
:1004300003194034023054020319103403305402BB
:10044000031950340800831203132008AD0032163C
:10045000320886002D0E0F39AE002E088A110A12BE
:10046000E521831203132D088A110A12E5210430B5
:100470008A110A126C29CF004F080B22831203172E
:10048000D100510850070313AC0080302C0403172F
:10049000D20003133212320886000317520E0F39AE
:1004A000D30053088A110A12E52183120317520858
:1004B0008A110A12E52104308A110A126C290130CE
:1004C00083120317CD00031332123208860003177C
:1004D0004D0E0F39CE004E08E521831203174D084B
:1004E0008A110A12E52104308A110A126C21B430F3
:1004F0008A110A126C293212320886001930031749
:10050000D900DA019B2103308A110A12E521053056
:1005100083120317D900DA018A110A129B210330D2
:100520008A110A12E5210A308A110A126C2103305D
:100530008A110A12E52104308A110A126C21023054
:100540008A110A12E52104308A110A126C2128301E
:1005500083120317C50003133212320886000317F3
:10056000450E0F39C60046088A110A12E52183128A
:10057000031745088A110A12E52104308A110A126C
:100580006C211C3083120317C70003133212320888
:1005900086000317470E0F39C80048088A110A124F
:1005A000E5218312031747088A110A12E521043056
:1005B0008A110A126C210C3083120317C90003132D
:1005C0003212320886000317490E0F39CA004A0852
:1005D0008A110A12E5218312031749088A110A12A7
:1005E000E52104308A110A126C21063083120317A8
:1005F000CB00031332123208860003174B0E0F395B
:10060000CC004C088A110A12E521831203174B080B
:100610008A110A12E52104308A110A126C218A110A
:100620000A125F2A7B228A150A122D2E03301F021E
:10063000031D1C2BE8301E020319242B031C242B42
:100640000230A000A101080001301F02031D2A2B67
:1006500070301E02A210031D031CA21401301F02E1
:10066000031D342B6B301E022211031D03182215AB
:10067000A215A218221DA211A21D422B9530A00086
:10068000A101080001301F02031D482B6A301E0221
:100690002212031D031C221601301F02031D522BC0
:1006A00065301E02A212031D0318A2162217221A79
:1006B000A21E2213221F602B9430A000A10108006B
:1006C00001301F02031D662B64301E02A213031D9E
:1006D000031CA21701301F02031D702B5F301E0286
:1006E0002310031D03182314A314A21B231CA310FF
:1006F000A31C7E2B9330A000A101080001301F0233
:10070000031D842B5E301E022311031D031C2315C1
:1007100001301F02031D8E2B59301E02A311031D31
:100720000318A31523162319A31D2312231E9C2B84
:100730009230A000A101080001301F02031DA22B6E
:1007400058301E02A312031D031CA31601301F0202
:10075000031DAC2B53301E022313031D0318231754
:10076000A317A31A231FA313A31FBA2B9130A00012
:10077000A101080001301F02031DC02B52301E02D0
:100780002410031D031C241401301F02031DCA2B57
:100790004C301E02A410031D0318A41424152418A1
:1007A000A41C2411241DD82B9030A000A101080006
:1007B00001301F02031DDE2B4B301E02A411031D4E
:1007C000031CA41501301F02031DE82B46301E0236
:1007D0002412031D03182416A416A419241EA412FF
:1007E000A41EF62B8F30A000A101080001301F02CB
:1007F000031DFC2B45301E022413031D031C24176C
:1008000001301F02031D062C40301E02A413031DDD
:100810000318A4172514241BA41F2510251C142C11
:100820008E30A000A101080001301F02031D1A2C08
:100830003F301E02A510031D031CA51401301F022A
:10084000031D242C3A301E022511031D0318251503
:10085000A515A518251DA511A51D322C8D30A000AC
:10086000A101080001301F02031D382C39301E027F
:100870002512031D031C251601301F02031D422CE7
:1008800036301E02A512031D0318A5162517251ABA
:10089000A51E2513251F502C8C30A000A101080097
:1008A00001301F02031D562C35301E02A513031DF7
:1008B000031CA51701301F02031D602C32301E02DD
:1008C0002610031D03182614A614A51B261CA6100B
:1008D000A61C6E2C8B30A000A101080001301F0265
:1008E000031D742C31301E022611031D031C261516
:1008F00001301F02031D7E2C2E301E02A611031D87
:100900000318A61526162619A61D2612261E8C2C9F
:100910008A30A000A101080001301F02031D922CA3
:100920002D301E02A612031D031CA61601301F0245
:10093000031D9C2C29301E022613031D03182617A5
:10094000A617A61A261FA613A61FAA2C8930A00038
:10095000A101080001301F02031DB02C28301E0227
:100960002710031D031C271401301F02031DBA2C7E
:1009700026301E02A710031D0318A71427152718D9
:10098000A71C2711271DC82C8830A000A101080032
:1009900001301F02031DCE2C25301E02A711031D9E
:1009A000031CA71501301F02031DD82C20301E0286
:1009B0002712031D03182716A716A719271EA7120B
:1009C000A71EE62C8730A000A101080001301F02FD
:1009D000031DEC2C1F301E022713031D031C2717B9
:1009E00001301F02031DF62C1C301E02A713031D2D
:1009F0000318A7172814271BA71F2810281C042D2D
:100A00008630A000A101080001301F02031D0A2D3D
:100A10001B301E02A810031D031CA81401301F0266
:100A2000031D142D17301E022811031D031828154D
:100A3000A815A818281DA811A81D222D8530A000D2
:100A4000A101080001301F02031D282D16301E02CF
:100A50002812031D031C281601301F02031D322D0E
:100A600012301E02A812031D0318A8162817281AF0
:100A7000A81E2813281F402D8430A000A1010800C3
:100A800001301F02031D462D11301E02A813031D45
:100A9000031CA81701301F02031D502D0D301E022C
:100AA0002910031D03182914A914A81B291CA91017
:100AB000A91C5E2D8330A000A101080001301F0297
:100AC000031D642D0C301E022911031D031C291562
:100AD00001301F02031D6E2D0A301E02A911031DD5
:100AE0000318A91529162919A91D2912291E7C2DBB
:100AF0008230A000A101080001301F02031D822DD9
:100B000009301E02A912031D031CA91601301F0281
:100B1000031D8C2D07301E022913031D03182917EE
:100B2000A917A91A291FA913A91F9A2D8130A0005E
:100B3000A101080001301F02031DA02D06301E0276
:100B40002A10031D031C2A1401301F02031DAA2DA5
:100B500004301E02AA10031D0318AA142A152A180D
:100B6000AA1C2A112A1DB82D8030A000A10108005E
:100B700001301F02031DBE2D03301E02AA11031DEA
:100B8000031CAA1501301F02031DC82D01301E02CF
:100B90002A12031D03182A16AA16AA192A1EAA1217
:100BA000AA1ED62D7F30A000A101080001301F022F
:100BB000031DDC2D00301E022A13031D031C2A17FF
:100BC00000301F02031DE62DFE301E02AA13031D76
:100BD0000318AA172B142A1BAA1F2B102B1CF42D49
:100BE0007E30A000A101080000301F02031DFA2D75
:100BF000FD301E02AB10031D031CAB1400301F029E
:100C0000031D042EFB301E022B11031D03182B1590
:100C1000AB15AB182B1DAB11AB1D122E7D30A000F8
:100C2000A101080000301F02031D182EFA301E0219
:100C30002B12031D031C2B1600301F02031D222E36
:100C4000F8301E02AB12031D0318AB162B172B1A1C
:100C5000AB1E2B132B1F302E7C30A000A1010800EF
:100C600000301F02031D362EF7301E02AB13031D8A
:100C7000031CAB1700301F02031D402EF5301E026F
:100C80002C10031D03182C14AC14AB1B2C1CAC1023
:100C9000AC1C4E2E7B30A000A101080000301F02CA
:100CA000031D542EF4301E022C11031D031C2C15A1
:100CB00000301F02031D5E2EF2301E02AC11031D18
:100CC0000318AC152C162C19AC1D2C122C1E6C2ED6
:100CD0007A30A000A101080000301F02031D722E0F
:100CE000F1301E02AC12031D031CAC1600301F02B3
:100CF000031D7C2EEF301E022C13031D03182C172E
:100D0000AC17AC1A2C1FAC13AC1F8A2E7930A00084
:100D1000A101080000301F02031D902EEE301E02BC
:100D20002D10031D031C2D1400301F02031D9A2ECD
:100D3000E9301E02AD10031D0318AD142D152D183A
:100D4000AD1C2D112D1DA82E7830A000A10108008A
:100D500000301F02031DAE2EE8301E02AD11031D30
:100D6000031CAD1500301F02031DB82EE4301E0217
:100D70002D12031D03182D16AD16AD192D1EAD1223
:100D8000AD1EC62E7730A000A101080000301F0262
:100D9000031DCC2EE3301E022D13031D031C2D1743
:100DA00000301F02031DD62EDF301E02AD13031DBF
:100DB0000318AD172E142D1BAD1F2E102E1CE42E64
:100DC0007630A000A101080000301F02031DEA2EAA
:100DD000DE301E02AE10031D031CAE1400301F02D5
:100DE000031DF42EDA301E022E11031D03182E15DA
:100DF000AE15AE182E1DAE11AE1D022F7530A0001F
:100E0000A101080000301F02031D082FD9301E0267
:100E10002E12031D031C2E1600301F02031D122F5D
:100E2000D6301E02AE12031D0318AE162E172E1A50
:100E3000AE1E2E132E1F202F7430A000A10108001B
:100E400000301F02031D262FD5301E02AE13031DD6
:100E5000031CAE1700301F02031D302FD2301E02BC
:100E60002F10031D03182F14AF14AE1B2F1CAF102F
:100E7000AF1C3E2F7330A000A101080000301F02FC
:100E8000031D442FD1301E022F11031D031C2F15EB
:100E900000301F02031D4E2FCD301E02AF11031D67
:100EA0000318AF152F162F19AF1D2F122F1E5C2FF1
:100EB0007230A000A101080000301F02031D622F44
:100EC000CC301E02AF12031D031CAF1600301F02F0
:100ED000031D6C2FC8301E022F13031D03182F177C
:100EE000AF17AF1A2F1FAF13AF1F7A2F7130A000AB
:100EF000A101080000301F02031D802FC7301E0211
:100F00003010031D031C301400301F02031D8A2FF4
:100F1000C3301E02B010031D0318B0143015301872
:100F2000B01C3011301D982F7030A000A1010800B6
:100F300000301F02031D9E2FC2301E02B011031D80
:100F4000031CB01500301F02031DA82FBF301E0266
:100F50003012031D03183016B016B019301EB0122F
:100F6000B01EB62F6F30A000A101080000301F0294
:100F7000031DBC2FBE301E023013031D031C30178F
:100F800000301F02031DC62FB8301E02B013031D10
:100F90000318B0173114301BB01F3110311CD42F7F
:100FA0006E30A000A1010800B7301E020313A0009C
:100FB000003003171F0203132004031DE42F6D30BC
:100FC0000317A000A1010800B63003171E02031387
:100FD000A000003003171F0203132004031DF52F88
:100FE0006C300317A000A1010800B53003171E02E2
:100FF0000313A000003003171F02031320048A15F7
:10100000031D07286B300317A000A1010800B430AE
:1010100003171E020313A000003003171F0203135F
:101020002004031D18286A300317A000A10108003E
:10103000B33003171E020313A000003003171F0272
:1010400003132004031D292869300317A000A10100
:101050000800B23003171E020313A000003003176C
:101060001F0203132004031D3A2868300317A00051
:10107000A1010800B13003171E020313A0000030C5
:1010800003171F0203132004031D4B2867300317A7
:10109000A000A1010800B03003171E020313A00036
:1010A000003003171F0203132004031D5C28663061
:1010B0000317A000A1010800AF3003171E0203139D
:1010C000A000003003171F0203132004031D6D2826
:1010D00066300317A000A1010800AE3003171E02FE
:1010E0000313A000003003171F0203132004031D85
:1010F0007E2865300317A000A10108000030031707
:101100001F02031D8528AD301E02B211031D031CF2
:10111000B21500301F02031D8F28AB301E023212A1
:10112000031D03183216B216B219321EB212B21EC5
:101130009D286430A000A101080000301F02031D9B
:10114000A328AA301E023213031D031C32170030DD
:101150001F02031DAD28A7301E02B213031D031882
:10116000B2173314321BB21F3310331CBB28633049
:10117000A000A101080000301F02031DC128A630F5
:101180001E02B310031D031CB31400301F02031D05
:10119000CB28A3301E023311031D03183315B315DA
:1011A000B318331DB311B31DD9286230A000A101BB
:1011B000080000301F02031DDF28A2301E02331278
:1011C000031D031C331600301F02031DE9289F3046
:1011D0001E02B312031D0318B3163317331AB31EBE
:1011E0003313331FF7286130A000A101080000303D
:1011F0001F02031DFD289E301E02B313031D031C96
:10120000B31700301F02031D07299B301E02341044
:10121000031D03183414B414B31B341CB410B41CD1
:1012200015296030A000A101080000301F02031D35
:101230001B299A301E023411031D031C3415003083
:101240001F02031D252997301E02B411031D031828
:10125000B41534163419B41D3412341E33295F30DA
:10126000A000A101080000301F02031D392996309B
:101270001E02B412031D031CB41600301F02031D0E
:10128000432993301E023413031D03183417B41777
:10129000B41A341FB413B41F51295E30A000A10149
:1012A000080000301F02031D572992301E0235101E
:1012B000031D031C351400301F02031D61298F30EC
:1012C0001E02B510031D0318B51435153518B51CCD
:1012D0003511351D6F295D30A000A10108000030D7
:1012E0001F02031D75298E301E02B511031D031C3C
:1012F000B51500301F02031D7F298B301E023512E9
:10130000031D03183516B516B519351EB512B51ED1
:101310008D295C30A000A101080000301F02031DD0
:1013200093298A301E023513031D031C3517003024
:101330001F02031D9D2988301E02B513031D0318CB
:10134000B5173614351BB51F3610361CAB295B306C
:10135000A000A101080000301F02031DB129873041
:101360001E02B610031D031CB61400301F02031D1D
:10137000BB2984301E023611031D03183615B6151D
:10138000B618361DB611B61DC9295A30A000A101E4
:10139000080000301F02031DCF2983301E023612C1
:1013A000031D031C361600301F02031DD92980308F
:1013B0001E02B612031D0318B6163617361AB61ECD
:1013C0003613361FE7295930A000A101080000306C
:1013D0001F02031DED297F301E02B613031D031CDF
:1013E000B61700301F02031DF7297C301E0237108C
:1013F000031D03183714B714B61B371CB710B71CDE
:10140000052A5830A000A101080000301F02031D6A
:101410000B2A7B301E023711031D031C37150030C9
:101420001F02031D152A79301E02B711031D031870
:10143000B71537163719B71D3712371E232A5730FD
:10144000A000A101080000301F02031D292A7830E6
:101450001E02B712031D031CB71600301F02031D26
:10146000332A76301E023713031D03183717B717B8
:10147000B71A371FB713B71F412A5630A000A10172
:10148000080000301F02031D472A75301E02381065
:10149000031D031C381400301F02031D512A723033
:1014A0001E02B810031D0318B81438153818B81CDC
:1014B0003811381D5F2A5530A000A1010800003006
:1014C0001F02031D652A71301E02B811031D031C83
:1014D000B81500301F02031D6F2A6E301E0238122D
:1014E000031D03183816B816B819381EB812B81EDE
:1014F0007D2A5430A000A101080000301F02031D06
:10150000832A6D301E023813031D031C3817003068
:101510001F02031D8D2A6A301E02B813031D031813
:10152000B8173914381BB81F3910391C9B2A53308F
:10153000A000A101080000301F02031DA12A69308C
:101540001E02B910031D031CB91400301F02031D35
:10155000AB2A66301E023911031D03183915B9155F
:10156000B918391DB911B91DB92A5230A000A1010D
:10157000080000301F02031DBF2A65301E02391209
:10158000031D031C391600301F02031DC92A6230D7
:101590001E02B912031D0318B9163917391AB91EDC
:1015A0003913391FD72A5130A000A101080000309B
:1015B0001F02031DDD2A61301E02B913031D031C27
:1015C000B91700301F02031DE72A5E301E023A10D1
:1015D000031D03183A14BA14B91B3A1CBA10BA1CEA
:1015E000F52A5030A000A101080000301F02031DA1
:1015F000FB2A5D301E023A11031D031C3A15003010
:101600001F02031D052B5A301E02BA11031D0318B9
:10161000BA153A163A19BA1D3A123A1E132B4F3020
:10162000A000A101080000301F02031D192B573034
:101630001E02BA12031D031CBA1600301F02031D3E
:10164000232B54301E023A13031D03183A17BA17FE
:10165000BA1A3A1FBA13BA1F312B4E30A000A1019B
:10166000080000301F02031D372B51301E023B10B3
:10167000031D031C3B1400301F02031D412B4E3081
:101680001E02BB10031D0318BB143B153B18BB1CEB
:101690003B113B1D4F2B4D30A000A1010800003035
:1016A0001F02031D552B4D301E02BB11031D031CD1
:1016B000BB1500301F02031D5F2B4A301E023B1278
:1016C000031D03183B16BB16BB193B1EBB12BB1EEA
:1016D0006D2B4C30A000A101080000301F02031D3B
:1016E000732B57301E023B13031D031C3B170030A6
:1016F0001F02031D7D2B54301E02BB13031D031854
:10170000BB173C143B1BBB1F3C103C1C8B2B4B30B2
:10171000A000A101080000301F02031D912B5130D1
:101720001E02BC10031D031CBC1400301F02031D4D
:101730009B2B4E301E023C11031D03183C15BC159B
:10174000BC183C1DBC11BC1DA92B4A30A000A10136
:10175000080000301F02031DAF2B4B301E023C124D
:10176000031D031C3C1600301F02031DB92B48301B
:101770001E02BC12031D0318BC163C173C1ABC1EEB
:101780003C133C1FC72B4930A000A10108000030CA
:101790001F02031DCD2B45301E02BC13031D031C6D
:1017A000BC1700301F02031DD72B42301E023D1014
:1017B000031D03183D14BD14BC1B3D1CBD10BD1CF6
:1017C000E52B4830A000A101080000301F02031DD6
:1017D000EB2B41301E023D11031D031C3D15003053
:1017E0001F02031DF52B3E301E02BD11031D031801
:1017F000BD153D163D19BD1D3D123D1E032C473044
:10180000A000A101080000301F02031D092C3D307B
:101810001E02BD12031D031CBD1600301F02031D56
:10182000132C39301E023D13031D03183D17BD173D
:10183000BD1A3D1FBD13BD1F212C4630A000A101C4
:10184000080000301F02031D272C38301E023E10F6
:10185000031D031C3E1400301F02031D312C3530C4
:101860001E02BE10031D0318BE143E153E18BE1CFA
:101870003E113E1D3F2C4530A000A1010800003064
:101880001F02031D452C34301E02BE11031D031C14
:10189000BE1500301F02031D4F2C31301E023E12B8
:1018A000031D03183E16BE16BE193E1EBE12BE1EF6
:1018B0005D2C4430A000A101080000301F02031D70
:1018C000632C30301E023E13031D031C3E170030F4
:1018D0001F02031D6D2C2D301E02BE13031D0318A5
:1018E000BE173F143E1BBE1F3F103F1C7B2C4330D6
:1018F000A000A101080000301F02031D812C2C3024
:101900001E02BF10031D031CBF1400301F02031D65
:101910008B2C2A301E023F11031D03183F15BF15E3
:10192000BF183F1DBF11BF1D992C4230A000A1015F
:10193000080000301F02031D9F2C29301E023F1299
:10194000031D031C3F1600301F02031DA92C273066
:101950001E02BF12031D0318BF163F173F1ABF1EFA
:101960003F133F1FB72C4130A000A10108000030F9
:101970001F02031DBD2C26301E02BF13031D031CB6
:10198000BF1700301F02031DC72C24301E02401059
:10199000031D03184014C014BF1B401CC010C01C02
:1019A000D52C4030A000A101080000301F02031D0B
:1019B000DB2C23301E024011031D031C4015003098
:1019C0001F02031DE52C21301E02C011031D031848
:1019D000C01540164019C01D4012401EF32C3F3068
:1019E000A000A101080000301F02031DF92C2030C7
:1019F0001E02C012031D031CC01600301F02031D6F
:101A0000032D1E301E024013031D03184017C0177C
:101A1000C01A401FC013C01F112D3E30A000A101ED
:101A2000080000301F02031D172D1D301E0241103B
:101A3000031D031C411400301F02031D212D1B3008
:101A40001E02C110031D0318C11441154118C11C09
:101A50004111411D2F2D3D30A000A1010800003093
:101A60001F02031D352D1A301E02C111031D031C58
:101A7000C11500301F02031D3F2D13301E024112FD
:101A8000031D03184116C116C119411EC112C11E02
:101A90004D2D3C30A000A101080000301F02031DA5
:101AA000532D12301E024113031D031C4117003039
:101AB0001F02031D5D2D0F301E02C113031D0318ED
:101AC000C1174214411BC11F4210421C6B2D3B30F9
:101AD000A000A101080000301F02031D712D0E306F
:101AE0001E02C210031D031CC21400301F02031D7E
:101AF0007B2D09301E024211031D03184215C21529
:101B0000C218421DC211C21D892D3A30A000A10188
:101B1000080000301F02031D8F2D08301E024212E4
:101B2000031D031C421600301F02031D992D0630B1
:101B30001E02C212031D0318C2164217421AC21E09
:101B40004213421FA72D3930A000A1010800003028
:101B50001F02031DAD2D12301E02C213031D031CF4
:101B6000C21700301F02031DB72D11301E02431093
:101B7000031D03184314C314C21B431CC310C31C0E
:101B8000C52D3830A000A101080000301F02031D40
:101B9000CB2D10301E024311031D031C43150030D2
:101BA0001F02031DD52D0F301E02C311031D031884
:101BB000C31543164319C31D4312431EE32D37308B
:101BC000A000A101080000301F02031DE92D0E3006
:101BD0001E02C312031D031CC31600301F02031D87
:101BE000F32D0D301E024313031D03184317C317B3
:101BF000C31A431FC313C31F012E3630A000A10117
:101C0000080000301F02031D072E0C301E02441076
:101C1000031D031C441400301F02031D112E0B3042
:101C20001E02C410031D0318C41444154418C41C18
:101C30004411441D1F2E3630A000A10108000030C1
:101C40001F02031D252E05301E020319292E03181D
:101C50002C2E0130A000A101080083160313881464
:101C60008312B401B501B601B701B801B901BA01D7
:101C7000BB01BC01BD01BE01BF01C001C101C20168
:101C8000C301C401C501C601C701C8018A110A16F2
:101C9000C52903179B009C019D0164300313A40018
:101CA000A50103171B080313A000A1018A112E2010
:101CB00083120313260803179C001C0898001808B9
:101CC0000313A000A1016430A200A3018A110A122B
:101CD0001B2083120313240803179C001C089B027B
:101CE0000A300313A400A50103171B080313A00067
:101CF000A1018A110A122E2083120313260803174A
:101D00009D001D08990019080313A000A1010A30C5
:101D1000A200A3018A110A121B20831203132408B4
:101D200003179D001D089B021B089A001808080055
:101D30009201930194019501960197018316031373
:101D4000EF0110308312A4002730A50003171008FC
:101D50000313A000031711080313A1008A112E20FA
:101D6000831203132608031792000313270803178F
:101D70009300120883160313EA0083120317120854
:101D80000313A000031713080313A1001030A200CF
:101D90002730A3008A110A121B2083120313240880
:101DA00003179200031325080317930013089102E9
:101DB00012089002031C9103E8300313A4000330BF
:101DC000A500031710080313A0000317110803133D
:101DD000A1008A110A122E2083120313260803176A
:101DE00094000313270803179500140883160313A0
:101DF000EB008312031714080313A0000317150840
:101E00000313A100E830A2000330A3008A110A12D4
:101E10001B208312031324080317940003132508BF
:101E2000031795001508910214089002031C9103F2
:101E300064300313A400A501031710080313A000C6
:101E4000031711080313A1008A110A122E2083120E
:101E50000313260803179600031327080317970098
:101E6000160883160313EC006C088312A000A1016E
:101E70006430A200A3018A110A121B2083120313EB
:101E80002408031796000313250803179700170863
:101E9000910216089002031C91030A300313A40058
:101EA000A501031710080313A0000317110803135B
:101EB000A1008A110A122E2083120313260883160A
:101EC000EF006F08ED006D088312A000A1010A3039
:101ED000A200A3018A110A121B20831203132408F3
:101EE0008316EF006F08831203179002031C9103FF
:101EF000100883160313EE006A0808008316031304
:101F0000E400E701E801E9018A111921D0308A11C2
:101F10000A122D218316031364088A110A122D2137
:101F20008A110A1226218A110A121921D1308A1126
:101F30000A122D21831203175E108A110A124421FE
:101F400083160313E7008A110A122621831603134E
:101F50006708E8006708E900F030E805680E0F3907
:101F6000E5000F306905E600650808008316E20108
:101F7000E301053083120317D900DA018A119B218E
:101F800006308A150A127E2783160313E2006608BC
:101F9000E30062088312A000A1010A30A200A3019D
:101FA0008A110A121B208312031324088316E200ED
:101FB000630862078312B40005308A150A127E276F
:101FC00083160313E2006608E30062088312A00090
:101FD000A1010A30A200A3018A110A121B20831258
:101FE000031324088316E200630862078312B50016
:101FF00004308A150A127E2783160313E20066084E
:10200000E30062088312A000A1010A30A200A3012C
:102010008A110A121B208312031324088316E2007C
:10202000630862078312B60002308A150A127E27FF
:1020300083160313E2006608E30062088312A0001F
:10204000A1010A30A200A3018A110A121B208312E7
:10205000031324088316E200630862078312B700A3
:1020600001308A150A127E2783160313E2006608E0
:10207000E30062088312A000A1010A30A200A301BC
:102080008A110A121B208312031324088316E2000C
:10209000630862078312B80000308A150A127E278F
:1020A00083160313E2006608E30062088312A000AF
:1020B000A1010A30A200A3018A110A121B20831277
:1020C000031324088316E200630862078312B90031
:1020D00008008316DE000A121921831603135E0816
:1020E0008A110A122D218316031360088A110A121D
:1020F0002D21831603135F088A110A122D218316DE
:10210000031361088A110A122D218A110A1226214D
:10211000063083120317D900DA018A110A129B29AB
:102120008312EF0083165C08DF005D08E000831275
:1021300034088316E10083126F08692083160313A5
:10214000DC0A0319DD0A5C08DF005D08E000831289
:1021500035088316E10083126F088A110A16692078
:1021600083160313DC0A0319DD0A5C08DF005D082F
:10217000E000831236088316E10083126F088A118B
:102180000A16692083160313DC0A0319DD0A5C08AA
:10219000DF005D08E000831237088316E100831238
:1021A0006F088A110A16692083160313DC0A0319C3
:1021B000DD0A5C08DF005D08E00083123808831642
:1021C000E10083126F088A110A166920831603132F
:1021D000DC0A0319DD0A5C08DF005D08E0008312F9
:1021E00039088316E10083126F088A110A166920E4
:1021F00083160313DC0A0319DD0A831247088A15C4
:102200000A12492683120313BC000317190803138B
:10221000BD0003171A080313BE0083165C08DF0015
:102220005D08E00083123C088316E10083126F080A
:102230008A110A16692083160313DC0A0319DD0AC2
:102240005C08DF005D08E00083123D088316E100B2
:1022500083126F088A110A16692083160313DC0A99
:102260000319DD0A5C08DF005D08E00083123E0808
:102270008316E10083126F088A110A166920013063
:10228000831603135C078312BF000030031801306C
:1022900083165D078312C000080083120313EA014E
:1022A000EB01EC01EA01B3143308870064300A1231
:1022B0006C2183120313B31033088700C6308A11D0
:1022C0000A126C21831203138A110A1607197E2938
:1022D000C30A0319C40A01300A126C2103308312A5
:1022E000031344028A110A16031D7829E8304302B9
:1022F00003197C29031C6229C301C40103106A0D60
:10230000EE00A0306E078400831343088000840A27
:10231000440880000A300317D900DA010A129B2111
:1023200083120313C301C401EA0A1E306A028A1130
:102330000A16031D5329EA011E30ED00EA01AF29F8
:1023400003106A0DEE00A1306E07840083130008AD
:10235000EC0784030008EB070318EC0AEA0A6A0892
:102360006D02031DA0296D08A400A5016B08A00043
:102370006C08A1000A122E20831203132608C50040
:102380002708C600C301C4010800881CE5299F0175
:10239000073083169F00871507168312B21732087D
:1023A000860002300317D500D6010A12BD21831220
:1023B0000313B2133208860002300317D500D6018A
:1023C0008A110A12BD216400630083120313D6012F
:1023D000D70156080317E600031357080317E70051
:1023E0008A110A12CC208312031768080313D8003D
:1023F000031769080313D9005808C9005908CA000F
:102400004908BF004A08C000B217320886000F30E2
:102410000317D500D6018A110A12BD2183120313B6
:10242000B21332088600233083160317930002305C
:102430009400023095009601163097000030403825
:1024400098008A110A125A2083120313CD01CE017B
:10245000CF01D001CF01D001CD01CE018A110A16E2
:102460004D2183120313450803179E0003134608EA
:1024700003179F008A110A121623831203172008DC
:102480000313C700031721080313C80046084E02B0
:102490008A110A16031D4E2A45084D020319982A6F
:1024A0000318982A0A121921A2308A110A122D2122
:1024B0008312031351102018511450088A110A1264
:1024C0002D2183120313D1112018D115D11D5110C4
:1024D0004F088A110A122D2183120313D1122018DA
:1024E000D116D11E51108A110A122021A3308A114F
:1024F0000A122D2183120313D1132018D117D11FD3
:10250000511003175E148A110A1244218312031317
:10251000CE0003175E108A110A124421831203139E
:10252000CD000230CF070318D00A8A110A16462AB6
:102530000A122621031083120313500CCA004F0CF9
:10254000C9004A08C80039304907C7000318C80A3B
:10255000CF01D001CD01CE010830C702031CC80352
:10256000003046028A110A16031DB82A08304502B7
:10257000D210031D031CD21400304602031DC22AD0
:10258000033045025211031D03185215D215D218FB
:10259000521DD211D21DD02A3230C700C801832B60
:1025A00000304602031DD62A0B3045025212031D8D
:1025B000031C521600304602031DE02A0930450272
:1025C000D212031D0318D2165217521AD21E5213DA
:1025D000521FEE2A3330C700C801832B0030460259
:1025E000031DF42A0E304502D213031D031CD2171B
:1025F00000304602031DFE2A0C3045025310031D15
:1026000003185314D314D21B531CD310D31C0C2BFC
:102610003430C700C801832B00304602031D122B43
:10262000113045025311031D031C5315003046029F
:10263000031D1C2B0F304502D311031D0318D315A6
:1026400053165319D31D5312531E2A2B3530C7006E
:10265000C801832B00304602031D302B1430450285
:10266000D312031D031CD31600304602031D3A2B60
:10267000123045025313031D03185317D317D31AEF
:10268000531FD313D31F482B3630C700C801832BE9
:1026900000304602031D4E2B173045025410031D17
:1026A000031C541400304602031D582B15304502FC
:1026B000D410031D0318D41454155418D41C5411E9
:1026C000541D662B3730C700C801832B00304602EB
:1026D000031D6C2B1A304502D411031D031CD415A5
:1026E00000304602031D762B183045025412031D9C
:1026F00003185416D416D419541ED412D41E832B86
:102700003830C700C8014208CA0002304102C9007F
:10271000031CCA0348084A02031D902B47084902BC
:1027200054130319952B031854174208CC00023098
:102730004107CB000318CC0A48084C02031DA22B0A
:1027400047084B02D4130319A72B031CD4175510A9
:10275000541FD41B5514551CDB2B8A150A12B6279F
:10276000831203133F088316DC008312400883168C
:10277000DD00A0308A110A16902083120317E001B1
:10278000E10103133F080317E20003134008031796
:10279000E3008A110A12F120831203134708C100D3
:1027A0004808C200410842048A110A16031DDB2BA7
:1027B0000130C100C20100304602031DE12B03308D
:1027C00045020319E52B031C062D4708031790004B
:1027D00003134808031791008A150A1298268312DA
:1027E0000313BA0083166B088312BB0083166C08B0
:1027F0008312BC0083166D088312BD0083166E0819
:102800008312BE008A110A125F2230308312031332
:102810003C07DA003216320886005A0E0F39E20001
:1028200062088A110A12E521831203135A088A11D9
:102830000A12E52104308A110A126C213030831209
:1028400003133D07DB003216320886005B0E0F399A
:10285000E30063088A110A12E521831203135B085F
:102860008A110A12E52104308A110A126C213030D3
:10287000831203133E07DC003216320886005C0E1A
:102880000F39E40064088A110A12E5218312031348
:102890005C088A110A12E52104308A110A126C219F
:1028A0002330831603179300023094000230950002
:1028B0009601193097000030403898008A110A12AA
:1028C0005A20831203134508031790000313460888
:1028D000031791008A150A12982683120313BA006F
:1028E00083166B088312BB0083166C088312BC002E
:1028F00083166D088312BD0083166E088312BE0016
:102900000317D00101308A110A123B2230308312A2
:1029100003133A07DD003216320886005D0E0F39C8
:10292000E50065088A110A12E521831203135D0888
:102930008A110A12E52104308A110A126C21303002
:10294000831203133B07DE003216320886005E0E48
:102950000F39E60066088A110A12E5218312031373
:102960005E088A110A12E52104308A110A126C21CC
:102970003030831203133C07DF0032163208860022
:102980005F0E0F39E70067088A110A12E5218312EA
:1029900003135F088A110A12E52104308A110A1212
:1029A0006C213030831203133D07E00032163208E9
:1029B0008600600E0F39E80068088A110A12E521C6
:1029C0008312031360088A110A12E52104308A1168
:1029D0000A126C213030831203133E07E1003216D5
:1029E00032088600610E0F39E90069088A110A125F
:1029F000E5218312031361088A110A12E5210430CC
:102A00008A110A126C218A110A163F2D02304702E0
:102A1000A000003048022004031D242D0A125F226A
:102A2000233083160317930002309400083095007A
:102A300096010D3097000030403898008A110A1234
:102A40005A208A110A163F2D01304702A00000309B
:102A500048022004031D3F2D0A125F2223308316F3
:102A6000031793000230940008309500960104305B
:102A700097000030403898008A110A125A2014300A
:102A800083120317D500D6018A110A12BD218A11BB
:042A90000A162E2ACA
:02400E007A3FF7
:00000001FF
