:020000040000FA
:100000000A128A11522882074F347534743420340E
:1000100049344E344634213482074F3475347434B5
:100020002034533455345034213482074F344B3408
:10003000820763346D341030A8000310A40DA50DA1
:100040000310A00DA10D031C2B282308A5072208CF
:10005000A4070318A50AA80B1D2808001030A80043
:10006000A201A3010310A60DA70D0310A00DA10D61
:10007000A20DA30D23082502031D402822082402F7
:100080000319442803184B282508A3022408A202B8
:10009000031CA3032614A80B322808008A000313AC
:1000A0002A0882009F01073083169F0007309C00BA
:1000B00095283908BD003A08BE00BF017C28031707
:1000C0003C080313AB0003173F083B070313AA00C8
:1000D0000318AB0A2B132B084E2083120313A00026
:1000E000031737080313AA00031738088A110A12E6
:1000F0004E2083120317BF0A3F083D020313A000DE
:1001000003173E08031320048A110A12031D5F28F7
:1001100008008715071628308312940020308316B4
:1001200091003130930094010800892083168601E4
:1001300006130610861006110313871007158A117F
:100140000A123E2983120313AF002F080319080077
:1001500001302F02031DB528831203130A30A000BB
:100160000A128A11A00BB2280800AF0383120313EE
:100170000630A0000A128A11A00BBC280000000063
:10018000B001CC28831203130D30A0000A128A118B
:10019000A00BC8280000B00A30082F02031DC22897
:1001A0000800B501B601E728831203130630A0004A
:1001B000A530A1000A128A11A10BDA280A128A11AD
:1001C000A00BD82800000317B50A0319B60A350892
:1001D00033020313A000031736083402031320046C
:1001E000031DD4280800EE01EF010F298312031329
:1001F0005E30A000FD30A1000330A2000A128A1177
:10020000A20BFE280A128A11A10BFC280A128A11DD
:10021000A00BFA2800008316EE0A0319EF0A6E08F5
:100220006C028312A00083166F086D0283122004F3
:10023000031DF628080083120313B1003210311891
:10024000321432088600B210B118B2143208860097
:1002500032113119321532088600B211B119B215B6
:1002600032088600B2163208860000000000000046
:1002700000000000B2123208860008008312AC01B0
:10028000482AEB0002306B0203194829031C492954
:10029000EB016B080319003401306B020319403481
:1002A00002306B020319103403306B02031950340F
:1002B0000800831203132008AD00321632088600AE
:1002C0002D0E0F39AE002E088A110A121B2183123F
:1002D00003132D088A110A121B2104308A110A12F5
:1002E000A228E6006608412183160313E800680887
:1002F00067078312AC0080302C048316E900831258
:100300003212320886008316690E0F39EA006A0835
:100310008A110A121B218316031369088A110A1213
:100320001B2104308A110A12A228013083160313FC
:10033000E40083123212320886008316640E0F39ED
:10034000E50065081B218316031364088A110A124D
:100350001B2104308A110A12A220B4308A110A1219
:10036000A22832123208860019300317B300B401F4
:10037000D12003308A110A121B2105308312031782
:10038000B300B4018A110A12D12003308A110A1273
:100390001B210A308A110A12A22003308A110A1284
:1003A0001B2104308A110A12A22002308A110A127B
:1003B0001B2104308A110A12A2202830831603134D
:1003C000DC00831232123208860083165C0E0F396D
:1003D000DD005D088A110A121B21831603135C08D5
:1003E0008A110A121B2104308A110A12A2201C3021
:1003F00083160313DE00831232123208860083163E
:100400005E0E0F39DF005F088A110A121B21831666
:1004100003135E088A110A121B2104308A110A1282
:10042000A2200C3083160313E0008312321232082C
:1004300086008316600E0F39E10061088A110A12E6
:100440001B218316031360088A110A121B21043032
:100450008A110A12A220063083160313E2008312C7
:100460003212320886008316620E0F39E3006308E9
:100470008A110A121B218316031362088A110A12B9
:100480001B2104308A110A12A2208A110A1295290E
:10049000B1218A150A12E92E03306D02031D522A7A
:1004A000E8306C0203195A2A031C5A2A0230EE0063
:1004B000EF01080001306D02031D602A70306C02EC
:1004C00003179010031D031C9014013003136D02D9
:1004D000031D6C2A6B306C0203171011031D0318E7
:1004E000101590159018101D9011901D7C2A9530B4
:1004F0000313EE00EF010800013003136D02031D2A
:10050000832A6A306C0203171012031D031C101695
:10051000013003136D02031D8F2A65306C0203172F
:100520009012031D031890161017101A901E101326
:10053000101F9F2A94300313EE00EF0108000130D2
:1005400003136D02031DA62A64306C020317901377
:10055000031D031C9017013003136D02031DB22A03
:100560005F306C0203171110031D0318111491144E
:10057000901B111C9110911CC22A93300313EE00A2
:10058000EF010800013003136D02031DC92A5E301C
:100590006C0203171111031D031C11150130031305
:1005A0006D02031DD52A59306C0203179111031DEA
:1005B0000318911511161119911D1112111EE52A1A
:1005C00092300313EE00EF010800013003136D02B7
:1005D000031DEC2A58306C0203179112031D031CF3
:1005E0009116013003136D02031DF82A53306C027B
:1005F00003171113031D031811179117911A111FD7
:100600009113911F082B91300313EE00EF010800A6
:10061000013003136D02031D0F2B52306C020317C0
:100620001210031D031C1214013003136D02031D6D
:100630001B2B4C306C0203179210031D03189214ED
:1006400012151218921C1211121D2B2B903003132D
:10065000EE00EF010800013003136D02031D322B81
:100660004B306C0203179211031D031C92150130CD
:1006700003136D02031D3E2B46306C02031712124A
:10068000031D0318121692169219121E9212921E30
:100690004E2B8F300313EE00EF01080001300313DF
:1006A0006D02031D552B45306C0203171213031DF9
:1006B000031C1217013003136D02031D612B403020
:1006C0006C0203179213031D031892171314121BC5
:1006D000921F1310131C712B8E300313EE00EF01C9
:1006E0000800013003136D02031D782B3F306C02AC
:1006F00003179310031D031C9314013003136D02A1
:10070000031D842B3A306C0203171311031D0318C9
:10071000131593159318131D9311931D942B8D305E
:100720000313EE00EF010800013003136D02031DF7
:100730009B2B39306C0203171312031D031C131675
:10074000013003136D02031DA72B36306C02031713
:100750009312031D031893161317131A931E1313E2
:10076000131FB72B8C300313EE00EF01080001308C
:1007700003136D02031DBE2B35306C020317931358
:10078000031D031C9317013003136D02031DCA2BB5
:1007900032306C0203171410031D03181414941440
:1007A000931B141C9410941CDA2B8B300313EE0053
:1007B000EF010800013003136D02031DE12B3130FE
:1007C0006C0203171411031D031C141501300313CD
:1007D0006D02031DED2B2E306C0203179411031DC7
:1007E0000318941514161419941D1412141EFD2BBD
:1007F0008A300313EE00EF010800013003136D028D
:10080000031D042C2D306C0203179412031D031CCE
:100810009416013003136D02031D102C29306C0255
:1008200003171413031D031814179417941A141F95
:100830009413941F202C89300313EE00EF0108005D
:10084000013003136D02031D272C28306C0203179F
:100850001510031D031C1514013003136D02031D35
:10086000332C26306C0203179510031D03189514C2
:1008700015151518951C1511151D432C88300313DB
:10088000EE00EF010800013003136D02031D4A2C36
:1008900025306C0203179511031D031C95150130BB
:1008A00003136D02031D562C20306C020317151222
:1008B000031D0318151695169519151E9512951EEC
:1008C000662C87300313EE00EF010800013003139C
:1008D0006D02031D6D2C1F306C0203171513031DD1
:1008E000031C1517013003136D02031D792C1C30F6
:1008F0006C0203179513031D031895171614151B87
:10090000951F1610161C892C86300313EE00EF017C
:100910000800013003136D02031D902C1B306C0284
:1009200003179610031D031C9614013003136D0268
:10093000031D9C2C17306C0203171611031D03189E
:10094000161596159618161D9611961DAC2C853009
:100950000313EE00EF010800013003136D02031DC5
:10096000B32C16306C0203171612031D031C161647
:10097000013003136D02031DBF2C12306C020317EC
:100980009612031D031896161617161A961E16139E
:10099000161FCF2C84300313EE00EF010800013046
:1009A00003136D02031DD62C11306C02031796132E
:1009B000031D031C9617013003136D02031DE22C67
:1009C0000D306C0203171710031D0318171497142A
:1009D000961B171C9710971CF22C83300313EE0004
:1009E000EF010800013003136D02031DF92C0C30D8
:1009F0006C0203171711031D031C17150130031395
:100A00006D02031D052D0A306C0203179711031D9B
:100A10000318971517161719971D1712171E152D5E
:100A200082300313EE00EF010800013003136D0262
:100A3000031D1C2D09306C0203179712031D031CA4
:100A40009716013003136D02031D282D07306C0229
:100A500003171713031D031817179717971A171F54
:100A60009713971F382D81300313EE00EF01080014
:100A7000013003136D02031D3F2D06306C02031776
:100A80001810031D031C1814013003136D02031DFD
:100A90004B2D04306C0203179810031D0318981493
:100AA00018151818981C1811181D5B2D8030031389
:100AB000EE00EF010800013003136D02031D622DEB
:100AC00003306C0203179811031D031C98150130A5
:100AD00003136D02031D6E2D01306C0203171812F3
:100AE000031D0318181698169819181E9812981EA8
:100AF0007E2D7F300313EE00EF0108000130031359
:100B00006D02031D852D00306C0203171813031DA1
:100B1000031C1817003003136D02031D912DFE30C6
:100B20006C0203179813031D031898171914181B48
:100B3000981F1910191CA12D7E300313EE00EF0130
:100B40000800003003136D02031DA82DFD306C0258
:100B500003179910031D031C9914003003136D0231
:100B6000031DB42DFB306C0203171911031D03186C
:100B7000191599159918191D9911991DC42D7D30B4
:100B80000313EE00EF010800003003136D02031D94
:100B9000CB2DFA306C0203171912031D031C191612
:100BA000003003136D02031DD72DF8306C020317BC
:100BB0009912031D031899161917191A991E19135A
:100BC000191FE72D7C300313EE00EF010800003001
:100BD00003136D02031DEE2DF7306C0203179913FA
:100BE000031D031C9917003003136D02031DFA2D1A
:100BF000F5306C0203171A10031D03181A149A1407
:100C0000991B1A1C9A109A1C0A2E7B300313EE00B3
:100C1000EF010800003003136D02031D112EF430A4
:100C20006C0203171A11031D031C1A15003003135D
:100C30006D02031D1D2EF2306C0203179A11031D65
:100C400003189A151A161A199A1D1A121A1E2D2E01
:100C50007A300313EE00EF010800003003136D0239
:100C6000031D342EF1306C0203179A12031D031C6E
:100C70009A16003003136D02031D402EEF306C02F4
:100C800003171A13031D03181A179A179A1A1A1F13
:100C90009A139A1F502E79300313EE00EF010800CB
:100CA000003003136D02031D572EEE306C02031744
:100CB0001B10031D031C1B14003003136D02031DC6
:100CC000632EE9306C0203179B10031D03189B145D
:100CD0001B151B189B1C1B111B1D732E7830031337
:100CE000EE00EF010800003003136D02031D7A2EA1
:100CF000E8306C0203179B11031D031C9B15003089
:100D000003136D02031D862EE4306C0203171B12C1
:100D1000031D03181B169B169B191B1E9B129B1E63
:100D2000962E77300313EE00EF0108000030031316
:100D30006D02031D9D2EE3306C0203171B13031D70
:100D4000031C1B17003003136D02031DA92EDF3097
:100D50006C0203179B13031D03189B171C141B1B0A
:100D60009B1F1C101C1CB92E76300313EE00EF01E4
:100D70000800003003136D02031DC02EDE306C022C
:100D800003179C10031D031C9C14003003136D02F9
:100D9000031DCC2EDA306C0203171C11031D03183F
:100DA0001C159C159C181C1D9C119C1DDC2E75305F
:100DB0000313EE00EF010800003003136D02031D62
:100DC000E32ED9306C0203171C12031D031C1C16E2
:100DD000003003136D02031DEF2ED6306C02031793
:100DE0009C12031D03189C161C171C1A9C1E1C1316
:100DF0001C1FFF2E74300313EE00EF0108000030BB
:100E000003136D02031D062FD5306C0203179C13CC
:100E1000031D031C9C17003003136D02031D122FCA
:100E2000D2306C0203171D10031D03181D149D14EE
:100E30009C1B1D1C9D109D1C222F73300313EE0064
:100E4000EF010800003003136D02031D292FD1307C
:100E50006C0203171D11031D031C1D150030031325
:100E60006D02031D352FCD306C0203179D11031D3C
:100E700003189D151D161D199D1D1D121D1E452FA4
:100E800072300313EE00EF010800003003136D020F
:100E9000031D4C2FCC306C0203179D12031D031C45
:100EA0009D16003003136D02031D582FC8306C02CD
:100EB00003171D13031D03181D179D179D1A1D1FD2
:100EC0009D139D1F682F71300313EE00EF01080082
:100ED000003003136D02031D6F2FC7306C02031720
:100EE0001E10031D031C1E14003003136D02031D8E
:100EF0007B2FC3306C0203179E10031D03189E1432
:100F00001E151E189E1C1E111E1D8B2F70300313E4
:100F1000EE00EF010800003003136D02031D922F55
:100F2000C2306C0203179E11031D031C9E15003076
:100F300003136D02031D9E2FBF306C0203171E1298
:100F4000031D03181E169E169E191E1E9E129E1E1F
:100F5000AE2F6F300313EE00EF01080000300313D3
:100F60006D02031DB52FBE306C0203171E13031D47
:100F7000031C1E17003003136D02031DC12FB83070
:100F80006C0203179E13031D03189E171F141E1BCC
:100F90009E1F1F101F1CD12F6E300313EE00EF0198
:100FA0000800B73003136C02A00000306D0220046B
:100FB000031DDE2F6D30EE00EF010800B6306C022D
:100FC000A00000306D022004031DEA2F6C30EE00FB
:100FD000EF010800B5306C02A00000306D02200463
:100FE000031DF62F6B30EE00EF010800B4306C02E9
:100FF000A00000306D0220048A15031D03286A300A
:10100000EE00EF010800B3306C02A00000306D026A
:101010002004031D0F286930EE00EF010800B230F4
:101020006C02A00000306D022004031D1B286830F4
:10103000EE00EF010800B1306C02A00000306D023C
:101040002004031D27286730EE00EF010800B030B0
:101050006C02A00000306D022004031D33286630AE
:10106000EE00EF010800AF306C02A00000306D020E
:101070002004031D3F286630EE00EF010800AE306B
:101080006C02A00000306D022004031D4B28653067
:10109000EE00EF01080000306D02031D5128AD3055
:1010A0006C020317A011031D031CA01500300313CD
:1010B0006D02031D5D28AB306C0203172012031D67
:1010C00003182016A016A019201EA012A01E6D281D
:1010D00064300313EE00EF010800003003136D02CB
:1010E000031D7428AA306C0203172013031D031C70
:1010F0002017003003136D02031D8028A7306C02F7
:101100000317A013031D0318A0172114201BA01FF1
:101110002110211C902863300313EE00EF0108001A
:10112000003003136D02031D9728A6306C020317CD
:10113000A110031D031CA114003003136D02031D35
:10114000A328A3306C0203172111031D03182115D6
:10115000A115A118211DA111A11DB32862300313EF
:10116000EE00EF010800003003136D02031DBA28E2
:10117000A2306C0203172112031D031C211600303C
:1011800003136D02031DC6289F306C020317A112C2
:10119000031D0318A1162117211AA11E2113211FB7
:1011A000D62861300313EE00EF010800003003136E
:1011B0006D02031DDD289E306C020317A113031D71
:1011C000031CA117003003136D02031DE9289B3097
:1011D0006C0203172210031D03182214A214A11B72
:1011E000221CA210A21CF92860300313EE00EF01AC
:1011F0000800003003136D02031D00299A306C02B1
:1012000003172211031D031C2215003003136D0266
:10121000031D0C2997306C020317A211031D03183C
:10122000A21522162219A21D2212221E1C295F308D
:101230000313EE00EF010800003003136D02031DDD
:10124000232996306C020317A212031D031CA21659
:10125000003003136D02031D2F2993306C02031716
:101260002213031D03182217A217A21A221FA2136A
:10127000A21F3F295E300313EE00EF01080000308B
:1012800003136D02031D462992306C0203172310CD
:10129000031D031C2314003003136D02031D522988
:1012A0008F306C020317A310031D0318A31423151A
:1012B0002318A31C2311231D62295D300313EE00A4
:1012C000EF010800003003136D02031D69298E3001
:1012D0006C020317A311031D031CA3150030031395
:1012E0006D02031D75298B306C0203172312031D39
:1012F00003182316A316A319231EA312A31E8529C0
:101300005C300313EE00EF010800003003136D02A0
:10131000031D8C298A306C0203172313031D031C41
:101320002317003003136D02031D982988306C02C7
:101330000317A313031D0318A3172414231BA31FB0
:101340002410241CA8295B300313EE00EF010800D1
:10135000003003136D02031DAF2987306C020317A1
:10136000A410031D031CA414003003136D02031DFD
:10137000BB2984306C0203172411031D03182415A4
:10138000A415A418241DA411A41DCB295A3003139D
:10139000EE00EF010800003003136D02031DD22997
:1013A00083306C0203172412031D031C2416003023
:1013B00003136D02031DDE2980306C020317A41293
:1013C000031D0318A4162417241AA41E2413241F73
:1013D000EE2959300313EE00EF010800003003132B
:1013E0006D02031DF5297F306C020317A413031D42
:1013F000031CA417003003136D02031D012A7C3067
:101400006C0203172510031D03182514A514A41B33
:10141000251CA510A51C112A58300313EE00EF015E
:101420000800003003136D02031D182A7B306C0284
:1014300003172511031D031C2515003003136D022E
:10144000031D242A79306C020317A511031D03180C
:10145000A51525162519A51D2512251E342A573038
:101460000313EE00EF010800003003136D02031DAB
:101470003B2A78306C020317A512031D031CA51626
:10148000003003136D02031D472A76306C020317E8
:101490002513031D03182517A517A51A251FA51326
:1014A000A51F572A56300313EE00EF010800003045
:1014B00003136D02031D5E2A75306C02031726109C
:1014C000031D031C2614003003136D02031D6A2A3A
:1014D00072306C020317A610031D0318A6142615FC
:1014E0002618A61C2611261D7A2A55300313EE0055
:1014F000EF010800003003136D02031D812A7130D3
:101500006C020317A611031D031CA615003003135C
:101510006D02031D8D2A6E306C0203172612031D07
:1015200003182616A616A619261EA612A61E9D2A62
:1015300054300313EE00EF010800003003136D0276
:10154000031DA42A6D306C0203172613031D031C10
:101550002617003003136D02031DB02A6A306C0297
:101560000317A613031D0318A6172714261BA61F6F
:101570002710271CC02A53300313EE00EF01080088
:10158000003003136D02031DC72A69306C02031774
:10159000A710031D031CA714003003136D02031DC5
:1015A000D32A66306C0203172711031D0318271571
:1015B000A715A718271DA711A71DE32A523003134B
:1015C000EE00EF010800003003136D02031DEA2A4C
:1015D00065306C0203172712031D031C2716003009
:1015E00003136D02031DF62A62306C020317A71263
:1015F000031D0318A7162717271AA71E2713271F2F
:10160000062B51300313EE00EF01080000300313E6
:101610006D02031D0D2B61306C020317A713031D10
:10162000031CA717003003136D02031D192B5E3036
:101630006C0203172810031D03182814A814A71BF5
:10164000281CA810A81C292B50300313EE00EF0112
:101650000800003003136D02031D302B5D306C0257
:1016600003172811031D031C2815003003136D02F6
:10167000031D3C2B5A306C020317A811031D0318DD
:10168000A81528162819A81D2812281E4C2B4F30E3
:101690000313EE00EF010800003003136D02031D79
:1016A000532B57306C020317A812031D031CA816F6
:1016B000003003136D02031D5F2B54306C020317BF
:1016C0002813031D03182817A817A81A281FA813E2
:1016D000A81F6F2B4E300313EE00EF0108000030FF
:1016E00003136D02031D762B51306C020317291072
:1016F000031D031C2914003003136D02031D822BEC
:101700004E306C020317A910031D0318A9142915E4
:101710002918A91C2911291D922B4D300313EE0005
:10172000EF010800003003136D02031D992B4D30AB
:101730006C020317A911031D031CA9150030031324
:101740006D02031DA52B4A306C0203172912031DDD
:1017500003182916A916A919291EA912A91EB52B05
:101760004C300313EE00EF010800003003136D024C
:10177000031DBC2B57306C0203172913031D031CD8
:101780002917003003136D02031DC82B54306C025F
:101790000317A913031D0318A9172A14291BA91F2E
:1017A0002A102A1CD82B4B300313EE00EF0108003F
:1017B000003003136D02031DDF2B51306C02031741
:1017C000AA10031D031CAA14003003136D02031D8D
:1017D000EB2B4E306C0203172A11031D03182A1538
:1017E000AA15AA182A1DAA11AA1DFB2B4A300313F9
:1017F000EE00EF010800003003136D02031D022C00
:101800004B306C0203172A12031D031C2A160030EA
:1018100003136D02031D0E2C48306C020317AA122D
:10182000031D0318AA162A172A1AAA1E2A132A1FEA
:101830001E2C49300313EE00EF01080000300313A3
:101840006D02031D252C45306C020317AA13031DDE
:10185000031CAA17003003136D02031D312C423004
:101860006C0203172B10031D03182B14AB14AA1BB7
:101870002B1CAB10AB1C412C48300313EE00EF01C6
:101880000800003003136D02031D482C41306C0228
:1018900003172B11031D031C2B15003003136D02BE
:1018A000031D542C3E306C020317AB11031D0318AB
:1018B000AB152B162B19AB1D2B122B1E642C47308E
:1018C0000313EE00EF010800003003136D02031D47
:1018D0006B2C3D306C020317AB12031D031CAB16BF
:1018E000003003136D02031D772C39306C0203178F
:1018F0002B13031D03182B17AB17AB1A2B1FAB139E
:10190000AB1F872C46300313EE00EF0108000030B8
:1019100003136D02031D8E2C38306C0203172C103C
:10192000031D031C2C14003003136D02031D9A2C9D
:1019300035306C020317AC10031D0318AC142C15C2
:101940002C18AC1C2C112C1DAA2C45300313EE00B6
:10195000EF010800003003136D02031DB12C343079
:101960006C020317AC11031D031CAC1500300313EC
:101970006D02031DBD2C31306C0203172C12031DA8
:1019800003182C16AC16AC192C1EAC12AC1ECD2CA8
:1019900044300313EE00EF010800003003136D0222
:1019A000031DD42C30306C0203172C13031D031CB1
:1019B0002C17003003136D02031DE02C2D306C0238
:1019C0000317AC13031D0318AC172D142C1BAC1FED
:1019D0002D102D1CF02C43300313EE00EF010800F6
:1019E000003003136D02031DF72C2C306C0203171B
:1019F000AD10031D031CAD14003003136D02031D55
:101A0000032D2A306C0203172D11031D03182D1509
:101A1000AD15AD182D1DAD11AD1D132D42300313A5
:101A2000EE00EF010800003003136D02031D1A2DB4
:101A300029306C0203172D12031D031C2D160030D4
:101A400003136D02031D262D27306C020317AD1200
:101A5000031D0318AD162D172D1AAD1E2D132D1FA6
:101A6000362D41300313EE00EF0108000030031360
:101A70006D02031D3D2D26306C020317AD13031DAF
:101A8000031CAD17003003136D02031D492D2430D4
:101A90006C0203172E10031D03182E14AE14AD1B79
:101AA0002E1CAE10AE1C592D40300313EE00EF017A
:101AB0000800003003136D02031D602D23306C02FB
:101AC00003172E11031D031C2E15003003136D0286
:101AD000031D6C2D21306C020317AE11031D03187A
:101AE000AE152E162E19AE1D2E122E1E7C2D3F3039
:101AF0000313EE00EF010800003003136D02031D15
:101B0000832D20306C020317AE12031D031CAE168A
:101B1000003003136D02031D8F2D1E306C0203175E
:101B20002E13031D03182E17AE17AE1A2E1FAE1359
:101B3000AE1F9F2D3E300313EE00EF010800003072
:101B400003136D02031DA62D1D306C0203172F1009
:101B5000031D031C2F14003003136D02031DB22D4F
:101B60001B306C020317AF10031D0318AF142F15A1
:101B70002F18AF1C2F112F1DC22D3D300313EE0067
:101B8000EF010800003003136D02031DC92D1A3048
:101B90006C020317AF11031D031CAF1500300313B4
:101BA0006D02031DD52D13306C0203172F12031D78
:101BB00003182F16AF16AF192F1EAF12AF1EE52D4B
:101BC0003C300313EE00EF010800003003136D02F8
:101BD000031DEC2D12306C0203172F13031D031C81
:101BE0002F17003003136D02031DF82D0F306C0208
:101BF0000317AF13031D0318AF1730142F1BAF1FAC
:101C00003010301C082E3B300313EE00EF010800AB
:101C1000003003136D02031D0F2E0E306C020317EC
:101C2000B010031D031CB014003003136D02031D1C
:101C30001B2E09306C0203173011031D03183015D9
:101C4000B015B018301DB011B01D2B2E3A30031353
:101C5000EE00EF010800003003136D02031D322E69
:101C600008306C0203173012031D031C30160030BD
:101C700003136D02031D3E2E06306C020317B012D3
:101C8000031D0318B0163017301AB01E3013301F62
:101C90004E2E39300313EE00EF010800003003131D
:101CA0006D02031D552E12306C020317B013031D75
:101CB000031CB017003003136D02031D612E113099
:101CC0006C0203173110031D03183114B114B01B3B
:101CD000311CB110B11C712E38300313EE00EF012E
:101CE0000800003003136D02031D782E10306C02C3
:101CF00003173111031D031C3115003003136D024E
:101D0000031D842E0F306C020317B111031D03183D
:101D1000B11531163119B11D3112311E942E3730E3
:101D20000313EE00EF010800003003136D02031DE2
:101D30009B2E0E306C020317B112031D031CB1164B
:101D4000003003136D02031DA72E0D306C02031724
:101D50003113031D03183117B117B11A311FB11315
:101D6000B11FB72E36300313EE00EF01080000302C
:101D700003136D02031DBE2E0C306C0203173210CC
:101D8000031D031C3214003003136D02031DCA2E01
:101D90000B306C020317B210031D0318B214321576
:101DA0003218B21C3211321DDA2E36300313EE0017
:101DB000EF010800003003136D02031DE12E053012
:101DC0006C020319E52E0318E82E0130EE00EF0136
:101DD00008008316031388148312B401B501B601F9
:101DE000B701B801B901BA01BB01BC01BD01BE0117
:101DF0008A110A166028E900EA01EB016430A400A8
:101E0000A5016908A000A1018A112E2083120313E5
:101E10002608EA006A08E6006608A000A10164300E
:101E2000A200A3018A110A121B20831203132408A3
:101E3000EA006A08E9020A30A400A5016908A000C6
:101E4000A1018A110A122E20831203132608EB0027
:101E50006B08E7006708A000A1010A30A200A301F7
:101E60008A110A121B20831203132408EB006B084B
:101E7000E9026908E80066080800DF01E001E10105
:101E8000E201E301E401E5011030A4002730A500E0
:101E90005D08A0005E08A1008A112E2083120313A2
:101EA0002608DF002708E0005F08D8005F08A000D0
:101EB0006008A1001030A2002730A3008A110A1286
:101EC0001B20831203132408DF002508E0006008AC
:101ED000DE025F08DD02031CDE03E830A4000330ED
:101EE000A5005D08A0005E08A1008A110A122E203C
:101EF000831203132608E1002708E2006108D900D5
:101F00006108A0006208A100E830A2000330A3002D
:101F10008A110A121B20831203132408E1002508EA
:101F2000E2006208DE026108DD02031CDE036430A9
:101F3000A400A5015D08A0005E08A1008A110A1294
:101F40002E20831203132608E3002708E400630809
:101F5000DA005A08A000A1016430A200A3018A118E
:101F60000A121B20831203132408E3002508E4004F
:101F70006408DE026308DD02031CDE030A30A400ED
:101F8000A5015D08A0005E08A1008A110A122E209A
:101F9000831203132608E5006508DB005B08A00038
:101FA000A1010A30A200A3018A110A121B20831288
:101FB00003132408E5006508DD02031CDE035D0849
:101FC000DC005808080083120313D301D401D501A3
:101FD000D301B3143308870064308A11A22083121E
:101FE0000313B31033088700E6308A110A12A220C7
:101FF000831203138A110A1607191628B90A03193E
:10200000BA0A01300A12A2200330831203133A02E3
:102010008A110A16031D0E28E83039020319142804
:102020008A150A12031CF82FB901BA010310530DC7
:10203000D700A03057078400831339088000840A32
:102040003A0880000A300317B300B4018A110A125B
:10205000D12083120313B901BA01D30A1E305302EF
:102060008A150A12031DE92FD3011E30D600D301B1
:102070008A110A164A280310530DD700A1305707BA
:10208000840083130008D50784030008D4070318CD
:10209000D50AD30A53085602031D3B285608A4004C
:1020A000A5015408A0005508A1000A122E20831291
:1020B00003132608BB002708BC00B901BA010800B9
:1020C000B217320886000F308316EC00ED010A12B9
:1020D000F32083120313B21332088600593003171A
:1020E000B7000130B8000230B900BA011630BB00A9
:1020F00000304038BC008A110A1259208A150A1291
:10210000E327831203133B08EC003C08ED008A111F
:102110000A124C22831203136E08BD006F08BE0022
:1021200000303E028A110A16031D982803303D0232
:1021300003199C28031CE4293D08DD003E08DE004D
:102140008A150A123D2783120313B4005908B500FB
:102150005A08B6005B08B7005C08B8003D088A154D
:102160000A12FB2683120313B6006708B70068083B
:10217000B8008A110A1295213030831203133407F4
:10218000BF003216320886003F0E0F39C9004908D9
:102190008A110A121B21831203133F088A110A12A3
:1021A0001B2104308A110A12A2203030831203133B
:1021B0003507C000321632088600400E0F39CA00BB
:1021C0004A088A110A121B218312031340088A113C
:1021D0000A121B2104308A110A12A2203030831205
:1021E00003133607C100321632088600410E0F393C
:1021F000CB004B088A110A121B21831203134108DA
:102200008A110A121B2104308A110A12A2203030CE
:10221000831203133707C200321632088600420EBB
:102220000F39CC004C088A110A121B2183120313A8
:1022300042088A110A121B2104308A110A12A220B4
:102240003030831203133807C30032163208860079
:10225000430E0F39CD004D088A110A121B2183123B
:10226000031343088A110A121B2104308A110A122F
:10227000A220593083120317B7000130B800023092
:10228000B900BA011930BB0000304038BC008A11D7
:102290000A125920831203133B08DD003C08DE00BC
:1022A0008A150A123D2783120313B4005908B5009A
:1022B0005A08B6005B08B7005C08B8008316E7014F
:1022C00001308A110A12712130308312031334074E
:1022D000C400321632088600440E0F39CE004E0874
:1022E0008A110A121B218312031344088A110A124D
:1022F0001B2104308A110A12A220303083120313EA
:102300003507C500321632088600450E0F39CF005A
:102310004F088A110A121B218312031345088A11E0
:102320000A121B2104308A110A12A22030308312B3
:1023300003133607C600321632088600460E0F39E0
:10234000D00050088A110A121B2183120313460879
:102350008A110A121B2104308A110A12A22030307D
:10236000831203133707C700321632088600470E60
:102370000F39D10051088A110A121B21831203134D
:1023800047088A110A121B2104308A110A12A2205E
:102390003030831203133807C80032163208860023
:1023A000480E0F39D20052088A110A121B218312DB
:1023B000031348088A110A121B2104308A110A12D9
:1023C000A2208A110A161D2A02303D02A000003008
:1023D0003E022004031D022A0A129521593083125D
:1023E0000317B7000130B8000830B900BA010D304A
:1023F000BB0000304038BC008A110A1259208A11F3
:102400000A161D2A01303D02A00000303E022004C1
:10241000031D1D2A0A129521593083120317B70094
:102420000130B8000830B900BA010430BB000030F8
:102430004038BC008A110A1259200A30831603134F
:10244000EC00ED018A110A12F3208A110A167E2887
:02400E007A3FF7
:00000001FF
