:020000040000FA
:100000000428250888000800A4018B010730831606
:100010009F002D28B801B901242883120313F23060
:10002000A0000A30A1002830A2000A128A11A20BF7
:1000300015280A128A11A10B13280A128A11A00B83
:100040001128B80A0319B90A39083702031D2A28EA
:1000500038083602031D0D28080005148514081100
:100060008312A601A701A801A901AA01AB01AC0155
:10007000AD01AE01AF01B001B101B201B301B401F4
:10008000B50125110120831205184E282608AA0063
:100090002708AB002808AC002908AD008518762891
:1000A0002608AE002708AF002808B0002908B100D4
:1000B0002E08A0002F08A1003008A2003108A300DC
:1000C0002A08A0022B08031C2B0FA1022C08031CDA
:1000D0002C0FA2022D08031C2D0FA3022008B20032
:1000E0002108B3002208B4002308B500003035020F
:1000F000031D842800303402031D8428003033029D
:10010000031D84283230320203198B28031C8B28EC
:10011000251501208D282511012001308312B600FC
:10012000B7010A208312A60A0319A70A0319A80A0D
:060130000319A90A43288F
:02400E00321F5F
:00000001FF
